:020000040800F2
:1000000000000220F9360008F5360008F336000833
:10001000F3360008F3360008F3360008000000004D
:10002000000000000000000000000000F53600089D
:10003000F536000800000000F5360008E505000868
:10004000F3360008F3360008F3360008F3360008EC
:10005000F3360008F33600083D110008F3360008B7
:10006000F3360008F3360008F3360008F3360008CC
:10007000F3360008F3360008F3360008F3360008BC
:10008000F3360008F3360008F3360008F3360008AC
:10009000F3360008F3360008F3360008251C000884
:1000A000F3360008F3360008F3360008F33600088C
:1000B000F3360008F3360008F3360008F33600087C
:1000C000F3360008F3360008F3360008F33600086C
:1000D000F3360008F3360008F3360008F33600085C
:1000E000C11B0008F3360008F3360008F336000899
:1000F000F3360008F3360008F3360008F33600083C
:10010000F3360008F3360008F3360008F33600082B
:10011000F3360008F3360008F3360008BD06000881
:10012000F3360008F3360008F3360008F33600080B
:10013000F3360008F3360008F3360008F3360008FB
:10014000F3360008F3360008F3360008F3360008EB
:10015000F3360008F3360008F3360008F3360008DB
:10016000F3360008F3360008F3360008F3360008CB
:10017000F3360008F3360008F3360008F3360008BB
:10018000F3360008F3360008F3360008F3360008AB
:10019000F3360008F3360008F3360008F33600089B
:1001A000F3360008F3360008F336000808B540F2CD
:1001B000036002F094FD264B1C785B7844EA03242C
:1001C000204600F0FDF8204600F089F8214C20463A
:1001D00001F0B8FB00F00EFA62B600F03BFF2046DB
:1001E00000F0A0FD00231A460121204600F0C9FCC2
:1001F000C821204600F07AFD204600F0FDFD164B98
:100200001C785B7844EA0324204600F0D9F82046A5
:1002100000F051F801F0F0FB02F030FA78B10F482D
:1002200002F018F90E4A0F490A4801F0EFFB084B9B
:100230001A78587842EA002000F03DF8FEE70748B7
:1002400002F04CF90128EDD1024802F013F8FEE764
:10025000B83A000830000020B43A0008040000203A
:10026000803A0008883A000800B5864600239C467C
:10027000184605E00022104380B20CF1010C013356
:100280000F2B0DDC4EFA03F212F0010FF7D041FAFA
:100290000CF212F0010FEDD001229A4012B2EAE7FF
:1002A0005DF804FB012303FA00F0704700F58010AD
:1002B00080308002704730B583B0ADF804009DF8FF
:1002C000045005F00F00FFF7F1FF04462809FFF77F
:1002D000E9FF81B2204602F04DFC03B030BD30B5DD
:1002E00083B0ADF804009DF8045005F00F00FFF74F
:1002F000DDFF04462809FFF7D5FF81B2204602F052
:1003000037FC03B030BD30B583B0ADF804009DF8C4
:10031000045005F00F00FFF7C9FF04462809FFF756
:10032000C1FF81B2204602F028FC03B030BD30B5D9
:1003300083B0ADF804009DF8053003F001038B4253
:100340000FD09DF8045005F00F00FFF7AFFF0446F3
:100350002809FFF7A7FF81B2204602F009FC03B08D
:1003600030BD9DF8045005F00F00FFF79FFF0446D5
:100370002809FFF797FF81B2204602F0FBFBEEE76A
:1003800000B583B0ADF804009DF8040000F00F0044
:10039000FFF78CFF02F0FAFB03B05DF804FB10B529
:1003A00082B0ADF804000C469DF8040000F00F0088
:1003B000FFF77CFF214602F0F2FB02B010BD000007
:1003C000F0B583B0ADF804009DF804302C4A1278E3
:1003D000934229D02B4A1278934239D02A4A127874
:1003E000934238D0294A1278934237D0284A12785B
:1003F000934236D0274A1278934235D0264A127853
:10040000934234D0254A1278934233D0244A12784A
:10041000934232D0234A1278934202D00026012719
:1004200004E00026374601E0002601279DF804502D
:1004300005F00F00FFF73AFF04462809FFF732FFE7
:1004400083B232463946204602F0B3FB03B0F0BD1A
:1004500000260127EAE700260127E7E70026012713
:10046000E4E701260027E1E701260027DEE7012671
:100470000027DBE701260027D8E701260027D5E77C
:10048000B83A0008B43A0008BC3A0008B03A00088C
:10049000983A00089C3A0008A03A0008A43A0008DC
:1004A000A83A0008AC3A0008F0B583B0ADF80400F3
:1004B000032908D80C461546022A08D90198FFF7E7
:1004C0007FFF03B0F0BD0198FFF77AFFF9E79DF8D1
:1004D000047007F00F00FFF7E9FE06463809FFF742
:1004E000E1FE83B22A462146304602F062FBE8E78D
:1004F000F0B583B0ADF804009DF8044004F00F009F
:10050000FFF7D4FE05462009FFF7CCFE064600247F
:10051000274601E001370134092C14DC284602F09B
:1005200035FB304204D19DF8053013F0010FF1D1B5
:10053000284602F02BFB3042EDD09DF8053013F039
:10054000010FE8D1E6E7042F0CDC002003B0F0BD7A
:10055000284602F01BFB304211D09DF8053013F005
:10056000010F0AD1284602F011FB3042F0D19DF86C
:10057000053013F0010FF5D1EAE70120E6E701208D
:10058000E4E730B583B002AB03E90300BDF80250E5
:1005900011462846FFF768FEBDF804404440A4B267
:1005A0009DF8000000F00F00FFF780FE436923EA8A
:1005B00005031C43446103B030BD000010B5014683
:1005C000074C204602F0D1FC0121204602F0BBFF7F
:1005D00003F0DDF9204602F07DFC30BF10BD00BF06
:1005E00000140040024A136801331360704700BFD3
:1005F0008400002008B503F018F9042003F0DAF8AD
:1006000003F0FEF84FF47A5003F0C2F84FF0E02305
:100610004FF47A529A610221FF2003F08DF9FF20F6
:1006200003F035F9024B00221A6003F0F7F808BD19
:1006300084000020044B1B68184400E030BF024BCC
:100640001B688342FAD970478400002010B540F639
:10065000050002F044FB0F4C0F21204602F081FC04
:10066000204602F000FC204602F016FC204602F074
:1006700022FC0121204602F0BBFB0121204602F0B2
:10068000D4FB0221372003F057F9372003F0FFF89D
:1006900010BD00BF0014004010B5044605E04FF443
:1006A0007A70FFF78BFFA4F57A74B4F57A7FF6D2EF
:1006B00004B910BDA0B2FFF781FFFAE708B5012128
:1006C000014802F0B2FB08BD00140040002834D0FD
:1006D00038B50C46C3698569A3B1B3B1C5B1B4F5EA
:1006E0007A7F04D31548A0FB04208009984713485B
:1006F000A0FB043080094FF47A7303FB104000B173
:10070000A84738BD002DE8D1FBE72046A847F8E709
:100710000A4AA2FB041292094FF47A7101FB1242B9
:1007200032B10648A0FB0420800901309847E8E771
:100730000248A0FB04208009F8E77047D34D6210FF
:1007400010F0800F00F0168193386C2800F20F81B2
:10075000DFE810F0FF0001010D010D010D010D0199
:100760000D010D010D010D010D010D010D010D0119
:100770000D010D010D010D0173000D010D01790039
:100780000D01AF0003010D010D010D0183000901F1
:100790000D018100CD00BD000D010D010B01C50053
:1007A0000701C30005010D010D010D01CF006D0012
:1007B0000F016F007100750077007B007D007F00E6
:1007C0008500870089008B008D008F0091009300C9
:1007D0009500970099009B009D009F00A100A30039
:1007E000A500A700A900AB00AD00B100B300B500A3
:1007F000B700B900BB00BF00C100C700C900CB00F3
:10080000D100D300D500D700D900DB00DD00DF0028
:10081000E100E300E500E700E900EB00ED00EF0098
:10082000F100F300F500F700F900FB00FD004120A6
:10083000704742207047A120704704207047E02095
:10084000704745207047A2207047A3207047A4201E
:100850007047A52070474920704705207047A620A3
:1008600070474B207047A72070474D2070474820A5
:1008700070474F207047A820704750207047432092
:10088000704754207047A9207047AA20704758200D
:100890007047E1207047AB207047AC207047E220E2
:1008A0007047AD207047AE20704706207047AF20DC
:1008B000704703207047B0207047B1207047612017
:1008C0007047B2207047B3207047B42070470020B3
:1008D0007047E32070476520704701207047B520BE
:1008E0007047B6207047B7207047B820704769201E
:1008F000704702207047B9207047BA207047BB206C
:100900007047BC207047BD2070476F207047BE20E5
:1009100070477020704763207047BF207047792070
:100920007047E420704778207047E5207047C0206A
:100930007047C1207047E6207047C2207047C3202F
:100940007047C4207047C5207047C6207047C72035
:100950007047CA207047CB207047C8207047C92015
:100960007047CC207047EF207047DF207047FF2092
:100970007047A0207047000038B5264B1D7805F061
:100980000F00FFF793FC04462809FFF78BFC83B2A6
:1009900000220121204602F00CF91F4B1D7805F0C2
:1009A0000F00FFF783FC04462809FFF77BFC83B2A6
:1009B00000220121204602F0FCF8184B1D7805F0BA
:1009C0000F00FFF773FC04462809FFF76BFC83B2A6
:1009D00000220121204602F0ECF8114B1D7805F0B1
:1009E0000F00FFF763FC04462809FFF75BFC83B2A6
:1009F00000220121204602F0DCF80A4C207800F0A9
:100A00000F00FFF753FC63880022012102F0D1F8A8
:100A100038BD00BFC03A0008D03A0008D43A0008F8
:100A2000CC3A0008C43A000838B504460D4683683D
:100A30001A785878012142EA0020FFF778FC2368F1
:100A4000197993F805C005F00F02186841EA0C21E6
:100A5000FFF797FD01212046FFF738FEA3681A78BB
:100A60005878002142EA0020FFF761FC012120466E
:100A7000FFF72CFE38BD38B590F8203013F0010F89
:100A800000D138BD04460D460909FFF7CDFF05F03A
:100A90000F012046FFF7C8FFF3E720B370B51546F6
:100AA0001E46044690F8283013F0010F1ED0C3688C
:100AB000A3B162681378507843EA0020FFF737FC4F
:100AC000E26813785078294643EA0020FFF72FFCAC
:100AD00031782046FFF7CFFF002070BD002AE8D014
:100AE0006FF00200F9E74FF0FF3070474FF0FF3032
:100AF000F3E730B583B0044601238DF807300DF1DC
:100B0000070300221146FFF7C8FF054610B128462B
:100B100003B030BD40F2FA512046FFF7D7FDF6E7AB
:100B200030B583B0044602238DF807300DF107037A
:100B300000221146FFF7B1FF054610B1284603B069
:100B400030BD40F2FA512046FFF7C0FDF6E730B560
:100B500083B00446490041F0040149B211438DF8C5
:100B600007100DF1070300221146FFF796FF054617
:100B700010B1284603B030BD27212046FFF7A6FD5F
:100B8000F7E730B583B00446890041F0080149B267
:100B900041EA420149B219438DF807100DF10703EC
:100BA00000221146FFF779FF054610B1284603B031
:100BB00030BD27212046FFF789FDF7E730B583B028
:100BC0000446C90041F0100149B241EA82018DF8A2
:100BD00007100DF1070300221146FFF75EFF0546DF
:100BE00010B1284603B030BD27212046FFF76EFD27
:100BF000F7E730B583B011F0800F1CD1044612B175
:100C000011F0C00F1AD17AB1402319438DF80710A3
:100C10000DF10703002211462046FFF73EFF05466F
:100C200020B1284603B030BD8023EEE727212046BF
:100C3000FFF74CFDF5E76FF00305F2E76FF00305F2
:100C4000EFE710B582B004468DF807100DF10703E9
:100C500000220121FFF721FF2B212046FFF736FD5F
:100C600002B010BD10B50446436A084698470146D5
:100C70002046FFF7E6FF10BD10B5044643681A781A
:100C80005878002142EA0020FFF751FBE3681A7808
:100C90005878002142EA0020FFF749FB0321204653
:100CA000FFF7C2FE41F204012046FFF70FFD0221CB
:100CB0002046FFF7B9FE64212046FFF707FD022119
:100CC0002046FFF7B1FE27212046FFF7FFFC002357
:100CD0001A4601212046FFF754FF2046FFF709FF7F
:100CE000002201212046FFF732FF10BD98B108B560
:100CF00043691BB108469847002008BD03696BB1E2
:100D00001A785878003918BF012142EA0020FFF70D
:100D10000EFB0020F1E76FF0030070476FF0030057
:100D2000EBE7000020B308B5034602681AB3426837
:100D300022B382682AB382698AB193F8202012F024
:100D4000010F21D05A6A82B193F8282042F00102A3
:100D500083F828201846FFF78FFF002008BDC269DE
:100D6000002AEAD16FF00400F8E7094A5A62EBE77B
:100D70006FF0030070476FF00400EFE76FF00400BE
:100D8000ECE76FF00400E9E76FF00100E6E700BF71
:100D9000410700087047000070B590B006466C46E9
:100DA000144D0FCD0FC40FCD0FC40FCD0FC495E858
:100DB0000F0084E80F00012200213046FFF719FFE1
:100DC00000250CE010AB03EBC503234413F8401CD3
:100DD0003046FFF736FF0134072CF3DD0135072DD0
:100DE00001DC0024F8E7002211463046FFF701FF3E
:100DF00010B070BDDC3A000870B590B006466C4685
:100E0000144D0FCD0FC40FCD0FC40FCD0FC495E8F7
:100E10000F0084E80F00012200213046FFF7E9FEB1
:100E200000250CE010AB03EBC503234413F8401C72
:100E30003046FFF706FF0134072CF3DD0135072D9F
:100E400001DC0024F8E7002211463046FFF7D1FE0E
:100E500010B070BD1C3B000870B582B005460C4652
:100E600001F022FC032C07D814F0030C1AD04FF029
:100E7000FF33019300230FE0A108284601F022FC74
:100E80000646F1E703EB9402AA5C9DF804100A40C1
:100E90008DF804200133DBB29C45F3D8019801F0B2
:100EA0000BFC0646304602B070BD58B110B5044682
:100EB00001F0EEFC0021207A01F0D2FD01F0F6FCF9
:100EC000002010BD6FF00300704770B170B50D4683
:100ED0001446064601F0DCFC2A463146204601F065
:100EE000B1FD01F0E3FC002070BD6FF0030070471E
:100EF000844648B1002303E0985C0CF803000133FA
:100F00008B42F9D3002070476FF003007047002335
:100F100000E001338B4204D2C25CFF2AF9D00020EA
:100F200070470120704778B330B51546864644684F
:100F30008C422BD34FF0000C0CE001338B4207D2D4
:100F4000DEF800006044C05CFF28F6D00022F4E721
:100F50002AB98C44644515D300230122EEE71DB164
:100F60000CEB01039C4209D2002DF2D18C45F0D349
:100F7000DEF800008444ACEB010004E0DEF8000081
:100F8000604400E0002030BD002070470020FAE7F8
:100F90002DE9F04184B000AFC8B30C4616460546B3
:100FA000C1B34368934238D34B68934238D300228D
:100FB0003146FFF7B8FF0246F31D23F00703ADEB00
:100FC000030DE84631466846FFF792FF58BBBFF372
:100FD0005F8F226831464046FFF777FF064628BB01
:100FE0000021287A01F03CFD18BB3B1D95E8070065
:100FF00083E8070094E8070085E8070093E8070006
:1010000084E8070030461037BD46BDE8F0816FF038
:101010000306F7E76FF00306F4E76FF00306F1E766
:101020006FF00306EEE74FF0FF36EBE74FF0FF36C9
:10103000E8E74FF0FF36E5E7002300E001334268C0
:101040009A4205D90268D25CFF2AF7D00020704787
:101050000120704710B50B21062002F06DFC4FF403
:10106000C06001F03CFE2F4C0123002211462046B7
:1010700001F09FFD40F68E0001F031FE2146012077
:1010800001F090FB0021012001F032FB012001F072
:101090005DFB012001F078FB062002F0F8FB04F56F
:1010A00080544FF4007302220021204601F0A7FD76
:1010B0004FF400720121204601F0C7FD4FF4007388
:1010C00000220221204601F074FD4FF4086001F077
:1010D00006FEA4F5883400231A461946204601F07E
:1010E000A7FE3E21204601F03CFF204601F0B6FE5F
:1010F000FF21204601F039FF06220021204601F0A1
:10110000A6FF0021204602F01EF9204602F0D7F982
:1011100000221146204602F0C2F9204601F0DAFE14
:1011200010BD00BF0000024008B502460021024881
:1011300002F0B5F908BD00BF0000014010B5074C32
:1011400021780139C9B20648FFF7D0FD2378103362
:101150002370012001F018FB10BD00BF88000020A3
:1011600030000020682A3AD070B584B006460D469B
:10117000622A32D019B1002905DB00241AE030219F
:10118000FFF770FD29E02D21FFF76CFD6D42F4E7BC
:10119000134A82FB0532EB17C3EBA2031A4603EB9B
:1011A0008303A5EB4303303304A9214401F8103C29
:1011B00015460134002DEBDC04AB2344002203F878
:1011C000102C013C07E004AB234413F8101C3046FC
:1011D000FFF748FD013C002CF5DA04B070BD704704
:1011E0006766666600B583B001900C4B1B7863B9E7
:1011F0000022402101A8FFF7FCFC084A1378C3F144
:101200000103137003B05DF804FB4FF47A70FFF72D
:1012100011FA01A8FFF76DFCEFE700BF890000207D
:101220000EB478B50646059D002413E03046FFF75E
:10123000D9FF0BE020213046FFF714FD2021304676
:10124000FFF710FD02E03046FFF76AFC013501347C
:101250000F2C0BDC297871B10A29E7D00929E9D0D4
:101260000D29F0D03046FFF7FDFCEFE73046FFF7E1
:10127000B9FF0024EEE7BDE8784003B0704708B539
:101280004B1E062B05D8DFE803F00505050505050F
:1012900005000021FFF7D5FC08BD000070B506462B
:1012A0000D463B2926D9B1F5167F2BD23021FFF709
:1012B000D9FC2049A1FB0531002249093046FFF73E
:1012C00051FF3A213046FFF7CDFC1A4CA4FB053400
:1012D0006409C4EB0414B5EB84041BD0092C22D898
:1012E00030213046FFF7BEFC002221463046FFF792
:1012F00039FF70BD3021FFF7B5FC30213046FFF7D4
:10130000B1FCDEE70B49A1FB053100224909FFF7DB
:1013100029FFD6E730213046FFF7A4FC30213046C4
:10132000FFF7A0FCE5E7002221463046FFF71AFF51
:10133000DFE700BF8988888838B5044621B10129D4
:1013400005D0022916D038BDFFF7D3FBFBE70022FA
:101350001146FFF74EFC002504E020212046FFF750
:1013600081FC01350F2DF8DD002211462046FFF7E4
:1013700040FCE8E700224021FFF73BFC00250F2D51
:1013800005DC20212046FFF76DFC0135F7E7002240
:1013900040212046FFF72DFCD5E770B504460E46E8
:1013A0001546FFF7A6FB002211462046FFF721FC59
:1013B0001EB131462046FFF733FF00224021204670
:1013C000FFF717FC1DB129462046FFF729FF70BD26
:1013D00070B504460E46154600221146FFF709FC7B
:1013E00076B104212046FFF74AFF00224021204623
:1013F000FFF7FFFB4DB104212046FFF740FF70BD12
:1014000004492046FFF70CFFEFE702492046FFF7AB
:1014100007FFF4E75C3B00082DE9F04107468846EA
:101420001646D2F801305A681968FFF7B6FF002255
:1014300001213846FFF7CCFF00252C4632E03C4B1B
:1014400000221A70002C70D0D6F8053053F82430E2
:1014500013B1414638469847D6F801306A1C53F814
:10146000222053F825103846FFF797FFAC4205D0ED
:10147000012200213846FFF7ABFF13E000220121D3
:101480003846FFF7A5FF0DE0013CE4B215E001345A
:10149000E4B212E0002201213846FFF799FF244B05
:1014A00000221A7030BF224B1B78002BFAD0052B7C
:1014B000C5D0012BE8D0022BE9D03378A34201D864
:1014C000013BDCB2AC42E5D0621B012A16D0022AF5
:1014D00019D02B1B012BE2D1013DEDB2D6F8013022
:1014E0006A1C53F8222053F825103846FFF755FFA1
:1014F000002201213846FFF76BFFD0E70021384674
:10150000FFF766FFCBE70135EDB2D6F801306A1C74
:1015100053F8222053F825103846FFF73EFF0122EA
:1015200000213846FFF754FFB9E7BDE8F08100BF5E
:101530008000002070B582B005460E460B783C2B2B
:1015400020D93C230B703178514BA3FB01235B095D
:10155000642202FB1313DBB24E4AA2FB0303DB0837
:101560008DF80430A2FB0123DB0803EB8303A1EB1E
:1015700043038DF80530002246212846FFF739FB4A
:1015800000240DE0002BDED101230B70DBE702AB62
:101590002344002213F8041C2846FFF7E3FD01341E
:1015A000012CF4DD002443E0002333700AE032789C
:1015B00002A9194411F8041C02EB820201EB420259
:1015C00032700133012BF2DD334B00221A7002B06E
:1015D00070BD02AB181910F8043C01332F4A82FB8E
:1015E000031202F0FC0101EBA202A3EB420300F89C
:1015F000043C9DF8043003EB83039DF8052002EBC7
:1016000043033C2B3EDD00238DF8043004F14601FA
:101610000022C9B22846FFF7ECFA002202AB2344AD
:1016200013F8041C2846FFF79DFD1B4B00221A707F
:1016300030BF194B1B78002BFAD0052BB4D0012BEF
:10164000C7D0022B08D0042B17D0032BD1D1002CEC
:10165000CFD10134E4B2CCE702AB181910F8043C46
:1016600009330E4A82FB031202F0FC0101EBA202D5
:10167000A3EB420300F8043CBBE7002CE5D0013C9F
:10168000E4B2B6E7002BC1D101238DF80530BDE7E8
:101690001F85EB51CDCCCCCC800000206766666600
:1016A0002DE9F0410546884616461F4613780B7013
:1016B0000221FFF741FE1E492846FFF7B1FD002237
:1016C00031782846FFF74EFD00241DE0335D88F891
:1016D0000030184B00221A70BDE8F081013494FBF1
:1016E000F7F307FB1344E4B202212846FFF724FE78
:1016F0000F492846FFF794FD0022315D2846FFF789
:1017000031FD0C480023037030BF0A4800780028E0
:10171000FAD00528DAD00128E0D00228E4D1013C33
:101720003C4494FBF7F307FB1344E4B2DCE700BF4F
:10173000603B00088000002030BF044B1B78052B65
:10174000FAD1024B00221A70704700BF80000020BF
:10175000002393420FD200B510F803E011F803C044
:10176000E64506D10133DBB29342F5D301205DF8A3
:1017700004FB0020FBE70120704700002DE9F04149
:1017800006460D4617461A469DF81880002402E0CA
:10179000002129550134A742FADC3946304600F0D1
:1017A00051F900241FE02D4B00221A70BDE8F08192
:1017B0002B5D01332A4A82FB031202F0FC0101EB8C
:1017C000A202A3EB42032B5504F142010022C9B24D
:1017D0003046FFF70EFA0022295D3046FFF7C2FCC3
:1017E0001E4B00221A701D4B1B78002BFBD0052BC3
:1017F000D9D0012BDCD0022B0FD0B8F1000F19D1BA
:10180000164B1B78032B21D0042B22D0002C23DB7A
:10181000A742D9DC7C1E64B2D6E72B5D0933104A9F
:1018200082FB031202F0FC0101EBA202A3EB4203D4
:101830002B55C9E704F142010022C9B23046FFF737
:10184000D8F904213046FFF71AFDD9E7013464B214
:10185000DCE7013C64B2D9E70024B5E78000002052
:101860006766666608B50821282002F065F8144905
:101870004FF4004000F096FF01214FF4004000F0CB
:1018800037FF4FF4004000F061FF4FF4004000F0DC
:101890007BFF0C494FF4006000F084FF01214FF4FE
:1018A000006000F025FF4FF4006000F04FFF4FF4A0
:1018B000006000F069FF282001F0E9FF08BD00BFCB
:1018C000000002400008024010B50821172002F075
:1018D00033F81B4C2146402000F064FF01214020DA
:1018E00000F006FF402000F031FF402000F04CFFE8
:1018F00021464FF4807000F055FF01214FF48070B5
:1019000000F0F6FE4FF4807000F020FF4FF480707E
:1019100000F03AFF21464FF4007000F043FF012130
:101920004FF4007000F0E4FE4FF4007000F00EFF82
:101930004FF4007000F028FF172001F0A8FF10BD41
:101940000008024008B540F2046001F0C8F9FFF752
:1019500013F8054B197993F805C00022186841EA7D
:101960000C21FEF70EFE08BDC43A000808B54FF47E
:10197000C06001F0B4F940F2026001F0B0F9124B1E
:101980001A78587842EA0020FEF71AFD0F4B1A78B1
:10199000587842EA0020FEF713FD0D4B1A7858786C
:1019A00042EA0020FEF70CFD0A4B1A78587842EA0A
:1019B0000020FEF705FD084B1A78587842EA00200F
:1019C000FEF7FEFC08BD00BF983A00089C3A0008EC
:1019D000A03A0008A43A0008A83A000808B54FF455
:1019E000A06001F04BFF40F68E0001F078F9FFF7A0
:1019F00039FFFFF769FF08BD08B540F20C6001F040
:101A00006EF908BD08B5FFF774F808BD70B5044657
:101A10000E461546FFF76DF8002211462046FFF7E7
:101A2000E8F81EB131462046FFF7FAFB00224021BC
:101A30002046FFF7DEF81DB129462046FFF7F0FBF0
:101A400070BD000070B505460E461446FFF751F80C
:101A5000002211462846FFF7CCF80C4B197828468F
:101A6000FFF70DFC21462846FFF7DAFB0022422152
:101A70002846FFF7BEF8002405E005492846FFF791
:101A8000CFFB0134E4B2B442F7D370BD01000020B3
:101A9000643B000870B505460C4616469AB14026D0
:101AA00011E0002231462846FFF7A3F807492846EF
:101AB000FFF7B6FB21462846FFF7F0FB4FF47A709C
:101AC000FEF7B8FD013C002CEBDA70BD603B00086E
:101AD00010B50446FFF70DF8002211462046FFF727
:101AE00088F806212046FFF7CAFB02492046FFF787
:101AF00097FB10BD683B000810B50446FEF7F9FFE0
:101B0000002211462046FFF774F8054B197820464D
:101B1000FFF7B5FB03492046FFF782FB10BD00BF6E
:101B200001000020743B0008F0B583B0ADF804005C
:101B30009DF8040000F00F00FEF7B8FB05469DF885
:101B400004000009FEF7AEFB06460024274601E02C
:101B500001370134092C14DC284601F017F8304213
:101B600004D19DF8053013F0010FF1D1284601F0A2
:101B70000DF83042EDD09DF8053013F0010FE8D19B
:101B8000E6E7042F0CDC002003B0F0BD284600F08F
:101B9000FDFF304211D09DF8053013F0010F0AD13E
:101BA000284600F0F3FF3042F0D19DF8053013F0E5
:101BB000010FF5D1EAE70120E6E70120E4E70000A4
:101BC00008B54FF4006000F0E5FD78B1124B1A78CB
:101BD000587842EA0020FFF7A7FF10B10F4B03220D
:101BE0001A704FF4006000F0CFFD08BD4FF40040C4
:101BF00000F0D0FD0028F8D0094B1A78587842EA56
:101C00000020FFF791FF10B1044B05221A704FF42A
:101C1000004000F0B9FDE8E7983A00088000002095
:101C20009C3A000808B5402000F0B4FD70B11D4B8F
:101C30001A78587842EA0020FFF776FF10B11A4B65
:101C400001221A70402000F09FFD08BD4FF4807003
:101C500000F0A0FD78B1154B1A78587842EA0020C0
:101C6000FFF762FF10B1104B02221A704FF4807020
:101C700000F08AFDE9E74FF4007000F08BFD0028CA
:101C8000E3D00B4B1A78587842EA0020FFF74CFF5C
:101C900010B1054B04221A704FF4007000F074FD6F
:101CA000D3E700BFA43A000880000020A83A00084B
:101CB000A03A000870B59EB086460E461E4B1AAD7F
:101CC0000FCB85E80F001D4A17AB07CA03C31A8064
:101CD0001B4B13AC0FCB07C423701A4A10AB07CAB7
:101CE00003C323F8022B120C1A70174A0DAB07CA54
:101CF00003C31A80089517AB099313AB0A9310AB73
:101D00000B930DAB0C930DF10C0C104C0FCCACE8FD
:101D10000F002368CCF8003005238DF8003008ABA5
:101D2000CDF8013003ABCDF805306A463146704638
:101D3000FFF772FB1EB070BD843B0008943B0008A7
:101D4000A03B0008B03B0008BC3B0008DC3C00089E
:101D500030B59FB086460D46244B1AAC0FCB84E8B5
:101D60000F00234B0DF1580C0FCBACE807002CF8FB
:101D7000023B1B0C8CF800301E4B0DF1480C0FCBB6
:101D8000ACE807008CF800301B4B0DF1380C0FCB82
:101D9000ACE80700ACF8003009A9002309930A93C6
:101DA0000B930C930D93099416AA0A9212AA0B9204
:101DB0000EAA0C9204AA0493059306930793089322
:101DC0000E4B05930E4B06930E4B079304238DF891
:101DD0000430CDF80510CDF809200DEB030229469B
:101DE0007046FFF719FB1FB030BD00BF843B0008F1
:101DF000C83B0008D83B0008E83B0008591F000812
:101E0000D51E0008851E000830B593B084460C46E8
:101E1000174B0EAD0FCB85E80F00164B0CAA93E8BD
:101E2000030082E8030014490AAB03C983E80300F6
:101E300007950892099304AB104A07CA83E8070084
:101E400003228DF8042007AACDF80520CDF809302B
:101E500094F8295001AA21466046FFF7DDFA94F86C
:101E60002930AB4202D0064B01221A7013B030BDAC
:101E7000843B0008F83B0008003C0008F03C0008E8
:101E80008A000020F0B583B005460C460E4616F8D1
:101E9000277F0D4B1B68ADF804301B0C8DF8063006
:101EA00000220A49FFF7B2FD032301AA3146284662
:101EB000FFF7F6FB94F82730BB4202D0044B012217
:101EC0001A7003B0F0BD00BF183C0008083C0008C1
:101ED0008A000020F0B583B005460C460E4616F881
:101EE000287F0D4B93E8030000908DF8041000222A
:101EF0000A492846FFF78AFD05236A4631462846E7
:101F0000FFF7CEFB94F82830BB4202D0044B0122ED
:101F10001A7003B0F0BD00BF283C00081C3C00084C
:101F20008A00002030B583B004460D461146094BA7
:101F30001B68ADF804301B0C8DF806300022FFF74B
:101F400065FD032301AA29462046FFF7A9FB03B03C
:101F500030BD00BF303C0008F8B505460C460E46C3
:101F600056F81E7F00220849FFF750FD31462846EB
:101F7000FFF7E0FAD4F81E30C4F82230BB4202D09A
:101F8000024B01221A70F8BD343C00088A00002080
:101F900008B5002281F829200249FFF737FDFFF735
:101FA000CBFB08BD443C0008F8B505460C460E4680
:101FB00056F81A7F00220C49FFF728FD31462846C3
:101FC000FFF7B8FA012384F82930D4F81A30BB425D
:101FD00002D0064B01221A70002205492846FFF75D
:101FE00015FDFFF7A9FBF8BD543C00088A0000204E
:101FF000643C0008F0B589B0054614461F4600262B
:102000008DF81F601E4A0DF11F01FFF78BFF009630
:102010001C4B9DF81F2005A92846FFF7AFFB009633
:10202000194B9DF81F2003A92846FFF7A7FB9DF831
:102030001F2003A905A8FFF78BFBD0B19DF81F3027
:102040003B70334605E008AAD11811F80C1CE15486
:1020500001339DF81F109942F5DC0C4A0C492846C3
:10206000FFF7D4FC0B4B01221A70FFF765FB09B098
:10207000F0BD094A09492846FFF7C8FCF5E700BF4B
:10208000743C0008803C00088C3C0008943C00082C
:10209000A03C00088A000020B03C0008C03C0008BA
:1020A00008B50A4601F119030832FFF7A3FF08BD7E
:1020B00008B50A4601F11803FFF79CFF08BD0000B0
:1020C00030B585B005460C4601230093144B4A7E7B
:1020D00002A9FFF753FB627E04F1080102A8FFF793
:1020E00037FB08B905B030BD21462846FFF7E2FDB1
:1020F0000C4B1B7843B994F8273084F82630D4F879
:102100001E30C4F82230EDE7204600F0A3F900238A
:1021100084F82630D4F81E30C4F82230EBE700BF34
:10212000CC3C00088A00002008B5282001F0AFFB55
:10213000172001F0ACFB08BD08B5282001F0B4FB66
:10214000172001F0B1FB08BD70B506460C461546D8
:10215000FFF7F2FF25B194F82630013384F82630DA
:1021600094F8262094F827309A4204D200F080FA9E
:10217000FFF7DAFF70BD3046FEF7BBFC3046FFF7D5
:10218000BBFC0122D4F822103046FFF783FC002D5F
:10219000ECD094F82820D4F8223002FB03F3C4F8E2
:1021A0002230E3E710B50446054B1A78587842EA26
:1021B0000020FEF780F8002384F82A3010BD00BF0D
:1021C000B43A000810B50446054B1A78587842EA2C
:1021D0000020FEF784F8012384F82A3010BD00BFE8
:1021E000B43A000838B505460C46FFF7A5FF20466F
:1021F000FFF7E8FF2846FFF76BFC0122D4F81A101E
:102200002846FFF747FC2046FFF7CCFFFFF78CFF7F
:1022100038BD000008B590F82A302BB1FFF7C2FF97
:10222000044B05221A7008BDFFF7CCFF014B0622B4
:102230001A70F8E701000020002380F82630D0F85B
:102240001E30C0F82230704738B505460C46FFF7FF
:1022500073FF2046FFF7F0FF94F8293033B1214691
:102260002846FFF7BFFFFFF75FFF38BD2046FFF7A7
:10227000D1FFF8E710B50446FFF75EFF024A0349B5
:102280002046FFF7C3FB10BDFC3C00080C3D0008D6
:1022900091F826300370D1F82230C0F80130704731
:1022A000037881F82630D0F80130C1F82230704729
:1022B000002302E0CA5CC2540133072BFADD00237D
:1022C00008E003F1080201EB030C9CF808C000F8D9
:1022D00002C00133072BF4DD002308E003F11002F4
:1022E00001EB030C9CF810C000F802C00133072B6F
:1022F000F4DD0B7E03764B7E4376D1F81A30C0F8BE
:102300001A30D1F81E30C0F81E30D1F82230C0F893
:10231000223091F8263080F8263091F8273080F866
:10232000273091F8283080F8283091F8293033B1DF
:10233000012380F82930002380F82A3070470023D9
:1023400080F82930F7E7002302E0C25CCA54013369
:10235000072BFADD002307E003F1080210F802C0A2
:10236000CA1882F808C00133072BF5DD002307E007
:1023700003F1100210F802C0CA1882F810C001332D
:10238000072BF5DD037E0B76437E4B76D0F81A30B3
:10239000C1F81A30D0F81E30C1F81E30D0F8223003
:1023A000C1F8223090F8263081F8263090F8273096
:1023B00081F8273090F8283081F8283090F82930BB
:1023C00033B1012381F82930002381F82A30704786
:1023D000002381F82930F7E710B582B004460022C7
:1023E00006211148FEF79FFD024670B906220F49EB
:1023F0000D48FEF7CDFD08B101200FE001220621B6
:102400000948FEF790FD024650B18DF807400532AD
:1024100001210DF10700FEF758FD18B902B010BDFB
:102420000120FBE70120F9E75C00002068000020A4
:1024300008B50548FEF739FD0448FEF736FD0448A7
:10244000FEF733FD002008BD740000205C00002072
:102450006800002000B58FB0014602A8FFF728FFF2
:102460002B2102A8FEF7F8FC0190002309E003F1FC
:102470002B0201A9C95C0EA8024402F8301C0133EA
:10248000DBB2032BF3D901222F211148FEF74BFDBC
:10249000024670B92B220F490F48FEF779FD08B1AB
:1024A00001200DE001222B210B48FEF73CFD0246E6
:1024B00048B1BFF35F8F2F2102A8FEF706FD20B9B8
:1024C0000FB05DF804FB0120FAE70120F8E700BF38
:1024D00074000020680000205C00002030B58DB042
:1024E000044600222F211448FEF71DFD10B90120DB
:1024F0000DB030BD02462F216846FEF7F9FC08B149
:102500000120F5E7BFF35F8F21466846FFF71BFF09
:10251000DDF82B502B216846FEF79EFCBFF35F8F42
:10252000BFF34F8F854201D00120E1E72146684685
:10253000FFF709FF0020DBE77400002000B583B03F
:1025400001466846FFF7A4FEFE238DF80530012200
:1025500006211148FEF7E7FC024670B906220F4932
:102560000D48FEF715FD08B101200DE001220621FE
:102570000948FEF7D8FC024648B1BFF35F8F062139
:102580006846FEF7A2FC20B903B05DF804FB012009
:10259000FAE70120F8E700BF5C0000206800002097
:1025A00010B582B00446002206210B48FEF7BBFCA2
:1025B00010B9012002B010BD024606216846FEF7A0
:1025C00097FC08B10120F5E7BFF35F8F214668460D
:1025D000FFF766FE0020EDE75C00002000B583B049
:1025E000002206210E48FEF79EFC421D01210DF13E
:1025F0000700FEF77DFCBFF35F8F9DF80730DBB26D
:10260000FA2B0AD09DF80730DBB2F22B03D0002062
:1026100003B05DF804FB0120FAE70120F8E700BFF2
:102620005C00002000B583B0002206210A48FEF7B6
:102630007AFC421D01210DF10700FEF759FCBFF3A2
:102640005F8F9DF80730DBB2FA2B03D0002003B078
:102650005DF804FB0120FAE75C00002008B5FC20CF
:10266000FFF7BAFE08BD08B5FA20FFF7B5FE08BDB2
:1026700008B5F220FFF7B0FE08BD000008B5074816
:10268000FEF7DAFC00B908BD0548FEF7D5FC0028C6
:10269000F9D00448FEF7D0FCF5E700BF7400002035
:1026A0005C00002068000020024A936843F00103A8
:1026B0009360704700300240014B18601868704703
:1026C0000030024000238B420CDA10B4074A50F865
:1026D0002340146001338B42F8DB044B18685DF82B
:1026E000044B7047014B1868704700BF0030024030
:1026F000012910D002291BD001B17047124BD3F829
:10270000082C0243C3F8082CD3F80C2C22EA000052
:10271000C3F80C0C70470C4BD3F8082C22EA0002CB
:10272000C3F8082CD3F80C2C1043C3F80C0C7047DA
:10273000054BD3F8082C0243C3F8082CD3F80C2C13
:102740001043C3F80C0CD8E700300140054BD3F818
:10275000002C0243C3F8002CD3F8042C1043C3F818
:10276000040C704700300140064BD3F8001C21EAEE
:102770000001C3F8001CD3F8042C22EA0002C3F8BD
:10278000042C704700300140014BC3F8140C704713
:1027900000300140024BD3F8143C1840704700BF92
:1027A0000030014000225FE0A3F50063994249D068
:1027B00003F58063994247D1022302F0030E4FEAEA
:1027C0008E0E0F2404FA0EF52C4C04EB920C4FEAFB
:1027D0008C0CDCF8004024EA050403FA0EF32343D2
:1027E000CCF8003001320F2A3CD801239340034239
:1027F000F8D0234B994221D00DD8A3F540639942DC
:102800001ED0D1D91F4B994220D003F58063994245
:102810001ED10523D1E71C4B99421BD004D91B4B79
:1028200099421DD10A23C8E7A3F50063994213D04A
:1028300003F58063994211D10823BEE70623BCE764
:102840000323BAE70123B8E70023B6E70423B4E77C
:102850000023B2E70923B0E70723AEE70023ACE784
:102860000023AAE730BD01320F2A05D80123934087
:102870000342F8D030B5BCE7704700BF024E0010ED
:1028800000180240001002400024024000280240CC
:10289000044B054AC3F8042C02F18832C3F8042C17
:1028A000704700BF0030024023016745034AD2F859
:1028B000103C43F00043C2F8103C70470030024027
:1028C000034AD2F80C3C43F00103C2F80C3C7047B9
:1028D00000300240034AD2F80C3C43F02003C2F817
:1028E0000C3C704700300240034AD2F80C3C43F0E5
:1028F0004003C2F80C3C704700300240034AD2F853
:102900000C3C43F01003C2F80C3C7047003002400E
:10291000034AD2F8143C43F00103C2F8143C704758
:1029200000300240F8B5054616461F4601F05AF839
:102930000E4CD4F8103C23F44073C4F8103CD4F887
:10294000103C43F44073C4F8103CD4F8103C43F0FE
:102950000103C4F8103CC5E9006701F043F8D4F85E
:10296000103C23F00103C4F8103CF8BD00300240D5
:1029700070B505460E4601F035F80E4CD4F8103C03
:1029800023F44073C4F8103CD4F8103C43F40073B3
:10299000C4F8103CD4F8103C43F00103C4F8103CD8
:1029A0002E6001F01FF8D4F8103C23F00103C4F8A6
:1029B000103C70BD0030024070B505460E4601F077
:1029C00011F80E4CD4F8103C23F44073C4F8103CBA
:1029D000D4F8103C43F48073C4F8103CD4F8103C95
:1029E00043F00103C4F8103C2E8000F0FBFFD4F844
:1029F000103C23F00103C4F8103C70BD00300240CD
:102A000070B505460E4600F0EDFF0D4CD4F8103CB5
:102A100023F44073C4F8103CD4F8103CC4F8103CC4
:102A2000D4F8103C43F00103C4F8103C2E7000F0C1
:102A3000D9FFD4F8103C23F00103C4F8103C70BD5A
:102A400000300240F8B507460E461546002404E063
:102A5000315DE019FFF7D4FF0134AC42F8D3F8BD83
:102A600038B505460C4600F0BDFF1D4BD3F8102CC1
:102A700022F44072C3F8102CD3F8102C42EA04223E
:102A8000C3F8102C0B2D01D90435EDB2144CD4F839
:102A9000103C23F0F803C4F8103CD4F8103CED00CF
:102AA000EDB21D43C4F8105CD4F8103C43F00203AF
:102AB000C4F8103CD4F8103C43F48033C4F8103C04
:102AC00000F090FFD4F8103C23F00203C4F8103C4F
:102AD000D4F8103C23F0F803C4F8103C38BD00BF14
:102AE0000030024038B5054600F07CFF104CD4F8A9
:102AF000103C23F44073C4F8103CD4F8103C43EA73
:102B00000523C4F8103CD4F8103C43F00403C4F887
:102B1000103CD4F8103C43F48033C4F8103C00F06F
:102B200061FFD4F8103C23F00403C4F8103C38BD16
:102B30000030024010B5044600F054FF0B4BD3F8B0
:102B4000143C13F0010F0DD124F00304074BC3F81C
:102B5000144CD3F8142C42F00202C3F8142C00F0E9
:102B600041FF10BD00F07EFFEEE700BF00300240E5
:102B700081617047090481617047436901EA03027A
:102B800021EA030141EA024181617047006980B294
:102B9000704710B50C46FFF7F9FF204010BD4161AA
:102BA000704741F48033C361C161C361C369C369C4
:102BB0007047F0B50668C5684FF0000C03E00CF1F3
:102BC000010C1FFA8CFCBCF10F0F15D843FA0CF462
:102BD00014F0010FF3D04FEA4C0E032404FA0EF464
:102BE00026EA040601FA0EF73E4325EA040502FA36
:102BF0000EFE4EEA0505E2E70660C560F0BD10B5C1
:102C0000012906D0416821EA03014160846800215E
:102C100005E0416819434160F8E7013189B20F29A5
:102C200011D843FA01FC1CF0010FF6D04FEA410C19
:102C30004FF0030E0EFA0CFE24EA0E0402FA0CFC0E
:102C40004CEA0404E9E7846010BD30B5046A456AC3
:102C500000230DE04FEA830E4FF00F0C0CFA0EFC30
:102C600024EA0C0401FA0EFE4EEA040401339BB27E
:102C7000072B05D842FA03FC1CF0010FEAD1F5E757
:102C800008230FE0A3F1080C4FEA8C0C4FF00F0E55
:102C90000EFA0CFE25EA0E0E01FA0CFC4CEA0E05AB
:102CA00001339BB20F2B05D842FA03FC1CF0010F35
:102CB000E8D1F5E70462456230BD03680B43036069
:102CC0007047036823EA01030360704703680B43FE
:102CD00003607047036823EA0103036070474309F8
:102CE00003F1804303F50E331A6800F01F00012141
:102CF00001FA00F0104318607047430903F1804364
:102D000003F50E331A6800F01F00012101FA00F0EC
:102D100022EA000018607047430903F1804303F57D
:102D20000E33196800F01F00012202FA00F001437F
:102D300019601A6822EA000018607047430903F11D
:102D4000804303F50E331A6800F01F00012101FAD9
:102D500000F0104318607047430903F1804303F506
:102D60000E331A6800F01F00012101FA00F022EA78
:102D70000000186070470000044AD2F8083823F4B5
:102D8000C00343EA4053C2F808387047003002409D
:102D9000032802D0052808D07047084AD2F8003826
:102DA00043F48023C2F800387047044AD2F87038E0
:102DB00043F00403C2F87038704700BF003002408F
:102DC000032802D0052808D07047084AD2F80038F6
:102DD00023F48023C2F800387047044AD2F87038D0
:102DE00023F00403C2F87038704700BF003002407F
:102DF000C3680B43C3607047C36823EA0103C36021
:102E000070470369C26813400B4203D0802903D87E
:102E100001207047002070470020704703690B4273
:102E200001D10020704701207047C94301617047FC
:102E300010B4046824F45C7C1143194341EA0C018A
:102E400001605DF8044B704701F44073026822F49E
:102E5000407202600168194301607047036843F0E3
:102E6000800303607047036823F0800303607047AA
:102E700001F06003026822F06002026001681943F9
:102E800001607047036823F0100303607047036814
:102E900043F0100303607047036843F008030360C6
:102EA0007047036823F0080303607047036823F04A
:102EB000040303607047036843F004030360704732
:102EC000036823F0020303607047036843F00203C2
:102ED00003607047036843F00103036070470368B1
:102EE00023F0010303607047436801F4FE410B4384
:102EF00043607047436801F4FE4123EA01034360E5
:102F00007047436843F0800343607047436823F091
:102F1000800343607047426822F070024260436859
:102F20000B4343607047436823F0080343607047D6
:102F3000436843F0080343607047436843F0040369
:102F400043607047436823F004034360704743685D
:102F500043F0010343607047436823F0010343607B
:102F600070478162704701637047C16270470629EC
:102F700018D8DFE801F0041709170E17130083694A
:102F800043F0800383617047836943F400438361A6
:102F90007047C36943F08003C3617047C36943F45A
:102FA0000043C3617047062918D8DFE801F0041711
:102FB00009170E171300836923F08003836170479C
:102FC000836923F4004383617047C36923F080035E
:102FD000C3617047C36923F40043C3617047062986
:102FE00018D8DFE801F0041709170E1713008369DA
:102FF00043F0040383617047836943F48063836112
:103000007047C36943F00403C3617047C36943F465
:103010008063C3617047062918D8DFE801F0041700
:1030200009170E171300836923F0040383617047A7
:10303000836923F4806383617047C36923F00403C9
:10304000C3617047C36923F48063C3617047062975
:1030500000F2EA80DFE811F00700E8004000E80035
:103060007900E800B100836923F003038361836979
:103070008361836923F070038361072A00F2D4809F
:10308000DFE802F004070C11161B20258369836119
:103090007047836943F0100383617047836943F08D
:1030A000200383617047836943F030038361704775
:1030B000836943F0400383617047836943F05003A1
:1030C00083617047836943F060038361704783695C
:1030D00043F0700383617047836923F44073836115
:1030E00083698361836923F4E0438361072A00F2E3
:1030F0009B80DFE802F004070C11161B2025836972
:1031000083617047836943F48053836170478369A7
:1031100043F4005383617047836943F440538361F0
:103120007047836943F4804383617047836943F444
:10313000A04383617047836943F4C0438361704750
:10314000836943F4E04383617047C36923F0030359
:10315000C361C369C361C36923F07003C361072AF4
:1031600062D8DFE802F004070C11161B2025C369A2
:10317000C3617047C36943F01003C3617047C369FB
:1031800043F02003C3617047C36943F03003C36158
:103190007047C36943F04003C3617047C36943F09C
:1031A0005003C3617047C36943F06003C361704754
:1031B000C36943F07003C3617047C36923F440736C
:1031C000C361C369C361C36923F4E043C361072AD0
:1031D0002AD8DFE802F004070C11161B2025C3696A
:1031E000C3617047C36943F48053C3617047C369C7
:1031F00043F40053C3617047C36943F44053C36150
:103200007047C36943F48043C3617047C36943F4A3
:10321000A043C3617047C36943F4C043C3617047AF
:10322000C36943F4E043C3617047062918D8DFE857
:1032300001F0041709170E171300836943F0080300
:1032400083617047836943F4006383617047C36996
:1032500043F00803C3617047C36943F40063C3616B
:103260007047062918D8DFE801F0041709170E1770
:103270001300836923F0080383617047836923F493
:10328000006383617047C36923F00803C36170471B
:10329000C36923F40063C3617047062927D8DFE8B8
:1032A00001F00418091D0E221300036A23F0020323
:1032B00003627047036A23F0200303627047036AC6
:1032C00023F4007303627047036A23F4005303621C
:1032D0007047036A23F0080303627047036A23F010
:1032E000800303627047036A23F40063036270473C
:1032F000062927D8DFE801F00418091D0E22130063
:10330000036A43F0020303627047036A43F0200339
:1033100003627047036A43F4007303627047036AF1
:1033200043F4005303627047036A43F008030362E7
:103330007047036A43F0800303627047036A43F4F3
:10334000006303627047062927D8DFE801F00418FC
:10335000091D0E221300036A43F001030362704744
:10336000036A43F0100303627047036A43F48073F7
:1033700003627047036A43F4805303627047036A31
:1033800043F0040303627047036A43F0400303629F
:103390007047036A43F4806303627047062927D8A5
:1033A000DFE801F00418091D0E221300036A23F060
:1033B000010303627047036A23F01003036270473E
:1033C000036A23F4807303627047036A23F4805313
:1033D00003627047036A23F0040303627047036AC1
:1033E00023F0400303627047036A23F4806303629F
:1033F0007047062927D8DFE801F004090E13181DCD
:103400002200436843F4807343607047436843F489
:10341000007343607047436843F4806343607047C0
:10342000436843F4006343607047436843F4805348
:1034300043607047436843F40053436070474368F8
:1034400043F4804343607047062927D8DFE801F042
:1034500004090E13181D2200436823F4807343608F
:103460007047436823F4007343607047436823F454
:10347000806343607047436823F400634360704790
:10348000436823F4805343607047436823F4005338
:1034900043607047436823F48043436070470629C4
:1034A0000CD8DFE801F0040B060B080B0A0042639E
:1034B000704782637047C263704702647047436C11
:1034C00043F4004343647047436C23F40043436474
:1034D0007047436C43F4804343647047436C23F468
:1034E000804343647047436C43F400534364704724
:1034F000436C23F4005343647047436C43F480539C
:1035000043647047436C23F4805343647047436CB7
:1035100043F4006343647047436C23F400634364E3
:103520007047436C43F4806343647047436C23F4F7
:10353000806343647047436C0B4343647047436C40
:103540000B434364704743690B4343617047406AD0
:10355000704741627047032926D8DFE801F0020B6B
:10356000141D836923F0F0038361836943EA021227
:1035700082617047836923F470438361836943EAFE
:10358000023282617047C36923F0F003C361C369EB
:1035900043EA0212C2617047C36923F47043C361F6
:1035A000C36943EA0232C2617047032926D8DFE8C3
:1035B00001F0020B141D836923F00C0383618369FE
:1035C00043EA820282617047836923F44063836126
:1035D000836943EA822282617047C36923F00C0346
:1035E000C361C36943EA8202C2617047C36923F4BD
:1035F0004063C361C36943EA8222C261704702F03B
:103600000302012907D0032905D003292BD8DFE8BD
:1036100001F009111A22531EDBB2012BF5D882F0FA
:103620000302F2E7836923F00303836183691A438A
:1036300082617047836923F440738361836943EA3D
:10364000022282617047C36923F00303C361C36927
:103650001A43C2617047C36923F44073C361C369ED
:1036600043EA0222C2617047036A8A000121914045
:103670000B4303627047036A8A000121914023EAE9
:10368000010303627047826822F47062826083687B
:1036900043EA012383607047826822F440528260CB
:1036A000836843EA01338360704721B1836843F440
:1036B000004383607047836823F40043836070474E
:1036C000836823F007038360836819438160704730
:1036D000836823F0700383608368194381607047B7
:1036E0004FF0E022D2F8883D43F47003C2F8883DE1
:1036F0007047FEE77047000010B51B4B1B4903E005
:1037000051F8042B43F8042B194A9342F8D302E0F2
:10371000002243F8042B174A9342F9D34FF0E022DA
:10372000D2F8143D43F40073C2F8143DFFF7D8FFFC
:10373000114C02E054F8043B9847104B9C42F9D3DB
:103740000F4C02E054F8043B98470E4B9C42F9D3CF
:10375000FCF72CFD0C4C02E054F8043B98470B4B53
:103760009C42F9D310BD00BF00000020143D0008AA
:10377000800000208C000020143D0008143D00084B
:10378000143D0008143D0008143D0008143D0008D5
:1037900020F07F404FF0E023586170474FF0E02366
:1037A000586920F07F4070474FF0E023986920F07F
:1037B0007F4070474FF0E022136923F0040300F0CC
:1037C000040003431361704710B5B1FBF0F40B4BD9
:1037D0009C4210D86FF07F439C4208D3E40800203D
:1037E000FFF7E8FF601EFFF7D3FF012010BD0420A4
:1037F000FFF7E0FFF6E70020F8E700BFF7FFFF075D
:103800004FF0E022136943F00203136170474FF059
:10381000E022136923F00203136170474FF0E022A6
:10382000136943F00103136170474FF0E0221369FD
:1038300023F00103136170474FF0E0231869C0F3D0
:10384000004070474FF0E02300229A6170474FF02C
:10385000E023D86920F07F40704700004FF0E0235C
:10386000014AC3F80C2DFEE70100FA054FF0E023F2
:10387000014AC3F80C2DFEE70400FA0540F0BF60D2
:1038800040F400304FF0E023C3F80C0D704700F017
:103890001F0143099B0003F1604303F561430122CB
:1038A0008A401A607047000000F01F02400901239F
:1038B0009340024A42F82030704700BF80E100E0A8
:1038C00043099B0003F1604303F562431A6800F06B
:1038D0001F00012303FA00F0024214BF1846002023
:1038E000704700F01F0143099B0003F1604303F59B
:1038F000624301228A401A607047000000F01F02F4
:10390000400901239340024A42F82030704700BF2B
:1039100080E200E043099B0003F1604303F561434B
:103920001A6800F01F00012303FA00F0024214BFDE
:1039300018460020704700005A2804D900F00F00F4
:10394000044BC154704700F1604000F564400170C1
:10395000704700BF14ED00E043099B0003F1604392
:1039600003F563431A6800F01F00012303FA00F017
:10397000024214BF184600207047EF2806D84FF0C7
:10398000E023D3F8002F1043C3F8000F7047BFF3B4
:103990005F8F704750E8000F704741E800031846FA
:1039A000704710B50446FFF7F5FF30B10124FFF76B
:1039B000EEFFB4FA84F0400910BD21460120FFF764
:1039C000ECFF0446F3E710B504462046FFF7E9FF95
:1039D0000028FAD010BD10B50446FFF7D8FF002329
:1039E000236010BD034BD3F80C3C13F4803FF9D196
:1039F000704700BF00300240034AD2F80C3C43F04D
:103A00008003C2F80C3C70470030024008B5FFF755
:103A1000F3FFFEF75FFFFEF771FFFEF765FFFEF7AE
:103A20004FFF08BD034AD2F8003C43F48073C2F84C
:103A3000003C704700300240034AD2F8003C23F4B7
:103A40008073C2F8003C704700300240044AD2F84C
:103A5000003C23F00F030343C2F8003C704700BF53
:103A600000300240044B054AC3F8082C02F14432EE
:103A7000C3F8082C704700BF003002403B2A1908E9
:103A8000776173207365740044656661756C74209A
:103A90006461746100000000B2010000F0010000E8
:103AA000920100006201000082010000000000009D
:103AB000F3000000C3000000D3000000E30000009A
:103AC00094000000040000F000000000B4000000BA
:103AD00074000000A4000000E803000000011F10B3
:103AE0001010100000000E101C110E00000A00043F
:103AF000040404000E11101C10110E00011F101000
:103B0000101010000A040404040404001010101E15
:103B100011111E00001B1F1F0E0E0400040E1F04B7
:103B200004040400040404041F0E04000004061F1F
:103B30000604000000040C1F0C040000000E1F1FF0
:103B40001F0E0000000E11111F1F1F000E1111018A
:103B50001F1F1F0000110A040A11000020000000AE
:103B6000090909005F0000002057656C636F6D65EF
:103B700000000000204163636573732064656E6913
:103B80006564000020476F206261636B20285361E9
:103B9000766529002050617373776F7264000000AE
:103BA000204D617374657220636F646500000000CE
:103BB00020576F726B206D6F646500002053656342
:103BC0007572697479000000204D696E696D616CD1
:103BD0002064656C6179000020436F6566666963E7
:103BE00069656E7400000000204372697469636146
:103BF0006C206C6F77000000204D6F6465203100F1
:103C0000204D6F6465203200437269746963616C92
:103C1000206C6F770000000001030500436F6566AC
:103C200066696369656E7400010204080A00000099
:103C3000040608004D696E20776169742064656C24
:103C4000617900004D6F64652032207761732073C5
:103C50006574000057656C636F6D652064656C6109
:103C6000790000004D6F6465203120776173207307
:103C700065740000536574206C656E67746800009D
:103C80004E657720706173733A00000020526570B2
:103C900065617400776173206368616E67656400B5
:103CA000537563636573732E205061737300000056
:103CB000776173206E6F74206368616E676564005E
:103CC0004572726F722E205061737300204D6173C4
:103CD00074657220706173730000000000000000C2
:103CE000B1200008A1200008091E0008511D00088D
:103CF00000000000A91F0008911F000854727920DD
:103D0000746F207265736574000000004572726FF5
:043D1000720000003D
:103D14000105000002020202000000000102030487
:103D240005060000000000000000000004060A0070
:103D340000001E0000001E0000000003020100003D
:103D4400C43A0008D03A0008CC3A0008D43A000833
:103D540000000000291100080000000035060008DA
:103D640001000000950D00080000000000000C0890
:103D7400000002000A00000000000A08000002001F
:103D84000900000000000E08000002000B00000003
:04000005080036F9C0
:00000001FF
