:020000040800F2
:1000000000000220C9BA0008C5BA0008C3BA000837
:10001000C3BA0008C3BA0008C3BA00080000000051
:10002000000000000000000000000000C5BA000849
:10003000C5BA000800000000C5BA0008C1060008E3
:10004000C3BA0008C3BA0008C3BA0008C3BA00089C
:10005000C3BA0008C3BA0008F9100008C3BA000800
:10006000C3BA0008C3BA0008C3BA0008C3BA00087C
:10007000C3BA0008C3BA0008C3BA0008C3BA00086C
:10008000C3BA0008C3BA0008C3BA0008C3BA00085C
:10009000C3BA0008C3BA0008C3BA0008D51B0008D9
:1000A000C3BA0008C3BA0008C3BA0008C3BA00083C
:1000B000C3BA0008C3BA0008C3BA0008C3BA00082C
:1000C000C3BA0008C3BA0008C3BA0008C3BA00081C
:1000D000C3BA0008C3BA0008C3BA0008C3BA00080C
:1000E000711B0008C3BA0008C3BA0008C3BA0008ED
:1000F000C3BA0008C3BA0008C3BA0008C3BA0008EC
:10010000C3BA0008C3BA0008C3BA0008C3BA0008DB
:10011000C3BA0008C3BA0008C3BA000899070008A8
:10012000C3BA0008C3BA0008C3BA0008C3BA0008BB
:10013000C3BA0008C3BA0008C3BA0008C3BA0008AB
:10014000C3BA0008C3BA0008C3BA0008C3BA00089B
:10015000C3BA0008C3BA0008C3BA0008C3BA00088B
:10016000C3BA0008C3BA0008C3BA0008C3BA00087B
:10017000C3BA0008C3BA0008C3BA0008C3BA00086B
:10018000C3BA0008C3BA0008C3BA0008C3BA00085B
:10019000C3BA0008C3BA0008C3BA0008C3BA00084B
:1001A000C3BA0008C3BA0008C3BA000800B583B0D8
:1001B00002F03EFD294803F00BFC40F203600AF018
:1001C00076FF274B1D785B7845EA0325284600F02B
:1001D00065F9284600F0F1F8224C204601F090FB2A
:1001E00000F076FA62B600F013FF204600F008FE39
:1001F00000231A460121204600F031FDC821204687
:1002000000F0E2FD204600F065FE174B1E785B789B
:1002100046EA0326304600F041F9304600F0B9F8CE
:10022000124803F0D5FB02F00FF9114E304602F0F0
:1002300089F90DF10701304602F0C2F902F0FAF92E
:100240000DF10701304602F0BBF90A4A0A4920467F
:1002500001F0B4FB284600F09CF8FEE7B0BE0008B1
:1002600030C000083C0000202CC00008E4BE00089C
:1002700004000020F8BE000800BF000810B50446C6
:10028000017E224803F0BCFA617E214803F0B8FAEF
:10029000D4F81A101F4803F0B3FAD4F81E101E4801
:1002A00003F0AEFAD4F822101C4803F0A9FA94F82F
:1002B00026101B4803F0A4FA94F82710194803F0FD
:1002C0009FFA94F82810184803F09AFA94F8293005
:1002D0009BB1164803F07CFB94F829308BB114488D
:1002E00003F076FB94F83310124803F089FA94F87F
:1002F0003410114803F084FA10BD104803F068FB75
:10030000EAE70F4803F064FBECE700BF10BF00080A
:1003100028BF000840BF000854BF000868BF00089D
:1003200080BF00088CBF00089CBF0008B4BF000855
:10033000CCBF0008E4BF000800C00008C0BF000830
:10034000D8BF000800B5864600239C46184605E045
:100350000022104380B20CF1010C01330F2B0DDC95
:100360004EFA03F212F0010FF7D041FA0CF212F03C
:10037000010FEDD001229A4012B2EAE75DF804FBCA
:10038000012303FA00F0704700F5801080308002EE
:10039000704730B583B0ADF804009DF8045005F007
:1003A0000F00FFF7F1FF04462809FFF7E9FF81B2CC
:1003B00020460AF0C7FD03B030BD30B583B0ADF8BC
:1003C00004009DF8045005F00F00FFF7DDFF044620
:1003D0002809FFF7D5FF81B220460AF0B1FD03B02E
:1003E00030BD30B583B0ADF804009DF8045005F081
:1003F0000F00FFF7C9FF04462809FFF7C1FF81B2CC
:1004000020460AF0A2FD03B030BD30B583B0ADF890
:1004100004009DF8053003F001038B420FD09DF8D6
:10042000045005F00F00FFF7AFFF04462809FFF75F
:10043000A7FF81B220460AF083FD03B030BD9DF8CE
:10044000045005F00F00FFF79FFF04462809FFF74F
:1004500097FF81B220460AF075FDEEE700B583B044
:10046000ADF804009DF8040000F00F00FFF78CFFCA
:100470000AF074FD03B05DF804FB10B582B0ADF86E
:1004800004000C469DF8040000F00F00FFF77CFF0D
:1004900021460AF06CFD02B010BD0000F0B583B03B
:1004A000ADF804009DF804302C4A1278934229D00C
:1004B0002B4A1278934239D02A4A1278934238D084
:1004C000294A1278934237D0284A1278934236D07C
:1004D000274A1278934235D0264A1278934234D074
:1004E000254A1278934233D0244A1278934232D06C
:1004F000234A1278934202D00026012704E0002606
:10050000374601E0002601279DF8045005F00F0052
:10051000FFF73AFF04462809FFF732FF83B232465D
:10052000394620460AF02DFD03B0F0BD0026012714
:10053000EAE700260127E7E700260127E4E701268E
:100540000027E1E701260027DEE701260027DBE799
:1005500001260027D8E701260027D5E730C000088C
:100560002CC0000834C0000828C0000810C00008D3
:1005700014C0000818C000081CC0000820C00008F3
:1005800024C00008F0B583B0ADF80400032908D8F2
:100590000C461546022A08D90198FFF77FFF03B0E1
:1005A000F0BD0198FFF77AFFF9E79DF8047007F0B6
:1005B0000F00FFF7E9FE06463809FFF7E1FE83B2B8
:1005C0002A46214630460AF0DCFCE8E7F0B583B065
:1005D000ADF804009DF8044004F00F00FFF7D4FECE
:1005E00005462009FFF7CCFE06460024274601E019
:1005F00001370134092C14DC28460AF0AFFC3042E4
:1006000004D19DF8053013F0010FF1D128460AF00E
:10061000A5FC3042EDD09DF8053013F0010FE8D174
:10062000E6E7042F0CDC002003B0F0BD28460AF0FA
:1006300095FC304211D09DF8053013F0010F0AD11E
:1006400028460AF08BFC3042F0D19DF8053013F0BB
:10065000010FF5D1EAE70120E6E70120E4E730B534
:1006600083B002AB03E90300BDF8025011462846EF
:10067000FFF768FEBDF804404440A4B29DF80000B6
:1006800000F00F00FFF780FE436923EA05031C43D7
:10069000446103B030BD000010B50146074C204650
:1006A0000AF04BFE012120460BF035F90BF057FB09
:1006B00020460AF0F7FD30BF10BD00BF0014004017
:1006C000024A136801331360704700BF480A0020D4
:1006D00008B50BF092FA04200BF054FA0BF078FAFC
:1006E0004FF47A500BF03CFA4FF0E0234FF47A527B
:1006F0009A610221FF200BF007FBFF200BF0AFFAFD
:10070000024B00221A600BF071FA08BD480A002063
:10071000044B1B68184400E030BF024B1B68834247
:10072000FAD97047480A002010B540F605000AF0D3
:10073000BEFC0F4C0F2120460AF0FBFD20460AF0BC
:100740007AFD20460AF090FD20460AF09CFD01212A
:1007500020460AF035FD012120460AF04EFD022117
:1007600037200BF0D1FA37200BF079FA10BD00BF1B
:100770000014004010B5044605E04FF47A70FFF70E
:100780008BFFA4F57A74B4F57A7FF6D204B910BD64
:10079000A0B2FFF781FFFAE708B5012101480AF08E
:1007A0002CFD08BD00140040002834D038B50C469C
:1007B000C3698569A3B1B3B1C5B1B4F57A7F04D378
:1007C0001548A0FB0420800998471348A0FB04307B
:1007D00080094FF47A7303FB104000B1A84738BD7D
:1007E000002DE8D1FBE72046A847F8E70A4AA2FB1C
:1007F000041292094FF47A7101FB124232B1064899
:10080000A0FB0420800901309847E8E70248A0FBDC
:1008100004208009F8E77047D34D621010F0800F74
:1008200000F0168193386C2800F20F81DFE810F099
:10083000FF0001010D010D010D010D010D010D0163
:100840000D010D010D010D010D010D010D010D0138
:100850000D010D0173000D010D0179000D01AF00B7
:1008600003010D010D010D01830009010D0181003E
:10087000CD00BD000D010D010B01C5000701C30036
:1008800005010D010D010D01CF006D000F016F007D
:100890007100750077007B007D007F008500870078
:1008A00089008B008D008F009100930095009700C8
:1008B00099009B009D009F00A100A300A500A70038
:1008C000A900AB00AD00B100B300B500B700B9009E
:1008D000BB00BF00C100C700C900CB00D100D300DE
:1008E000D500D700D900DB00DD00DF00E100E30028
:1008F000E500E700E900EB00ED00EF00F100F30098
:10090000F500F700F900FB00FD0041207047422090
:100910007047A120704704207047E02070474520B1
:100920007047A2207047A3207047A4207047A520DD
:1009300070474920704705207047A62070474B201C
:100940007047A72070474D207047482070474F20C0
:100950007047A820704750207047432070475420AC
:100960007047A9207047AA20704758207047E1209F
:100970007047AB207047AC207047E2207047AD2035
:100980007047AE20704706207047AF2070470320A5
:100990007047B0207047B120704761207047B22087
:1009A0007047B3207047B420704700207047E320A1
:1009B00070476520704701207047B5207047B6200A
:1009C0007047B7207047B8207047692070470220F1
:1009D0007047B9207047BA207047BB207047BC20D1
:1009E0007047BD2070476F207047BE207047702051
:1009F000704763207047BF20704779207047E4201C
:100A0000704778207047E5207047C0207047C120AC
:100A10007047E6207047C2207047C3207047C4204B
:100A20007047C5207047C6207047C7207047CA204E
:100A30007047CB207047C8207047C9207047CC2032
:100A40007047EF207047DF207047FF207047A020DD
:100A50007047000038B5264B1D7805F00F00FFF7F2
:100A600093FC04462809FFF78BFC83B20022012186
:100A700020460AF086FA1F4B1D7805F00F00FFF79D
:100A800083FC04462809FFF77BFC83B20022012186
:100A900020460AF076FA184B1D7805F00F00FFF794
:100AA00073FC04462809FFF76BFC83B20022012186
:100AB00020460AF066FA114B1D7805F00F00FFF78B
:100AC00063FC04462809FFF75BFC83B20022012186
:100AD00020460AF056FA0A4C207800F00F00FFF783
:100AE00053FC6388002201210AF04BFA38BD00BF95
:100AF00038C0000848C000084CC0000844C00008C6
:100B00003CC0000838B504460D4683681A7858780A
:100B1000012142EA0020FFF778FC2368197993F855
:100B200005C005F00F02186841EA0C21FFF797FD98
:100B300001212046FFF738FEA3681A785878002173
:100B400042EA0020FFF761FC01212046FFF72CFE5E
:100B500038BD38B590F8203013F0010F00D138BD02
:100B600004460D460909FFF7CDFF05F00F012046A9
:100B7000FFF7C8FFF3E720B370B515461E460446DD
:100B800090F8283013F0010F1ED0C368A3B162683B
:100B90001378507843EA0020FFF737FCE2681378B7
:100BA0005078294643EA0020FFF72FFC3178204691
:100BB000FFF7CFFF002070BD002AE8D06FF00200E1
:100BC000F9E74FF0FF3070474FF0FF30F3E730B5F3
:100BD00083B0044601238DF807300DF1070300228E
:100BE0001146FFF7C8FF054610B1284603B030BDD7
:100BF00040F2FA512046FFF7D7FDF6E730B583B053
:100C0000044602238DF807300DF107030022114638
:100C1000FFF7B1FF054610B1284603B030BD40F2E2
:100C2000FA512046FFF7C0FDF6E730B583B0044621
:100C3000490041F0040149B211438DF807100DF14C
:100C4000070300221146FFF796FF054610B128461C
:100C500003B030BD27212046FFF7A6FDF7E730B5EA
:100C600083B00446890041F0080149B241EA4201DB
:100C700049B219438DF807100DF107030022114600
:100C8000FFF779FF054610B1284603B030BD272194
:100C90002046FFF789FDF7E730B583B00446C90069
:100CA00041F0100149B241EA82018DF807100DF1BF
:100CB000070300221146FFF75EFF054610B12846E4
:100CC00003B030BD27212046FFF76EFDF7E730B5B2
:100CD00083B011F0800F1CD1044612B111F0C00F87
:100CE0001AD17AB1402319438DF807100DF107038B
:100CF000002211462046FFF73EFF054620B1284658
:100D000003B030BD8023EEE727212046FFF74CFDDE
:100D1000F5E76FF00305F2E76FF00305EFE710B5B5
:100D200082B004468DF807100DF10703002201215F
:100D3000FFF721FF2B212046FFF736FD02B010BD43
:100D400010B50446436A0846984701462046FFF717
:100D5000E6FF10BD10B5044643681A7858780021A4
:100D600042EA0020FFF751FBE3681A785878002127
:100D700042EA0020FFF749FB03212046FFF7C2FEAD
:100D800041F204012046FFF70FFD02212046FFF744
:100D9000B9FE64212046FFF707FD02212046FFF738
:100DA000B1FE27212046FFF7FFFC00231A46012150
:100DB0002046FFF754FF2046FFF709FF00220121DC
:100DC0002046FFF732FF10BD98B108B543691BB14B
:100DD00008469847002008BD03696BB11A78587817
:100DE000003918BF012142EA0020FFF70EFB002066
:100DF000F1E76FF0030070476FF00300EBE70000CE
:100E000020B308B5034602681AB3426822B3826869
:100E10002AB382698AB193F8202012F0010F21D001
:100E20005A6A82B193F8282042F0010283F8282000
:100E30001846FFF78FFF002008BDC269002AEAD1DB
:100E40006FF00400F8E7094A5A62EBE76FF003001D
:100E500070476FF00400EFE76FF00400ECE76FF00D
:100E60000400E9E76FF00100E6E700BF1D08000895
:100E70007047000070B590B006466C46144D0FCD1B
:100E80000FC40FCD0FC40FCD0FC495E80F0084E839
:100E90000F00012200213046FFF719FF00250CE06A
:100EA00010AB03EBC503234413F8401C3046FFF797
:100EB00036FF0134072CF3DD0135072D01DC00245A
:100EC000F8E7002211463046FFF701FF10B070BD71
:100ED00054C0000870B590B006466C46144D0FCD56
:100EE0000FC40FCD0FC40FCD0FC495E80F0084E8D9
:100EF0000F00012200213046FFF7E9FE00250CE03B
:100F000010AB03EBC503234413F8401C3046FFF736
:100F100006FF0134072CF3DD0135072D01DC002429
:100F2000F8E7002211463046FFF7D1FE10B070BD41
:100F300094C0000830B108B50021007A09F078FFAC
:100F4000002008BD6FF00300704770B170B50D460A
:100F50001446064609F084FE2A463146204609F02A
:100F600059FF09F08BFE002070BD6FF00300704741
:100F7000844648B1002303E0985C0CF80300013379
:100F80008B42F9D3002070476FF0030070470023B5
:100F900000E001338B4204D2C25CFF2AF9D000206A
:100FA00070470120704778B330B5154686464468CF
:100FB0008C422BD34FF0000C0CE001338B4207D254
:100FC000DEF800006044C05CFF28F6D00022F4E7A1
:100FD0002AB98C44644515D300230122EEE71DB1E4
:100FE0000CEB01039C4209D2002DF2D18C45F0D3C9
:100FF000DEF800008444ACEB010004E0DEF8000001
:10100000604400E0002030BD002070470020FAE777
:1010100010B50B2106200AF077FE4FF4C0600AF0ED
:1010200046F82F4C012300221146204609F0A9FF63
:1010300040F68E000AF03BF82146012009F09AFDA7
:101040000021012009F03CFD012009F067FD01208D
:1010500009F082FD06200AF002FE04F580544FF4E8
:10106000007302220021204609F0B1FF4FF4007204
:101070000121204609F0D1FF4FF400730022022124
:10108000204609F07EFF4FF408600AF010F8A4F53E
:10109000883400231A46194620460AF0B1F83E214A
:1010A00020460AF046F920460AF0C0F8FF21204603
:1010B0000AF043F90622002120460AF0B0F9002187
:1010C00020460AF028FB20460AF0E1FB00221146E8
:1010D00020460AF0CCFB20460AF0E4F810BD00BF21
:1010E0000000024008B50246002102480AF0BFFB9A
:1010F00008BD00BF0000014010B5074C2178013940
:10110000C9B20648FFF760FE237810332370012030
:1011100009F022FD10BD00BF4C0A00203C00002059
:10112000682A3AD070B584B006460D46622A32D09D
:1011300019B1002905DB00241AE03021FFF700FE79
:1011400029E02D21FFF7FCFD6D42F4E7134A82FBF5
:101150000532EB17C3EBA2031A4603EB8303A5EB9F
:101160004303303304A9214401F8103C15460134EF
:10117000002DEBDC04AB2344002203F8102C013CCF
:1011800007E004AB234413F8101C3046FFF7D8FDEA
:10119000013C002CF5DA04B070BD704767666666E6
:1011A00000B583B001900C4B1B7863B9002240213D
:1011B00001A8FFF78CFD084A1378C3F101031370EF
:1011C00003B05DF804FB4FF47A70FFF7A1FA01A8B1
:1011D000FFF7FDFCEFE700BF4D0A00200EB478B525
:1011E0000646059D002413E03046FFF7D9FF0BE0CB
:1011F00020213046FFF7A4FD20213046FFF7A0FD57
:1012000002E03046FFF7FAFC013501340F2C0BDC0D
:10121000297871B10A29E7D00929E9D00D29F0D040
:101220003046FFF78DFDEFE73046FFF7B9FF0024AA
:10123000EEE7BDE8784003B0704708B54B1E062BBB
:1012400005D8DFE803F005050505050505000021C3
:10125000FFF765FD08BD000070B506460D463B2949
:1012600026D9B1F5167F2BD23021FFF769FD204931
:10127000A1FB0531002249093046FFF751FF3A2111
:101280003046FFF75DFD1A4CA4FB05346409C4EB3E
:101290000414B5EB84041BD0092C22D8302130462D
:1012A000FFF74EFD002221463046FFF739FF70BDA3
:1012B0003021FFF745FD30213046FFF741FDDEE7E5
:1012C0000B49A1FB053100224909FFF729FFD6E7A9
:1012D00030213046FFF734FD30213046FFF730FD36
:1012E000E5E7002221463046FFF71AFFDFE700BF9F
:1012F0008988888838B5044621B1012905D002299A
:1013000016D038BDFFF763FCFBE700221146FFF75C
:10131000DEFC002504E020212046FFF711FD013509
:101320000F2DF8DD002211462046FFF7D0FCE8E73C
:1013300000224021FFF7CBFC00250F2D05DC2021EA
:101340002046FFF7FDFC0135F7E70022402120464B
:10135000FFF7BDFCD5E770B504460E461546FFF70E
:1013600036FC002211462046FFF7B1FC1EB1314683
:101370002046FFF733FF002240212046FFF7A7FC5D
:101380001DB129462046FFF729FF70BD70B5044600
:101390000E46154600221146FFF799FC76B104214E
:1013A0002046FFF74AFF002240212046FFF78FFC2E
:1013B0004DB104212046FFF740FF70BD044920468F
:1013C000FFF70CFFEFE702492046FFF707FFF4E7BE
:1013D000D4C000082DE9F041074688461646D2F8E9
:1013E00001305A681968FFF7B6FF0022012138461C
:1013F000FFF7CCFF00252C4632E03C4B00221A7050
:10140000002C70D0D6F8053053F8243013B1414683
:1014100038469847D6F801306A1C53F8222053F812
:1014200025103846FFF797FFAC4205D00122002176
:101430003846FFF7ABFF13E0002201213846FFF7E3
:10144000A5FF0DE0013CE4B215E00134E4B212E086
:10145000002201213846FFF799FF244B00221A7021
:1014600030BF224B1B78002BFAD0052BC5D0012BA7
:10147000E8D0022BE9D03378A34201D8013BDCB29B
:10148000AC42E5D0621B012A16D0022A19D02B1BD0
:10149000012BE2D1013DEDB2D6F801306A1C53F8C0
:1014A000222053F825103846FFF755FF002201216E
:1014B0003846FFF76BFFD0E700213846FFF766FF9D
:1014C000CBE70135EDB2D6F801306A1C53F8222083
:1014D00053F825103846FFF73EFF01220021384619
:1014E000FFF754FFB9E7BDE8F08100BF440A0020D0
:1014F00070B582B005460E460B783C2B20D93C23B4
:101500000B703178514BA3FB01235B09642202FB72
:101510001313DBB24E4AA2FB0303DB088DF8043041
:10152000A2FB0123DB0803EB8303A1EB43038DF84C
:101530000530002246212846FFF7C9FB00240DE0B4
:10154000002BDED101230B70DBE702AB234400222A
:1015500013F8041C2846FFF7E3FD0134012CF4DDE9
:10156000002443E0002333700AE0327802A91944D2
:1015700011F8041C02EB820201EB420232700133CB
:10158000012BF2DD334B00221A7002B070BD02ABAA
:10159000181910F8043C01332F4A82FB031202F0A1
:1015A000FC0101EBA202A3EB420300F8043C9DF80E
:1015B000043003EB83039DF8052002EB43033C2B2F
:1015C0003EDD00238DF8043004F146010022C9B24B
:1015D0002846FFF77CFB002202AB234413F8041CCF
:1015E0002846FFF79DFD1B4B00221A7030BF194B98
:1015F0001B78002BFAD0052BB4D0012BC7D0022BBF
:1016000008D0042B17D0032BD1D1002CCFD101341B
:10161000E4B2CCE702AB181910F8043C09330E4AC7
:1016200082FB031202F0FC0101EBA202A3EB4203D6
:1016300000F8043CBBE7002CE5D0013CE4B2B6E77F
:10164000002BC1D101238DF80530BDE71F85EB517B
:10165000CDCCCCCC440A0020676666662DE9F0410B
:101660000546884616461F4613780B700221FFF781
:1016700041FE1E492846FFF7B1FD00223178284679
:10168000FFF74EFD00241DE0335D88F80030184B55
:1016900000221A70BDE8F081013494FBF7F307FBD8
:1016A0001344E4B202212846FFF724FE0F492846DE
:1016B000FFF794FD0022315D2846FFF731FD0C480D
:1016C0000023037030BF0A4800780028FAD00528AC
:1016D000DAD00128E0D00228E4D1013C3C4494FB5C
:1016E000F7F307FB1344E4B2DCE700BFD8C00008FF
:1016F000440A002030BF044B1B78052BFAD1024B63
:1017000000221A70704700BF440A00200023934251
:101710000FD200B510F803E011F803C0E64506D17A
:101720000133DBB29342F5D301205DF804FB0020C6
:10173000FBE70120704700002DE9F04106460D4609
:1017400017461A469DF81880002402E0002129550A
:101750000134A742FADC3946304600F04BF9002448
:101760001FE02D4B00221A70BDE8F0812B5D013384
:101770002A4A82FB031202F0FC0101EBA202A3EB56
:1017800042032B5504F142010022C9B23046FFF753
:101790009EFA0022295D3046FFF7C2FC1E4B002254
:1017A0001A701D4B1B78002BFBD0052BD9D0012BB9
:1017B000DCD0022B0FD0B8F1000F19D1164B1B78DB
:1017C000032B21D0042B22D0002C23DBA742D9DC11
:1017D0007C1E64B2D6E72B5D0933104A82FB0312EC
:1017E00002F0FC0101EBA202A3EB42032B55C9E777
:1017F00004F142010022C9B23046FFF768FA042121
:101800003046FFF71AFDD9E7013464B2DCE7013C4A
:1018100064B2D9E70024B5E7440A0020676666662B
:1018200008B5082128200AF06FFA14494FF4004047
:1018300009F0A0F901214FF4004009F041F94FF4FB
:10184000004009F06BF94FF4004009F085F90C49AC
:101850004FF4006009F08EF901214FF4006009F0A7
:101860002FF94FF4006009F059F94FF4006009F0C6
:1018700073F928200AF0F3F908BD00BF0000024008
:101880000008024010B5082117200AF03DFA1B4C51
:101890002146402009F06EF90121402009F010F99D
:1018A000402009F03BF9402009F056F921464FF459
:1018B000807009F05FF901214FF4807009F000F9A0
:1018C0004FF4807009F02AF94FF4807009F044F960
:1018D00021464FF4007009F04DF901214FF40070DA
:1018E00009F0EEF84FF4007009F018F94FF40070A9
:1018F00009F032F917200AF0B2F910BD00080240D1
:1019000008B540F2046009F0D2FBFFF7A3F8054BDD
:10191000197993F805C00022186841EA0C21FEF7F6
:101920009EFE08BD3CC0000808B54FF4C06009F039
:10193000BEFB40F2026009F0BAFB124B1A785878ED
:1019400042EA0020FEF7AAFD0F4B1A78587842EAC7
:101950000020FEF7A3FD0D4B1A78587842EA0020CC
:10196000FEF79CFD0A4B1A78587842EA0020FEF7F1
:1019700095FD084B1A78587842EA0020FEF78EFD54
:1019800008BD00BF10C0000814C0000818C000083F
:101990001CC0000820C0000808B54FF4A0600AF081
:1019A00055F940F68E0009F082FBFFF739FFFFF78B
:1019B00069FF08BD08B5FFF70AF908BD70B5044610
:1019C0000E461546FFF703F9002211462046FFF7A1
:1019D0007EF91EB131462046FFF700FC002240216F
:1019E0002046FFF774F91DB129462046FFF7F6FBA4
:1019F00070BD000070B505460E461446FFF7E7F8C7
:101A0000002211462846FFF762F90C4B1978284648
:101A1000FFF713FC21462846FFF7E0FB0022422196
:101A20002846FFF754F9002405E005492846FFF74A
:101A3000D5FB0134E4B2B442F7D370BD01000020FD
:101A4000DCC0000870B505460C4616469AB1402623
:101A500011E0002231462846FFF739F907492846A8
:101A6000FFF7BCFB21462846FFF7F6FB4FF47A70E0
:101A7000FEF74EFE013C002CEBDA70BDD8C000082A
:101A800010B50446FFF7A3F8002211462046FFF7E1
:101A90001EF906212046FFF7D0FB02492046FFF73A
:101AA0009DFB10BDE0C0000810B50446FFF78FF89D
:101AB000002211462046FFF70AF9054B1978204607
:101AC000FFF7BBFB03492046FFF788FB10BD00BFB3
:101AD00001000020ECC00008F0B583B0ADF80400B0
:101AE0009DF8040000F00F00FEF74EFC05469DF83F
:101AF00004000009FEF744FC06460024274601E0E6
:101B000001370134092C14DC284609F027FA304249
:101B100004D19DF8053013F0010FF1D1284609F0EA
:101B20001DFA3042EDD09DF8053013F0010FE8D1D9
:101B3000E6E7042F0CDC002003B0F0BD284609F0D6
:101B40000DFA304211D09DF8053013F0010F0AD183
:101B5000284609F003FA3042F0D19DF8053013F021
:101B6000010FF5D1EAE70120E6E70120E4E70000F4
:101B700008B54FF4006008F0F5FF78B1124B1A7801
:101B8000587842EA0020FFF7A7FF10B10F4B03225D
:101B90001A704FF4006008F0DFFF08BD4FF40040FA
:101BA00008F0E0FF0028F8D0094B1A78587842EA8C
:101BB0000020FFF791FF10B1044B05221A704FF47B
:101BC000004008F0C9FFE8E710C00008440A002000
:101BD00014C0000808B5402008F0C4FF70B11D4BC8
:101BE0001A78587842EA0020FFF776FF10B11A4BB6
:101BF00001221A70402008F0AFFF08BD4FF480703A
:101C000008F0B0FF78B1154B1A78587842EA0020F6
:101C1000FFF762FF10B1104B02221A704FF4807070
:101C200008F09AFFE9E74FF4007008F09BFF0028E6
:101C3000E3D00B4B1A78587842EA0020FFF74CFFAC
:101C400010B1054B04221A704FF4007008F084FFA5
:101C5000D3E700BF1CC00008440A002020C00008D1
:101C600018C0000870B59EB086460E461F4B1AADD0
:101C70000FCB85E80F001E4A17AB07CA03C31A80B3
:101C80001C4B13AC0FCB07C423701B4A10AB07CA05
:101C900003C323F8022B120C1A70184B93E80300AD
:101CA0000E90ADF83C10099517AB0A9313AB0B934C
:101CB00010AB0C930EAB0D930DF1100C104C0FCC20
:101CC000ACE80F002368CCF8003005238DF8043011
:101CD00009ABCDF8053004ABCDF8093001AA314687
:101CE0007046FFF777FB1EB070BD00BFFCC0000858
:101CF0000CC1000818C1000828C1000834C1000840
:101D000080C2000870B5A2B005460E46284B1EAC36
:101D10000FCB84E80F00274B0DF1680C0FCBACE81C
:101D200007002CF8023B1B0C8CF80030224B0DF105
:101D3000580C0FCBACE807008CF800301F4B0DF1AE
:101D4000480C0FCBACE80700ACF800300DF1340EB6
:101D500000230D930E930F93109311930D941AAAD1
:101D60000E9216AA0F9212AA10920DF1200C08934F
:101D700009930A930B930C93114B0993114B0A93FC
:101D8000114B0B93114B04AC0FCB84E80F00119453
:101D90000F4B0C9305238DF80430CDF805E0CDF8FA
:101DA00009C001AA31462846FFF714FB22B070BDD6
:101DB000FCC000083CC100084CC100085CC1000820
:101DC000751F0008F11E0008A11E00086CC1000864
:101DD000511E000830B593B084460C46174B0EAD2B
:101DE0000FCB85E80F00164B0CAA93E8030082E89E
:101DF000030014490AAB03C983E80300079508925E
:101E0000099304AB104A07CA83E8070003228DF840
:101E1000042007AACDF80520CDF8093094F8295000
:101E200001AA21466046FFF7D5FA94F82930AB4263
:101E300002D0064B01221A7013B030BDFCC000085E
:101E40007CC1000884C1000894C200084E0A00202A
:101E5000F0B583B005460C460E4616F8347F0D4BA0
:101E60001B68ADF804301B0C8DF8063000220A49BF
:101E7000FFF7A4FD032301AA31462846FFF7EEFB36
:101E800094F83430BB4202D0044B01221A7003B0E4
:101E9000F0BD00BF9CC100088CC100084E0A0020A4
:101EA000F0B583B005460C460E4616F8277F0D4B5D
:101EB0001B68ADF804301B0C8DF8063000220A496F
:101EC000FFF77CFD032301AA31462846FFF7C6FB36
:101ED00094F82730BB4202D0044B01221A7003B0A1
:101EE000F0BD00BFB0C10008A0C100084E0A00202C
:101EF000F0B583B005460C460E4616F8287F0D4B0C
:101F000093E8030000908DF8041000220A49284647
:101F1000FFF754FD05236A4631462846FFF79EFB2E
:101F200094F82830BB4202D0044B01221A7003B04F
:101F3000F0BD00BFC0C10008B4C100084E0A0020B7
:101F400030B583B004460D461146094B1B68ADF809
:101F500004301B0C8DF806300022FFF72FFD032301
:101F600001AA29462046FFF779FB03B030BD00BF28
:101F7000C8C10008F8B505460C460E4656F81E7F47
:101F800000220849FFF71AFD31462846FFF7B0FA4C
:101F9000D4F81E30C4F82230BB4202D0024B0122DA
:101FA0001A70F8BDCCC100084E0A002008B5002206
:101FB00081F829200249FFF701FDFFF79BFB08BDCF
:101FC000DCC10008F8B505460C460E4656F81A7FE7
:101FD00000220C49FFF7F2FC31462846FFF788FA49
:101FE000012384F82930D4F81A30BB4202D0064BC2
:101FF00001221A70002205492846FFF7DFFCFFF78F
:1020000079FBF8BDECC100084E0A0020FCC10008B5
:10201000F0B589B005460C4616461F4600228DF8DD
:102020001F20012200922D4B0A7E05A9FFF784FB99
:10203000227E214605A8FFF769FB08B909B0F0BD6B
:1020400001230093264B627E05A92846FFF774FB07
:10205000627E04F1080105A8FFF758FB0028EDD0C7
:10206000204A0DF11F012846FFF76AFF0024009463
:102070001D4B9DF81F2005A92846FFF75DFB009426
:102080001A4B9DF81F2003A92846FFF755FB9DF822
:102090001F2003A905A8FFF739FBC8B19DF81F3021
:1020A0003B70234605E008AA1A4412F80C2CF2549F
:1020B00001339DF81F209A42F5DC0D4A0D49284650
:1020C000FFF77CFC0C4B01221A70FFF713FBB5E7FE
:1020D0000A4A0B492846FFF771FCF6E70CC20008D4
:1020E00018C2000828C2000834C2000840C2000814
:1020F00048C2000854C200084E0A002064C200080A
:1021000074C2000808B50A4601F119030832FFF746
:102110007FFF08BD08B50A4601F11803FFF778FFF5
:1021200008BD000030B585B005460C46012300937C
:10213000124B4A7E02A9FFF7FFFA627E04F1080102
:1021400002A8FFF7E3FA08B905B030BD21462846DA
:10215000FFF788FD0A4B1B7843B994F8273084F8C1
:102160002630D4F81E30C4F82230EDE700F012F823
:10217000204600F077F900F005F8EEE718C20008F5
:102180004E0A002008B5282009F069FD172009F043
:1021900066FD08BD08B5282009F06EFD172009F07E
:1021A0006BFD08BD70B505460C461646FFF7F2FFFD
:1021B0002846FEF70CFD2846FFF776FC26B194F87A
:1021C0002630013384F8263094F8262094F82730FE
:1021D0009A4202D2FFF7D6FF70BD0122D4F8221036
:1021E0002846FFF72FFC002EF4D094F82820D4F8CE
:1021F000223002FB03F3C4F82230EBE710B50446AB
:10220000054B1A78587842EA0020FEF7C2F80023FE
:1022100084F82A3010BD00BF2CC0000810B5044659
:10222000054B1A78587842EA0020FEF7C6F80123D9
:1022300084F82A3010BD00BF2CC0000838B5054610
:102240000C46FFF7A7FF2046FFF7E8FF2846FFF7F9
:1022500017FC0122D4F81A102846FFF7F3FB20469A
:10226000FFF7CCFFFFF78EFF38BD000008B590F8F0
:102270002A302BB1FFF7C2FF044B05221A7008BDAC
:10228000FFF7CCFF014B06221A70F8E7010000208F
:1022900008B5002381F82630D1F81E30C1F822306D
:1022A00091F8293013B1FFF7C9FF08BD0846FFF7C1
:1022B000DDFFFAE791F826300370D1F82230C0F83C
:1022C00001307047037881F82630D0F80130C1F82A
:1022D00022307047002302E0CA5CC2540133072B4E
:1022E000FADD002308E003F1080201EB030C9CF87F
:1022F00008C000F802C00133072BF4DD002308E01A
:1023000003F1100201EB030C9CF810C000F802C0AE
:102310000133072BF4DD0B7E03764B7E4376D1F839
:102320001A30C0F81A30D1F81E30C0F81E30D1F87B
:102330002230C0F8223091F8263080F8263091F80B
:10234000273080F8273091F8283080F8283091F82D
:10235000293033B1012380F82930002380F82A3056
:102360000CE0002380F82930F7E703F12B0201EBA2
:10237000030C9CF82BC000F802C00133072BF4DDDE
:102380004B7E80F8333091F8343080F83430704729
:10239000002302E0C25CCA540133072BFADD00239C
:1023A00007E003F1080210F802C0CA1882F808C05A
:1023B0000133072BF5DD002307E003F1100210F8CD
:1023C00002C0CA1882F810C00133072BF5DD037E66
:1023D0000B76437E4B76D0F81A30C1F81A30D0F81D
:1023E0001E30C1F81E30D0F82230C1F8223090F8EB
:1023F000263081F8263090F8273081F8273090F881
:10240000283081F8283090F8293033B1012381F841
:102410002930002381F82A300BE0002381F829308D
:10242000F7E703F12B0210F802C0CA1882F82BC09C
:102430000133072BF5DD90F833304B7690F83430CC
:1024400081F834307047000008B508F009FC00211D
:10245000034B187A08F0ECFC08F010FC002008BDD3
:102460006800002030B58FB00446FFF793FE214688
:102470006846FFF72FFF012235211248FEF793FD32
:102480000546BFF35F8F024635216846FEF75DFDC6
:102490000D4801F09DFA002407E00EAB234413F829
:1024A000381C0A4801F0ACF90134342CF5D90A2063
:1024B00001F0BEF92946064801F0A2F9FFF762FED5
:1024C0000FB030BD80000020A0C20008ACC20008E0
:1024D000B0C2000830B58FB00446FFF75BFE0022A3
:1024E00035211448FEF75FFD054602463521684652
:1024F000FEF73EFDBFF35F8F21466846FFF748FFBA
:102500000D4801F065FA002407E00EAB234413F8F0
:10251000381C0A4801F074F90134342CF5D90A202A
:1025200001F086F92946064801F06AF9FFF72AFE0C
:102530000FB030BD80000020C8C20008ACC2000847
:10254000D4C2000830B583B00446FFF723FE21460D
:102550006846FFF7AFFEFF238DF8053000248DF8A5
:102560000640012207211248FEF71DFD0546BFF374
:102570005F8F024607216846FEF7E7FC0D4801F031
:1025800027FA07E002AB234413F8081C0A4801F0BD
:1025900037F90134062CF5D90A2001F049F929460A
:1025A000064801F02DF9FFF7EDFD03B030BD00BF87
:1025B00068000020ECC20008ACC20008FCC20008A1
:1025C00030B583B00446FFF7E5FD0022072115482A
:1025D000FEF7E9FC0546024607216846FEF7C8FCFF
:1025E000BFF35F8F21466846FFF76CFE9DF805300C
:1025F0000D4801F0EDF9002407E002AB234413F885
:10260000081C0A4801F0FCF80134062CF5D90A2010
:1026100001F00EF92946064801F0F2F8FFF7B2FD85
:1026200003B030BD6800002008C30008ACC2000839
:10263000FCC2000830B583B0FFF7ACFD00220721D3
:102640001148FEF7B0FC054600248DF80740421DF6
:1026500001210DF10700FEF778FC0C4801F0B8F9F4
:1026600004E0615D0A4801F0CBF80134062CF8D98A
:102670000A2001F0DDF82946064801F0C1F8FFF70D
:1026800081FD03B030BD00BF6800002018C3000802
:10269000ACC20008FCC200080B4B1B6810B5044616
:1026A0000BB19A6B4AB1132C0CD8084850F834304F
:1026B000013307D000EBC40010BD184600F068FCE1
:1026C000132CF2D9002010BD98000020600A0020D1
:1026D00070B500F0EBFB1325044600262846314672
:1026E000ABBE05464FF0FF30256070BD30B585B0FC
:1026F000CDE901010392062401AD20462946ABBE77
:102700000446631C18BF204601D005B030BDFFF75A
:10271000DFFFFAE7F0B585B00C461646FFF7BCFFC1
:10272000C8B103680396CDE901340546062401AF1C
:1027300020463946ABBE0446621C204606D06B6874
:10274000321A13446B60104605B0F0BDFFF7C0FFAE
:10275000431CF9D0F3E700F0A9FB092303604FF015
:10276000FF30F1E7F0B583B00D461446FFF794FF54
:1027700000283ED0022C31D8012C064620D0022C55
:10278000036810D06F46CDE900350A24204639464B
:10279000ABBE0446621C234627D0002B1BDB7560B2
:1027A000284603B0F0BD00930C246F4620463946FE
:1027B000ABBE044621464C1C08D033680D44E2E70A
:1027C00041686D180AD403686F46DCE7FFF780FFA5
:1027D0000146481CF1D14FF0FF35E1E700F066FB00
:1027E000162303604FF0FF35DAE7FFF771FF03466A
:1027F000D3E700F05BFB092303604FF0FF35CFE721
:10280000FFF7B0BF30B585B0CDE9010103920524D3
:1028100001AD20462946ABBE0446631C18BF2046C6
:1028200001D005B030BDFFF753FFFAE7F0B585B032
:102830000C461646FFF730FF58B303680396CDE900
:1028400001340546052401AF20463946ABBE044697
:10285000621C234619D0002B14DB6A68F01A02446C
:10286000B3426A6001D005B0F0BD00F01FFB132633
:102870000546002430462146ABBE064620462E6063
:1028800005B0F0BD4FF0FF30EDE7FFF721FF034645
:10289000E1E700F00BFB092303604FF0FF30E2E7B4
:1028A00030B583B00224019001AD20462946ABBE6D
:1028B0000446631C18BF204601D003B030BDFFF7AB
:1028C00007FFFAE770B582B00446FFF7E5FE18B3DC
:1028D000013C012C054610D92B680193022401AE5E
:1028E00020463146ABBE0446631C20460FD010B9CB
:1028F0004FF0FF332B6002B070BD0B4B9A681B6921
:102900009A42E9D14FF0FF3303600020F3E7FFF76D
:10291000DFFE0028EFD1EBE700F0C8FA09230360DF
:102920004FF0FF30E7E700BF600A0020012070474A
:102930000E4A136810B5ABB118446946884209D8ED
:102940000B490C4C0968A14201D0884202D81060A2
:10295000184610BD00F0AAFA0C2303604FF0FF33B5
:10296000184610BD044B1360E6E700BF500A002074
:102970008C000020ADDEFECA0000001070B50E46CF
:10298000FFF78AFEB8B173684FF4806243F40053D6
:1029900004467360B2640C2528462146ABBE04464B
:1029A000621C204602D03061002070BDFFF790FE0F
:1029B000431CF8D170BD00F079FA092303604FF091
:1029C000FF3070BD10B5582204460846002100F0C3
:1029D000ABFE01462046BDE81040FFF7CFBF00BF69
:1029E00038B5582205460C460846002100F09CFEEA
:1029F0002846002100F012F8431C05460BD06368FE
:102A000043F4014363602146FFF7B8FF03462846BD
:102A10001D46FFF757FF284638BD00BF2DE9F0419E
:102A20000346304E98B00F46002402E00134142CC7
:102A300051D056F83450681CF8D107F42062B2F532
:102A4000206F0DF1080838D0C7F3004540F201624D
:102A5000B90748BF45F00205174218BF45F0040505
:102A60003A0748BF25F00405184648BF45F0080559
:102A7000029301F025F8CDE903500125284641468F
:102A8000ABBE0546002D09DB06EBC403002246F869
:102A900034505A60204618B0BDE8F08100F006FAC4
:102AA00013260446002730463946ABBE064626604C
:102AB0002C46204618B0BDE8F081184641460193E7
:102AC000FFF78EFF0130019BBED000F0EFF911231C
:102AD0002C460360DEE700F0E9F9182303604FF0AD
:102AE000FF34D7E7600A00200EB400B50199FFF764
:102AF00095FF5DF804EB03B0704700BF2DE9F0438C
:102B0000804683B02F48894600211746FFF786FF8D
:102B1000002106463A46404600F006FE711C47D0AA
:102B20003046FFF7B9FD0C25044628462146ABBECA
:102B30000446621C23463DD0032B30DD033BBB42E1
:102B40002DDD04220DEB02013046FFF7E3FD0328E3
:102B500025DD9DF80430532B21D19DF80530482BFD
:102B60001DD19DF80630462B19D19DF80730422B18
:102B700015D1494601223046FFF7F4FD00280EDB4F
:102B80003A4641463046FFF7C5FD04463046FFF75A
:102B900099FE631C12D0204603B0BDE8F083304696
:102BA000FFF790FE4FF0FF34204603B0BDE8F083FE
:102BB0003446F0E7FFF78CFD0346BDE7FFF788FDDD
:102BC0000446E8E72CC3000830B50B4D0B4C83B02E
:102BD0000021012201A829602260FFF78FFF002851
:102BE00007DD9DF8043003F0010203F002032A60C0
:102BF000236003B030BD00BF90000020940000208F
:102C000010B5044C2068002800DB10BDFFF7DCFF86
:102C1000206810BD9000002010B5044C20680028EA
:102C200000DB10BDFFF7D0FF206810BD940000202E
:102C30002DE9F04F85B0DFF8FC80CDF80480032348
:102C4000002503934FF00109029501AF484639462C
:102C5000ABBE8146324E334CC6F800902B464FF047
:102C6000FF3244F833200133142BFAD12E4D2B6858
:102C7000002B48DB4BB92D4A1168013147D032682F
:102C8000C4E9002305B0BDE8F08F4FF0030B042327
:102C9000CDF804804FF00109CDF80CB002934846FE
:102CA0003946ABBE82465246DFF884A0CDF8048098
:102CB0000823CDF80CB0CAF80020029348463946E4
:102CC000ABBE0746DFF864802B68C8F80070013798
:102CD00004BFDAF80020C8F8002032682260002221
:102CE0009342626002DAFFF76FFF2B6843B1DAF8B4
:102CF0000030D8F80020A3600023C4E903326361E8
:102D000005B0BDE8F08FFFF75FFF2B68B2E7084919
:102D1000306809681160C4E9000305B0BDE8F08FB0
:102D2000580A0020600A002094000020540A002065
:102D30005C0A002044C3000808B500F0B7F8582327
:102D400003604FF0FF3008BDF0B583B00E24009053
:102D500000F0B6FE01906D4620462946ABBE044603
:102D6000631C18BF002402D0204603B0F0BD00F061
:102D70009DF813260546002730463946ABBE064669
:102D80002E60F1E7F0B50C4658B105461126002734
:102D900030463946ABBE06463246F317C5E9002336
:102DA000AF6014B10023C4E900330020F0BD00BFC0
:102DB00030B51024002520462946ABBE04462046E7
:102DC00030BD00BF70B504461025002628463146A8
:102DD000ABBE05461CB1C4E90056C4E902662846EC
:102DE00070BD00BF70B5FFF757FC044698B10925C8
:102DF00028462146ABBE0446012C20460AD000F0EE
:102E000055F813260546002430462146ABBE06463B
:102E10002E60204670BD00F049F803460922204686
:102E20001A6070BDE8B130B583B01224009000F094
:102E300047FE01906D4620462946ABBE0446631C02
:102E4000204610D0FF2806D828B14300C3F307223C
:102E5000824202D1184603B030BD5B00F6D118465D
:102E6000F9E701207047FFF733FCEBE730B585B099
:102E70000C46009000F024FE03462046CDE90134C4
:102E800000F01EFE0F2403906D4620462946ABBE7F
:102E90000446631C18BF204605D0003818BF012027
:102EA000404205B030BDFFF713FCF6E7014B186850
:102EB000704700BF9800002010B500230446C0E909
:102EC0000033C0E904338181C2818360436683613A
:102ED000194608225C3000F027FC07480749084AD9
:102EE000084BE362C4E90740C4E9091204F1580041
:102EF000BDE8104000F04AB9053A00082D3A000834
:102F00006D3A00088D3A0008014900F019B900BF78
:102F1000056A000808B5436EDA0702D483899B0569
:102F200001D5002008BD806D00F038F9002008BDF3
:102F300008B5436EDA0702D483899B0501D50020CA
:102F400008BD806D00F032F9002008BD70B54A1E42
:102F5000682505FB02F50E4605F1740100F028F91D
:102F6000044640B100210C30666005F16802216022
:102F7000A06000F0D9FB204670BD00BF024B0349A2
:102F8000186800F0DDB800BF48C30008056A0008F3
:102F900010B50446114800F001F9A26BC2B904F55E
:102FA0003B730F48C4F8E0220321C4E9B913E0637E
:102FB00004216068FFF780FFA06801220921FFF764
:102FC0007BFFE06802221221FFF776FF0123A36353
:102FD000BDE81040014800F0E9B800BF440B0020F4
:102FE000092F0008F8B50746244800F0D7F8244B0D
:102FF0001E68B36B7BB306F53876D6E90134013B26
:1030000004D524E05A1C04F1680420D0B4F90C5013
:10301000013B002DF6D11B4BE36004F158006566BF
:1030200000F0B4F8154800F0C1F8C4E90155C4E94E
:1030300004552560A5610822294604F15C0000F0D2
:1030400073FBC4E90C55C4E911552046F8BD34683A
:103050002CB12646D1E73046FFF79AFFCBE7042193
:103060003846FFF773FF044630600028F1D103486B
:1030700000F09CF80C233B60E7E700BF580B0020F2
:1030800048C300080100FFFF014800F087B800BFF7
:10309000580B0020014800F089B800BF580B0020F1
:1030A000014800F07BB800BF440B0020014800F04D
:1030B0007DB800BF440B002008B5054800F06EF84D
:1030C000044B05491868BDE8084000F019B800BF76
:1030D000580B002098000020152F000808B5054B5C
:1030E0000549186800F00CF8BDE80840034800F0F6
:1030F0005DB800BF98000020312F0008580B002059
:103100002DE9F04100F5387788460026D7E90154CB
:10311000013D0FD4A389012B05F1FF3506D9B4F980
:103120000E30013302D02046C04706436B1C04F129
:103130006804EFD13F68002FE8D13046BDE8F08148
:103140002DE9F8430746884600F538764FF0000928
:10315000D6E90154013D11D4A389012B05F1FF35B6
:1031600008D9B4F90E30013304D021463846C0479F
:1031700049EA00096B1C04F16804EDD13668002EA1
:10318000E6D14846BDE8F883704700BF704700BFEE
:10319000704700BF704700BF704700BF704700BF57
:1031A0000120704701207047704700BF704700BF83
:1031B0002DE9F04F01F10B05162D83B0064623D8FB
:1031C000102900F2A78000F0FFFA10250220182332
:1031D000CA4F3B44A3F108025C68944200F0A78008
:1031E000636823F003032344D4E902515A68E96079
:1031F00042F0010230468D605A6000F0EBFA08346C
:10320000204603B0BDE8F08F35F0070500F182805D
:10321000A9427FD800F0D8FAB5F5FC7FC0F0A281B2
:103220006B0A7ED0042B00F25D81AB0903F13900FB
:1032300003F1380CC300B14F3B44A3F108015C68B3
:10324000A14206D10CE0002A80F21981E468A14273
:1032500006D0636823F003035A1B0F2AF3DD604690
:103260003C69DFF8AC8244456CD0626822F003020E
:10327000531B0F2B00F38481002BC7E9048880F2D5
:103280007581B2F5007F80F00881D10801315209C3
:10329000012393407A6857F831C0C4F808C007EB9F
:1032A000C10E1343AEF10802E2607B6047F8314083
:1032B000CCF80C4082104FF0010C0CFA02FC9C453B
:1032C00048D81CEA030F08D120F003004FEA4C0C49
:1032D0001CEA030F00F10400F8D007EBC00AD64641
:1032E0008146DEF80C300BE0596821F003014A1BDF
:1032F0000F2A1C46DB6800F30F81002A80F225812B
:103300009E45F1D109F1010919F0030F0EF1080EE4
:10331000E7D16AE10C2333600024204603B0BDE806
:10332000F08F4FF4007340204FF03F0C83E7DC68D0
:10333000A34208BF02307FF453AF3C69DFF8D0816D
:10334000444592D17B6882104FF0010C0CFA02FCCC
:103350009C45B6D9BC68636823F00308454503D88B
:10336000A8EB05030F2B7ADCDFF8A891644BD9F8A2
:1033700000201B6801322B4404EB080A00F0508146
:1033800003F580530F3323F47F6B2BF00F0B59465B
:10339000304600F025FB411C024600F00B818245BF
:1033A00000F20681574B196859441960084600F02D
:1033B0006B81D9F80010019301311BBFA2EB0A0AFF
:1033C0005044C9F80020186012F0070A00F0348158
:1033D000CAF108010A44CAF5805193440831A1EBAF
:1033E0000B01C1F30B0949463046009200F0F8FA90
:1033F000421CDDE9002300F06C81801A00EB090B10
:103400001968BA604BF001004944BC425060196031
:1034100000F04681B8F10F0F40F244816068A8F1D6
:103420000C0C2CF0070C00F0010004EB0C0E40EA31
:103430000C004FF00508BCF10F0F6060CEE9018869
:1034400000F24F81506814462F4B1A688A4238BFE9
:1034500019602E4B1A688A4238BF1960ACE06219B5
:1034600043F0010345F0010565603046BA605360E2
:1034700000F0B0F90834204603B0BDE8F08F2344D3
:10348000E1685A68A56842F00102E96030468D6043
:103490005A6000F09FF908343FE7B2F5206F4FEA19
:1034A00052237FD3142B00F2D88003F15C01C900B2
:1034B0005B3307EB010C7958ACF1080C8C4500F03C
:1034C000B2804B6823F00303934202D989688C458C
:1034D000F7D1D1F80CC07B68C4E9021CCCF80840D5
:1034E000CC60E7E6142B75D9542B00F2BE802B0B71
:1034F00003F16F0003F16E0CC3009CE6C8040020CA
:10350000300B0020000B0020280B00202C0B00208B
:10351000D0040020D0080020D4F808E004EB050C0B
:1035200045F00105656042F00105CEF80C303046EB
:10353000C3F808E0C7E904CCCCE90288CCF8045011
:10354000625000F047F90834E7E6214454F8085F78
:103550004A6842F001024A603046EB609D6000F02C
:1035600039F9DAE6E80805F1080331E62244304685
:10357000536843F001035360083400F02BF9CCE6A4
:10358000611945F0010C43F00105C4F804C0304650
:10359000C7E90411C1E902884D60A35000F01AF98F
:1035A0000834BAE6930903F13901C900383380E7DA
:1035B000BC4264D0BC68606820F0030B5D45ABEB97
:1035C000050302D80F2B3FF74AAF304600F002F94F
:1035D0000024A2E603F15C0003F15B0CC3002AE6C1
:1035E0005AF80839534540F09B8010F0030F00F162
:1035F000FF30F5D17B6823EA0C037B604FEA4C0C6B
:103600009C453FF6A7AEBCF1000F04D1A2E64FEAFD
:103610004C0C09F104091CEA030FF8D048465CE69B
:1036200003F1100BB3E69A104FF0010E7B680EFA0F
:1036300002F213437B604FE702EB0B014942C1F3F7
:103640000B0949463046009200F0CAF9431CDDE9F7
:1036500000237FF4D2AED146D2E6542B25D8130BEB
:1036600003F16F01C9006E3323E7B3F5AA7F25D8B4
:10367000EB0B03F1780003F1770CC300DBE5294B7A
:1036800018685844186094E6CAF30B0CBCF1000F9C
:103690007FF48FAEBC68C3444BF001006060D3E69A
:1036A0001446D1E6012353608FE7B3F5AA7F23D8F0
:1036B000D30B03F17801C9007733FAE640F2545294
:1036C000934223D8AB0C03F17D0003F17C0CC300C3
:1036D000B1E5AAF1080AD344ABEB020B4FF00009A5
:1036E0008EE604F108013046009303F031FBBC681C
:1036F000009B60681968A7E640F254518B420BD8D2
:10370000930C03F17D01C9007C33D2E64FF47E7344
:103710007F204FF07E0C8EE54FF47E717E23C8E64D
:103720007B686BE7000B0020F0B4860746D0541E80
:10373000002A3CD0CAB2034601E0013C37D303F86B
:10374000012B9D07F9D1032C2AD9CDB245EA0525D5
:103750000F2C45EA054534D9A4F1100222F00F0CD4
:1037600003F120071609674403F1100242E90455EA
:1037700042E902551032BA42F8D1721C14F00C0F13
:1037800003EB021204F00F0613D0331F23F00303E0
:103790000433134442F8045B9342FBD106F0030464
:1037A0002CB1CAB21C4403F8012B9C42FBD1F0BCE3
:1037B000704734461346002CF3D1F8E7144603460D
:1037C000C1E71A462646E0E70148FFF7E7BC00BF1D
:1037D000480B00200148FFF7E9BC00BF480B002060
:1037E0000EB400B582B003AB816853F8042B01938B
:1037F00000F0D6F902B05DF804EB03B0704700BFEB
:103800000FB400B5074983B004AB086853F8042B24
:103810008168019300F0C4F903B05DF804EB04B0D3
:10382000704700BF98000020826800F00BB800BF0E
:10383000034B1B6801469A68184600F003B800BFA6
:103840009800002070B50E461446054608B1836BFB
:10385000EBB1636ED80702D4A389990523D5A36879
:10386000013B002BA3601CDAA269934212DBF0B289
:103870000A280FD023685A1C226005461E70636E0A
:10388000DA0702D4A3899B0511D5284670BDFFF73E
:103890007FFBDEE728463146224601F0ADFF0546B4
:1038A000EDE7F0B2E6E7A06DFFF778FCD7E7A06D93
:1038B000FFF77CFC284670BD1D4B70B51E680546A1
:1038C0000C460EB1B36BEBB1636ED80702D4A3897B
:1038D000990524D5A368013B002BA3601DDAA269DA
:1038E000934213DBE8B20A2810D023685A1C2260E6
:1038F00006461D70636EDA0702D4A3899B0512D5B4
:10390000304670BD3046FFF743FBDDE730462946C1
:10391000224601F071FF0646ECE7E8B2E5E7A06D4C
:10392000FFF73CFCD6E7A06DFFF740FC304670BDCA
:103930009800002070B5054688B008460C4600F097
:10394000BFF8224AAB6B04940126441C04A90692DA
:1039500002220394CDE90112AC68059007961BB3CF
:10396000616EB4F90C30CE079AB201D4900525D51A
:10397000910406D4626E43F4005322F40052A381F2
:103980006266284601AA214603F0ECFA636E00281D
:1039900014BF4FF0FF350A25DA0702D4A3899B052F
:1039A00006D5284608B070BD2846FFF7F1FAD7E7DC
:1039B000A06DFFF7FBFB284608B070BDA06DFFF7B8
:1039C000EDFBB4F90C309AB2D2E700BFC4C10008D5
:1039D000024B01461868FFF7ADBF00BF98000020FA
:1039E00038B5074D0022044608462A60FEF7A0FFBE
:1039F000431C00D038BD2B68002BFBD0236038BDA2
:103A00005C0B002010B50C46B1F90E1004F074FBED
:103A1000002803DB236D0344236510BDA38923F431
:103A20008053A38110BD00BF002070472DE9F041F5
:103A3000B1F90C509846EB050C461746B1F90E103B
:103A4000064609D425F48055A58143463A463046BA
:103A5000BDE8F04101F030BF0223002203F034FC46
:103A6000B4F90C50B4F90E10ECE700BF10B50C46D9
:103A7000B1F90E1003F028FCA389421C0EBF23F4F9
:103A8000805343F480532065A38110BDB1F90E101B
:103A900001F090BF000000000000000000000000E6
:103AA0000000000000000000000000000000000016
:103AB0000000000000000000000000000000000006
:103AC00090F800F06DE9024520F007016FF0000C5E
:103AD00010F0070491F820F040F049804FF0000406
:103AE0006FF00700D1E9002391F840F000F10800E1
:103AF00082FA4CF2A4FA8CF283FA4CF3A2FA8CF319
:103B00004BBBD1E9022382FA4CF200F10800A4FA7F
:103B10008CF283FA4CF3A2FA8CF3E3B9D1E90423D3
:103B200082FA4CF200F10800A4FA8CF283FA4CF30A
:103B3000A2FA8CF37BB9D1E9062301F1200182FAC4
:103B40004CF200F10800A4FA8CF283FA4CF3A2FACA
:103B50008CF3002BC6D0002A04BF04301A4612BAD8
:103B6000B2FA82F2FDE8024500EBD2007047D1E9DB
:103B7000002304F00305C4F100004FEAC50514F06A
:103B8000040F91F840F00CFA05F562EA05021CBF3B
:103B900063EA050362464FF00004A9E70000000055
:103BA0002DE9F04F2DED068BCFB01C468B46174606
:103BB000814603F053FB0368099418461293FFF7FC
:103BC0007FFF1190B9F1000F04D0D9F83830002BE5
:103BD00000F03282DBF86410BBF90C20C80793B206
:103BE00002D4990540F1C2869E040AD4DBF8641021
:103BF00042F4005321F40051ABF80C30CBF86410C0
:103C00009BB21D0740F1B680DBF81020002A00F0BF
:103C1000B18003F01A020A2A00F0BA8000239FED57
:103C20007A7BCDE92333CDE91333CDE916330D93F8
:103C30001593059325AB229398463B788DED0E7B2B
:103C400009EE10BA002B00F066813C4604E014F83F
:103C5000013F002B00F0B580252BF8D1E51B40F08B
:103C6000B3802378002B00F05681002306938DF853
:103C70006B300293661C4FF0FF33647804932B255E
:103C80004FF0200A0136A4F120035A2B00F2C08025
:103C9000DFE813F0A902BE00BE00A302BE00BE0012
:103CA000BE008202BE00BE0078025402BE003C028A
:103CB0005E02BE0058025B005B005B005B005B00C5
:103CC0005B005B005B005B00BE00BE00BE00BE0090
:103CD000BE00BE00BE004B01BE00D60102034B0178
:103CE0004B014B01BE00BE00BE00BE00FC02BE0088
:103CF000BE00BA02BE00BE00BE00EB01BE00EC0278
:103D0000BE00BE00D307BE00BE00BE00BE00BE00A7
:103D1000BE00BE00BE004B01BE00D60112024B0128
:103D20004B014B014B0212026A00BE004202BE0070
:103D30003403AB0720036A00BE00EB016E00AE0740
:103D4000BE00BE00B207BE006E00A4F13003002228
:103D500016F8014B02EB820203EB4202A4F130039E
:103D6000092BF5D906928EE7029B43F020030293BC
:103D7000347887E75946484601F0B4FD002841F001
:103D80009E83BBF80C3003F01A020A2A7FF446AF78
:103D9000BBF90E20002AFFF641AFDBF86420D20702
:103DA00002D49E0541F1878123463A46594648464A
:103DB00001F0E0FC059005984FB0BDEC068BBDE826
:103DC000F08FE51B00F0A780DDE9233201332A44A0
:103DD000072BCDE92332C8F80070C8F8045006DC80
:103DE00008F10808059A23782A4405923AE719EE63
:103DF000101A22AA484604F0C1FD002841F03A8476
:103E00000DF19408EEE700BF000000000000000084
:103E10000A96002C7FD0002301211A4603918DF8C9
:103E2000D4408DF86B30089304930B9310930C934C
:103E3000079135AF029B13F0020302D003990231C0
:103E400003910299249D11F0840B05D106990398E2
:103E50000E1A002E00F3B58072B1239A013201359B
:103E60000DF16B000121072ACDE92325C8E90001E6
:103E700000F3198408F108086BB1239B0133023564
:103E80001BA90222072BCDE92335C8E9001200F354
:103E90001A8408F10808BBF1800F00F0EC82049B43
:103EA000079A9E1A002E00F32B83029BDE0500F179
:103EB0008682239B079AC8F8007001331544072BAC
:103EC0002495C8F80420239300F37D8308F10808A3
:103ED000029B5E0705D5069B039A9C1A002C00F3F3
:103EE0000084DDE9053203998A42ACBF9B185B1858
:103EF0000593002D40F03E8300232393089B1BB1C4
:103F00000899484602F024FF0DF194080A9F3B7877
:103F1000002B7FF49AAE249B19EE10BA002B40F0D0
:103F2000E4870023239300F0A2BC099B0A96073381
:103F300023F00703B3EC027B56EC175B099326F0E2
:103F400000430AEE903AB0EE47AA5BEC1AABAA4BDC
:103F5000504659464FF0FF328DED0E7B06F002FCC5
:103F6000002840F07285A44B4FF0FF32504659466E
:103F700006F0DAFB002840F068850022002328467E
:103F8000314606F0C7FB002841F0F6809DF86B2013
:103F90009A4F9B4B029D0021032025F08005039042
:103FA00008910295472CC8BF1F46079004910B91BA
:103FB00010910C91002A3FF43DAF039B0133039312
:103FC00038E7102E239A28DD29464FF0100A25469F
:103FD0001C46434619EE108A04E0103E102E03F1F1
:103FE000080316DD013287481031072ACDE9232165
:103FF000C3E9000AF1DD22AA4146484604F0BEFCAE
:10400000002840F0A286103E102EDDE9232125ABCA
:10401000E8DC984623462C460D4601327949354462
:10402000072ACDE92325C8E9001600F3E0869DF8AC
:104030006B2008F108080FE74846FEF7A9FFC9E51D
:10404000099B0A96002153F8042B8DF8D4200120F7
:104050000A46039009938DF86B10089104910B9117
:1040600010910C91079035AFE4E6099D0A9655F83A
:10407000047B00268DF86B60002F00F02C86049ADC
:104080001346013300F019873146384603F0D0F962
:104090000890002801F0BC81089B0496DA1B079267
:1040A000334622EAE272039209959DF86B20089349
:1040B0000B9310930C937DE7029B0A9613F0200F4D
:1040C000099B00F0F480073323F007031946F1E859
:1040D0000223099192469B46002A73F10003C0F225
:1040E000A984049B013300F0CC82029B23F080055D
:1040F0005AEA0B0340F0C682049B002B40F0C982B1
:1041000002950023049307934EAF2BE13478029B72
:1041100043F004030293B5E53478029B6C2C00F065
:10412000CC8543F010030293ACE53478029B682CF5
:1041300000F0CA8543F040030293A3E534788DF87C
:104140006B509FE5029B347843F08003029399E51E
:10415000324612F8014B2A2C01F0DB82A4F1300325
:10416000092B164698BF002201F2798116F8014BFF
:1041700002EB820203EB4202A4F13003092BF5D9D2
:10418000049280E5099B347853F8042B0692002AA8
:10419000C0F25785099375E5484603F05FF8436818
:1041A00016931846FFF78CFC034648461C461793A7
:1041B00003F054F882681592002C3FF4D9AD159B9A
:1041C0003478002B3FF45EAD1B78002B3FF45AADE2
:1041D000029B43F48063029354E5029B347843F0DE
:1041E000010302934EE59DF86B303478002B7FF489
:1041F00049AD8DF86BA045E5FFFFEF7F4CC300088C
:1042000050C3000890C30008029B0A9643F01003B5
:104210000293029B980640F19483099B073323F095
:104220000703F3E802AB0993029B23F480650023A4
:1042300000228DF86B20049A1146013177D025F0C9
:10424000800102915AEA0B0170D1002A40F00686E3
:10425000002B7FF456AF15F00103079300F0BA83EB
:1042600030238DF837310DF237177BE0029B0A9629
:1042700043F01005AF06099B40F15583073323F047
:104280000703F3E802AB09930123D1E7029B3478DB
:1042900043F008030293F5E4029B0A9643F01003EF
:1042A0000293029B13F0200F099B7FF40CAF029A3C
:1042B000D50603F1040100F1B183029B580640F1D9
:1042C000A783099B0991B3F900A04FEAEA7B524604
:1042D0005B4601E7099B0A9647F6300153F8042B29
:1042E000ADF86C1002990993BD4B139341F0020590
:1042F00092464FF0000B0223782499E7099A0A9618
:1043000052F8043B0992029A970600F16784029AD8
:10431000D60600F1A885029A550600F10686029A93
:10432000940540F1A085059A1A70EFE5029D012BD6
:1043300000F0A881022B4EAF22D113984FEA1A1336
:104340000AF00F0143EA0B734FEA1B129A46934699
:10435000435C07F8013D5AEA0B03EFD14EABDB1B80
:10436000029507930023049908930B9310930C93E1
:10437000079B9DF86B208B42B8BF0B46039319E651
:104380004FEADA0242EA4B724FEADB010AF0070316
:104390008B46924630335AEA0B013A4607F8013D04
:1043A000EED1E907DAD5302BD8D03023023A07F81E
:1043B000013C4EAB9B1A029507931746D2E7652C3A
:1043C00040F31481DDE90E010022002306F098F984
:1043D000002800F0C081239B824AC8F800200133E6
:1043E00001350122072BCDE92335C8F8042000F35D
:1043F000108508F108081C9B0D9A934280F2B18247
:10440000239B129AC8F80020119AC8F8042001339F
:104410001544072B2495239300F3418408F10808E1
:104420000D9B5C1E002C7FF753AD102C239BDFF8F7
:10443000B8A140F308855746102619EE10AA05E0EA
:1044400008F10808103C102C40F3FC8401331035AF
:10445000072BCDE92335C8E90076F1DD22AA5146C4
:10446000484604F08BFA002840F07187DDE92335D7
:104470000DF19408E6E7069B039A9E1A002E7FF73B
:104480000EAD102E239BDFF860A128DD51462A4691
:10449000A24619EE105A4FF0100B0C4604E0103EE5
:1044A000102E08F1080816DD01331032072BCDE974
:1044B0002332C8E9004BF2DD22AA2946484604F01F
:1044C0005DFA002840F0CD81103E102EDDE9233248
:1044D0000DF19408E8DC1546224654469246013315
:1044E0003544072BCDE92335C8E900A600F3AE8398
:1044F000049B079A9E1A002E08F108087FF7D5AC96
:10450000102E239BDFF8E0A028DD51462A46A24664
:1045100019EE105A4FF0100B0C4604E0103E102E0E
:1045200008F1080816DD01331032072BCDE92332DC
:10453000C8E9004BF2DD22AA2946484604F01EFADB
:10454000002840F08E81103E102EDDE923320DF15F
:104550009408E8DC15462246544692460133354419
:10456000072BCDE92335C8E900A600F3CE8108F179
:1045700008089AE419EE101A22AA484604F0FEF937
:1045800000283FF4B9AC19EE10BA6BE1239B1299E5
:10459000C8F800101199C8F8041001330D44072B16
:1045A0002495239300F3778508F10808002AC0F2C8
:1045B00060870D9A01331544072BCDE92335C8E9EF
:1045C00000727FF783AC19EE101A22AA484604F055
:1045D000D5F90028D7D1249D0DF1940878E400BFC7
:1045E0005CC300088CC30008A0C300080D9A239B7D
:1045F000012A05F1010503F1010408F1080640F361
:1046000048810123072CCDE92345C8F80070C8F87C
:10461000043000F38083119B129A01341D44072C4F
:10462000CDE92345C6E9002300F382830836DDE99E
:104630000E010022002306F063F80D99621C134658
:1046400001F1FF3B06F10808002840F034810137F2
:104650005D44072A37602495C6F804B0239200F31E
:104660000E8306F11002A31C464690461499716011
:104670000D441EAA072B2495239332607FF728ACA4
:10468000A1E7029DBBF1000F08BFBAF10A0F80F04D
:104690006A830AF1300A01238DF837A10295079346
:1046A0000DF237175EE619EE101A22AA4846189343
:1046B00004F064F900287FF466AF249D189B0DF187
:1046C0009408FFF7D9BB19EE101A22AA484604F045
:1046D00055F900287FF457AF249D0DF19408FFF79A
:1046E000DABB102C239B20DD19EE107A102604E093
:1046F000103C102C08F1080817DD0133C14A1035B1
:10470000072BCDE92335C8E90026F1DD22AA394679
:10471000484604F033F9002840F08983103C102CFF
:10472000DDE923350DF19408E7DC0133B54A254472
:10473000072BCDE92335C8E900247FF7D2AB19EE6A
:10474000101A22AA484604F019F900287FF41BAF7A
:10475000249DFFF7C6BB1C9A002A40F31081DDE9B7
:104760000C329342A8BF1346002B1C460DDD239B41
:10477000C8F8007001332544072B2495C8F804407D
:10478000239300F3D68508F108080C9B002CA8BFE2
:104790001B1B002B1C4600F36A830C9B3B449A4670
:1047A000029B580500F1ED841C9B0D9A934203DB9C
:1047B000029AD10740F1A983239A1299C8F80010F0
:1047C0001199C8F8041001320D44072A2495239248
:1047D00000F3C08508F108080D9ABC18A4EB0A0480
:1047E000D31A9C42A8BF1C46002C0DDD239AC8F8A2
:1047F00000A001322544072A2495C8F804402392DA
:1048000000F31C8608F10808002CACBF1C1B1C46DA
:10481000002C7FF75DAB102C239BDFF8F0A140F359
:1048200012835746102619EE10AA05E008F1080871
:10483000103C102C40F3068301331035072BCDE9D3
:104840002335C8E90076F1DD22AA5146484604F036
:1048500095F8002840F07B85DDE923350DF19408BB
:10486000E6E7AB46089911B1484602F071FADBF869
:104870006420BBF80C30D40702D4980540F1B08214
:10488000590600F1288605984FB0BDEC068BBDE8AF
:10489000F08F029AD2073FF5B4AE0122072CCDE982
:1048A0002345C8F80070C8F8042000F3E8810233FB
:1048B00008F11008DAE6BBF1000F7FF7D7AEBBF1C5
:1048C000100FDFF848A140F31B8719EE108A10275C
:1048D000144607E00836ABF1100BBBF1100F40F3A4
:1048E000C38101341035072CCDE92345C6E900A763
:1048F000F0DD22AA4146484604F040F8002840F086
:104900002482DDE9234525AEE5E719EE101A22AA37
:10491000484604F033F800287FF435AE249D0DF1AD
:104920009408FFF7C2BAEE0603F1040257D46806F2
:10493000099B51D5B3F800A009924FF0000B012359
:1049400076E40299099AC90602F1040354D4029A42
:1049500052064BD5099A0993B2F800A04FF0000B0C
:1049600062E4029BDC077FF5B3AA49E5DBF8580057
:10497000FEF714FCBBF90C2093B2FFF735B9239B6B
:104980002149C8F80010013301350121072BCDE979
:104990002335C8F8041000F39D8408F10808002AA4
:1049A0007FF4F4AD029B0D9A03F0010313433FF42F
:1049B0008FAA239B129AC8F80020119AC8F80420E5
:1049C00001331544072B2495239300F3648308F1E6
:1049D0000808EEE54EAFC5E4A90500F1AA82196802
:1049E000099201238A464FF0000B21E4029A12F447
:1049F000007F099A40F092821268099392464FF024
:104A0000000B11E490C300088CC30008A0C3000889
:104A1000029B13F4007F099B40F093821B6809916D
:104A20001A464FEAE37B9A46002A5B4673F100037D
:104A3000BFF657AB2D23DAF1000A8DF86B30029DDB
:104A40006BEB4B0B0123FFF7F6BBDDE90E010246D2
:104A50000B4605F087FE8446002840F00F86612C47
:104A600000F04885412C00F07B82049B24F0200656
:104A70005A1C079600F09F85472E00F07785DDE9E8
:104A80000EAB02995B46002B41F48072C0F20386A4
:104A900000234BEC18AB1893039108930292462E17
:104AA00000F08084452E40F06484B0EE480AF0EEB9
:104AB000680A049B20A95D1C1DABCDE900312A4684
:104AC0001CAB0221484601F017F80746054451EC9B
:104AD000180B0022002305F013FE002800F02E839F
:104AE0002B46DB1B0D931C9B0C93079B472B00F065
:104AF000F682079B462B00F0728407990C9BE2B26A
:104B0000412908BF0F3203F1FF3306BFD2B20121A2
:104B10000021002B1C93B8BF0C9B8DF87820BABFE6
:104B2000C3F101032D222B22092B8DF8792040F3AC
:104B300063850DF1870CBF4E654686FB0321DA17AE
:104B4000C2EBA10202EB8201A3EB41019E46303190
:104B5000BEF1630F284605F8011C134605F1FF3529
:104B6000EBDC3033DAB2831E9C45294605F8012C74
:104B700040F2E8850DF17A0301E011F8012B03F80A
:104B8000012B8C45F9D10DF189030DF17A021B1A25
:104B900013441EAA9B1A14930D9B149A012B1A44BA
:104BA000079240F38E85079B119A13440793039B4A
:104BB00023F4806343F480730293079B002223EA6B
:104BC000E3730B9210920C920393189B002B40F00E
:104BD000AE829DF86B200493FFF7ECB9059A10465E
:104BE000D117C3E90001FFF791B90A96FFF711BB8E
:104BF000029D0A96FFF73EBB8F4B0A961393029BCA
:104C00009F0678D5099B073323F00703F3E802AB2F
:104C10000993029AD0070AD55AEA0B0307D030232A
:104C200042F002028DF86D4002928DF86C30029BCA
:104C300023F480650223FFF7FBBA804B0A96139397
:104C4000DDE7524206920993FFF761BA19EE101A96
:104C500022AA484603F092FE00287FF494AC249DDB
:104C60000DF19408FFF71BB9631C06F108025D44BF
:104C7000072BC6E900AB2495239340F3408119EE3E
:104C8000101A22AA484603F079FE00287FF47BAC74
:104C9000DDE923350DF19C08013325AEE6E419EE7C
:104CA000101A22AA484603F069FE00287FF46BAC74
:104CB000249D0DF19408FFF7B3BB43F020037478F3
:104CC00002930136FEF7DEBF43F40073747802935B
:104CD0000136FEF7D7BF049B0B97062B28BF062390
:104CE0003A46049710970C9708970393544F0995E9
:104CF0000793FFF75FB90299099ACE0602F1040300
:104D00002BD4029A550622D5099A0993B2F800A02D
:104D10004FF0000B7DE719EE101A22AA484603F067
:104D20002DFE00287FF42FACDDE9234525AE72E48B
:104D300019EE101A22AA484603F020FE00287FF43C
:104D400022ACDDE9234525AE71E4C3468AE5029A2B
:104D500012F4007F099A40F0FD8012680993924690
:104D60004FF0000B55E705F480630295CDF80C80F9
:104D7000159DA04600264EAF1C4609E005F030FD0B
:104D8000BBF1000F08BFBAF10A0F1FD382468B4652
:104D90000A2200235046594605F022FD94460CF1A4
:104DA000300C07F801CC504659460A220023013640
:104DB000013F002CE2D095F800C06645DED1FF2E01
:104DC000DCD09B4508BF924580F0C4814EABDB1B15
:104DD00044461595DDF80C800D960793FFF7C2BA8F
:104DE000DBF85800FEF7E2F9BBF80C3048E519EEA5
:104DF000101A22AA4846189303F0C0FD00287FF439
:104E0000C2AB9DF86B20249D189B0DF19408FFF711
:104E100023B819EE101A22AA484603F0AFFD002865
:104E20007FF4B1AB249D0DF19408FFF7E4BABB46C3
:104E300018E500BF676666665CC3000870C30008BB
:104E400084C30008BA4601332544072BCDE9233536
:104E5000C8E900A47FF73AA8FFF7B5BB012B029D74
:104E60007FF468AA15E4059A1A60FFF74FB8102C72
:104E7000239BDFF85CA42CDD524619EE10BABA462B
:104E80001026174604E008F10808103C102C1DDD20
:104E900001331035072BCDE92335C8E90076F2DD63
:104EA00022AA5946484603F069FD00287FF4DAAC8F
:104EB000DDE923350DF19408E7E73846FEF700FEFB
:104EC0003346049602460790FFF7EBB83A4657463A
:104ED000924601332544072BCDE92335C8E900A4C8
:104EE00000F3EF8008F1080857E419EE101A48465D
:104EF00022AA03F043FD00283FF413A8B7E40133CE
:104F000002F108081646FFF7B1BB0D9ABC18A4EBD6
:104F10000A04D31A9C42A8BF1C4675E492F800A06C
:104F200009934FF0000BFFF77FB9059A1A80FEF73F
:104F3000EDBF93F800A009924FF0000B0123FFF79B
:104F400077B993F900A009914FEAEA7B52465B4694
:104F5000FFF7C2B892F800A009934FF0000B58E693
:104F600030238DF86C3058238DF86D30029B43F060
:104F700002030393049B632B00F3B2820023089384
:104F800035AF029A0F9B24F0200642F48172002B69
:104F900002920796C0F2B1819DED0E8B002318930B
:104FA000612C00F00C83412C7FF479ADB0EE480AFF
:104FB000F0EE680A1CA803F0C3FA00224FF07F53FA
:104FC00051EC100B05F034F90022002382468B4689
:104FD00005F096FB08B101231C93BA4B0B93049B7D
:104FE00019973E4609EE909A0B9F10945D1ECDF8DE
:104FF000348003E005F084FB013D08BBB24B002286
:105000005046594605F014F98946804605F0C0FB24
:10501000044605F0A3F802460B464046494604F014
:105020004FFF17F804C0B5F1FF3FB046824606F8BF
:1050300001CB8B464FF000024FF00003A946D9D1B7
:10504000A24BCDF83080002250465946DDF834801E
:10505000199F0D944D46109C19EE909A05F078FB1F
:10506000002840F06782994B50465946002205F0CF
:1050700047FB18B10D9BDB0700F15C82002D2B462E
:1050800006DB01333344302206F8012BB342FBD157
:10509000F31B0D9327E519EE101A22AA484603F0D8
:1050A0006DFC00287FF46FAADDE923351C9A0DF111
:1050B0009408FFF77BBADBF85800FEF777F8FEF7A5
:1050C00073BE19EE101A22AA484603F057FC0028B6
:1050D0007FF459AA249D0DF19408FFF75EBB0C9B49
:1050E000D81C02DB049A9A4204DA023C24F0200322
:1050F000079302E50D9B19460C9B994200F394819E
:10510000039AD20740F17582119A13440793039BC7
:105110005B0503D50C9B002B00F37E82079B23EAE3
:10512000E3730393672400230B9310934DE52D2223
:1051300000238DF86B200493FEF73FBF209BAB420A
:10514000BFF4CFAC30215A1C20921970209B9D4295
:10515000F9D8C6E4179B1699FF1A1A46384603F089
:105160009DFB6B7803B101350A2200235046594656
:10517000002605F035FB09E62D228DF86B20FEF7A1
:1051800007BF0D9B0C974246DDF84080DFF840B129
:10519000FB180493564619EE101ADDF85CA0159F13
:1051A0000B9B2846B8F1000F2ED0002B6DD1013F8C
:1051B00008F1FF38239B169C146001335044072BE1
:1051C0002490C2F804A0239363DC0832049C3B784B
:1051D000A41B9C42A8BF1C46002C0ADD239B166022
:1051E00001332044072B2490546023935DDC3B78EB
:1051F0000832002CACBF1C1B1C46002C12DC1E44C9
:105200000B9BB8F1000FD0D1002B3ED11597DDE9F3
:105210000C73FB189E42B2469046054628BF9A463C
:10522000FFF7C2BA102CDDF88CC021DD07961025DF
:1052300063460E4604E0103C102C02F1080214DD17
:1052400001331030072BCDE92330C2E900B5F2DD80
:1052500022AA3146484603F091FB002858D1103C61
:10526000102CDDE9233025AAEADC3146079E9C4656
:105270000CF101032044072BCDE92330C2E900B42F
:1052800049DC3B7808321E44BAE70B9B013B0B9389
:1052900090E722AA4846079103F070FB079900287F
:1052A00040F03182249825AA90E722AA4846079127
:1052B00003F064FB0799002840F025823B7824988E
:1052C00025AA96E770C30008000030400000E03FC8
:1052D000A0C3000819EE101A22AA484603F04EFB9C
:1052E00000287FF450A91C9A249D0DF19408FFF723
:1052F00056BB029B039308900295DDE90E2303F150
:10530000004308EE903A2D2308EE102A189347E642
:10531000B346FFF7A7BA22AA4846079103F02EFB2F
:105320000799002840F0EF813B78249825AA1E4475
:1053300066E719EE101A22AA484603F01FFB002860
:105340007FF421A9249D0DF19408FFF71EBAD346DE
:10535000FFF788BA19EE101A22AA484603F00EFB8E
:1053600000287FF410A91C9B249D0DF19408FFF7E1
:1053700033BA20AA1DABCDE90032B0EE480AF0EEF8
:10538000680A049A1CAB0221484600F0B5FB472E80
:10539000074616D1039BDB0765D44722209B079263
:1053A000FFF79FBB20AA1DABCDE90032B0EE480A43
:1053B000F0EE680A049A1CAB0321484600F09CFBFF
:1053C0000746049B462E07EB03057FF480AB3B7832
:1053D000302B00F066811C9B1D44FFF778BB039BBC
:1053E0000C99049A03F00103002943EA020340F3F5
:1053F0007781002B40F038810C9B07936624039B38
:105400005A0500F10A81079B23EAE37303938AE6B6
:10541000049B9DF86B2003930793049009950B90D0
:1054200010900C90FEF7C6BD0D9B119A9A180C9B1C
:105430000792002B40F34B816724E0E719EE101A26
:1054400022AA484603F09AFA00287FF49CA81C9BE5
:105450000D9A249DD31A0DF19408FFF7D5B90023B6
:105460000493FEF710BC049BFD1847230793FFF736
:105470002EBB54421032DFF8E0A243DA524619EE56
:1054800010BABA461026174604E008F10808103C86
:10549000102C34DD01331035072BCDE92335C8E955
:1054A0000076F2DD22AA5946484603F067FA002842
:1054B0007FF4D8A9DDE923350DF19408E7E7DBF89F
:1054C0006430D80707D4BBF80C30990503D4DBF857
:1054D0005800FDF76BFE4FF0FF330593FFF7D3B98C
:1054E000591C4846FDF764FE0746002800F020815D
:1054F000089046E530238DF86C30782334E53A4641
:105500005746924601332544072BCDE92335C8E998
:1055100000A47FF75CAA19EE101A22AA484603F0ED
:105520002DFA00287FF42FA8DDE923350DF194082A
:10553000FFF73FB80C9B20930B9B16F8012CD97BEF
:105540008A42334609D1302003F8010C209B5A1EB1
:10555000209213F8012C9142F6D0392A0BBF0B9AF6
:105560000132927AD2B203F8012C91E5002B1A464F
:1055700008BF01220F9B0492029A002B42F480750F
:10558000FFF6B7AEDDE90EAB20AA1DABCDE90032C8
:105590004BEC10AB1CAB049ACDF860C0022148461E
:1055A000664600F0A9FA029B03934BEC18AB074642
:1055B00002950896EEE606230493FFF760BA1CA84E
:1055C000B0EE480AF0EE680A02F0BAFF00224FF08F
:1055D0007F5351EC100B04F02BFE00220023824677
:1055E0008B4605F08DF808B101231C93574B0B93A4
:1055F000F5E40C9B07938AE5002940F08780302270
:105600008DF87A200DF17B02303302F8013B1EAB9E
:10561000D31A1493FFF7C0BA672415990B78FF2BA0
:1056200000F0828000250C9A284603E00130013109
:10563000FF2B08D0934206DAD21A4B78002BF5D113
:105640000B780135F4E715910C9210900B950B9A9D
:10565000109B07991344179A02FB0313079323EA3D
:10566000E3730393FFF7B1BA119BCB181A44079267
:105670006624C4E619EE10BAFFF7F9B80F9B344F51
:10568000002BB4BF2D229DF86B20324BB8BF8DF894
:105690006B20FEF77FBC029B0393002308930292CA
:1056A0002BE651EC180B0022002305F029F8002806
:1056B0007FF491AE049BC3F101031C931D44FFF7DB
:1056C00006BA039BD9077FF572AAFFF76CBAC3F13C
:1056D00001031A4422EAE27307920393672422E546
:1056E00023B901230393079366241CE5119B049AB5
:1056F00001331A4422EAE27307920393662412E507
:105700004246FFF7B4BA8B46FFF7ACB80DF17A0208
:105710007AE7099B747853F8041B0993164641EA0B
:10572000E1720492FEF7AEBA00230B9310938EE75A
:1057300019EE10BABBF80C3043F04003ABF80C3054
:10574000FFF795B802231493FFF726BA5CC300084D
:1057500054C3000858C30008A0C3000830B4044C68
:105760000D46134601462A46206830BCFEF718BA9B
:1057700098000020F0B50C468989656EB4F80EC01B
:10578000E769ADF2744D21F002010646ADF8141040
:105790000020616A1B950B911CAD4FF4806108904D
:1057A00018A8CDE90032ADF816C00295069504910F
:1057B00007910997FDF7EAFCDDE9003202A93046BE
:1057C000FEF7EEF9051E07DB304602A901F030FABC
:1057D000002818BF4FF0FF35BDF814305B0603D525
:1057E000A38943F04003A3811898FDF7D3FC284612
:1057F0000DF2744DF0BD00BFF8B50D4614460646D7
:1058000010B1836B002B43D0B4F90C20A369A360C3
:10581000170790B21BD52369CBB1EDB281042F4697
:1058200022D522686169D31A994229DD0133A16822
:10583000501C0139A1602060157062699A422AD01B
:10584000A389DB0701D50A2D25D03846F8BD2146AE
:10585000304600F047F820BBB4F90C20236990B221
:10586000EDB281042F46DCD4616E42F4005221F483
:105870000051A281226861666169D31A9942D5DC20
:105880002146304601F0D4F958B922680123CEE709
:10589000FDF77EFBB8E72146304601F0C9F9002844
:1058A000D3D04FF0FF37D0E7024B0A4601461868C5
:1058B000FFF7A2BF9800002070B50C46084D1146B6
:1058C00000261A46034620462E601C46FCF7AEFF13
:1058D000431C00D070BD2B68002BFBD0236070BD33
:1058E0005C0B002038B5324B1B6805460C4613B1E3
:1058F0009A6B002A3CD0B4F90C3018079AB20CD538
:105900002169A9B112F0010022D06069002540424E
:10591000A061A56011B3002038BDD10640D5520763
:105920002AD4216943F00803A3819AB20029E9D15E
:1059300002F42070B0F5007FE4D02846214601F043
:1059400007FDB4F90C3021699AB212F00100DCD1E4
:10595000950758BF6069A0600029DCD1120658BFC6
:105960000846D9D543F04003A3814FF0FF3038BD3E
:105970001846FDF70DFBBEE7216B51B104F1400263
:10598000914204D0284601F0E3F9B4F90C3000222A
:105990002263216921600022626023F02403C1E7B1
:1059A00043F0400309222A604FF0FF30A38138BD45
:1059B0009800002038B5074D0022044608462A60AA
:1059C000FCF780FF431C00D038BD2B68002BFBD0B8
:1059D000236038BD5C0B00202DE9F04F03690E6990
:1059E000B34283B0C0F28280013E01F1140700F19E
:1059F000140A57F826305AF8262001338346B0009F
:105A000000909A420AEB860007EB86090190B2FBF0
:105A1000F3F836D300252A46BC4650465CF8044BC2
:105A200003681FFA84FE08FB0E554FEA154E240C3E
:105A300008FB04E4ADB2551BA2B2C2EB134215FA47
:105A400083F302EB23429BB243EA0243E14540F871
:105A5000043B4FEA14454FEA2242DFD2009B5AF83A
:105A6000033073B9019B043B9A4504D307E09A4580
:105A700006F1FF3603D253F80429002AF7D0CBF8F9
:105A80001060584602F0E0F800282BDB08F101080E
:105A90005046002357F8041B04688AB29A1A0B0C6C
:105AA00012FA84F2C3EB144303EB224392B242EAAC
:105AB0000342B94540F8042B4FEA2343EAD25AF88F
:105AC00026200AEB86036AB9043B9A4504D307E013
:105AD0009A4506F1FF3603D253F80429002AF7D07D
