:020000040800F2
:10000000000002203D2300083923000837230008A0
:1000100037230008372300083723000800000000BA
:10002000000000000000000000000000392300086C
:1000300039230008000000003923000829060008C1
:100040003723000837230008372300083723000828
:100050003723000837230008850F000837230008DE
:100060003723000837230008372300083723000808
:1000700037230008372300083723000837230008F8
:1000800037230008372300083723000837230008E8
:1000900037230008372300083723000869150008B4
:1000A00037230008372300083723000837230008C8
:1000B00037230008372300083723000837230008B8
:1000C00037230008372300083723000837230008A8
:1000D0003723000837230008372300083723000898
:1000E000C514000837230008372300083723000809
:1000F0003723000837230008372300083723000878
:100100003723000837230008372300083723000867
:1001100037230008372300083723000801070008A9
:100120003723000837230008372300083723000847
:100130003723000837230008372300083723000837
:100140003723000837230008372300083723000827
:100150003723000837230008372300083723000817
:100160003723000837230008372300083723000807
:1001700037230008372300083723000837230008F7
:1001800037230008372300083723000837230008E7
:1001900037230008372300083723000837230008D7
:1001A00037230008372300083723000808B540F23A
:1001B000036001F0B6FB344B1D785B7845EA0325FC
:1001C000284600F01FF9314B1A78587842EA00208F
:1001D00000F018F92E4B1A78587842EA002000F007
:1001E00011F92C4B1A78587842EA002000F00AF9ED
:1001F00001F04EF801F084F8274C204601F034F865
:1002000000F01AFA62B600F049FE204600F0ACFD9C
:1002100000231A460121204600F0D5FCC8212046C3
:1002200000F086FD204600F009FE284600F065F843
:10023000204601F0C3F80CE0174801F0ABF803E0EA
:100240000421154800F03FFF144A1378013B137056
:1002500030BF124B1B78002BFAD0114B1B78FF2BB1
:10026000EAD0104A13780133DBB213700E4A1278C9
:100270009342E5D39342E7D10A4B00221A70064815
:1002800001F088F8E0E700BF48260008442600088F
:10029000402600084C2600080400002042000020F0
:1002A00034000020300000200000002000B5864609
:1002B00000239C46184605E00022104380B20CF152
:1002C000010C01330F2B0DDC4EFA03F212F0010F7B
:1002D000F7D041FA0CF212F0010FEDD001229A4052
:1002E00012B2EAE75DF804FB012303FA00F070475D
:1002F00000F5801080308002704730B583B0ADF8D3
:1003000004009DF8045005F00F00FFF7F1FF0446CC
:100310002809FFF7E9FF81B2204601F04DFA03B04A
:1003200030BD30B583B0ADF804009DF8045005F041
:100330000F00FFF7DDFF04462809FFF7D5FF81B264
:10034000204601F037FA03B030BD30B583B0ADF8C8
:1003500004009DF8045005F00F00FFF7C9FF0446A4
:100360002809FFF7C1FF81B2204601F028FA03B047
:1003700030BD30B583B0ADF804009DF8053003F012
:1003800001038B420FD09DF8045005F00F00FFF7DA
:10039000AFFF04462809FFF7A7FF81B2204601F00E
:1003A00009FA03B030BD9DF8045005F00F00FFF7C7
:1003B0009FFF04462809FFF797FF81B2204601F00E
:1003C000FBF9EEE700B583B0ADF804009DF804003A
:1003D00000F00F00FFF78CFF01F0FAF903B05DF8B1
:1003E00004FB10B582B0ADF804000C469DF8040083
:1003F00000F00F00FFF77CFF214601F0F2F902B098
:1004000010BD0000F0B583B0ADF804009DF80430D5
:100410002C4A1278934229D02B4A1278934239D031
:100420002A4A1278934238D0294A1278934237D018
:10043000284A1278934236D0274A1278934235D010
:10044000264A1278934234D0254A1278934233D008
:10045000244A1278934232D0234A1278934202D02F
:100460000026012704E00026374601E00026012788
:100470009DF8045005F00F00FFF73AFF04462809E5
:10048000FFF732FF83B232463946204601F0B3F916
:1004900003B0F0BD00260127EAE700260127E7E7C1
:1004A00000260127E4E701260027E1E701260027CF
:1004B000DEE701260027DBE701260027D8E7012633
:1004C0000027D5E748260008442600084C260008E7
:1004D00040260008282600082C26000830260008A0
:1004E00034260008382600083C260008F0B583B002
:1004F000ADF80400032908D80C461546022A08D98D
:100500000198FFF77FFF03B0F0BD0198FFF77AFF76
:10051000F9E79DF8047007F00F00FFF7E9FE0646C3
:100520003809FFF7E1FE83B22A462146304601F042
:1005300062F9E8E7F0B583B0ADF804009DF8044037
:1005400004F00F00FFF7D4FE05462009FFF7CCFEAC
:1005500006460024274601E001370134092C14DC4B
:10056000284601F035F9304204D19DF8053013F0EA
:10057000010FF1D1284601F02BF93042EDD09DF862
:10058000053013F0010FE8D1E6E7042F0CDC002062
:1005900003B0F0BD284601F01BF9304211D09DF8A0
:1005A000053013F0010F0AD1284601F011F930424D
:1005B000F0D19DF8053013F0010FF5D1EAE70120E5
:1005C000E6E70120E4E730B583B002AB03E90300BE
:1005D000BDF8025011462846FFF768FEBDF80440FA
:1005E0004440A4B29DF8000000F00F00FFF780FE29
:1005F000436923EA05031C43446103B030BD000096
:1006000010B50146074C204601F0D1FA01212046E1
:1006100001F0BBFD01F0DDFF204601F07DFA30BFA7
:1006200010BD00BF00140040024A1368013313607C
:10063000704700BF3C00002008B501F018FF0420FF
:1006400001F0DAFE01F0FEFE4FF47A5001F0C2FE36
:100650004FF0E0234FF47A529A610221FF2001F01B
:100660008DFFFF2001F035FF024B00221A6001F0E0
:10067000F7FE08BD3C000020044B1B68184400E056
:1006800030BF024B1B688342FAD970473C00002000
:1006900010B540F6050001F044F90F4C0F2120463B
:1006A00001F081FA204601F000FA204601F016FA26
:1006B000204601F022FA0121204601F0BBF9012178
:1006C000204601F0D4F90221372001F057FF3720EE
:1006D00001F0FFFE10BD00BF0014004010B504463D
:1006E00005E04FF47A70FFF78BFFA4F57A74B4F548
:1006F0007A7FF6D204B910BDA0B2FFF781FFFAE706
:1007000008B50121014801F0B2F908BD001400400C
:10071000002834D038B50C46C3698569A3B1B3B19C
:10072000C5B1B4F57A7F04D31548A0FB0420800935
:1007300098471348A0FB043080094FF47A7303FBF9
:10074000104000B1A84738BD002DE8D1FBE7204696
:10075000A847F8E70A4AA2FB041292094FF47A71FB
:1007600001FB124232B10648A0FB0420800901308F
:100770009847E8E70248A0FB04208009F8E77047A3
:10078000D34D621010F0800F00F0168193386C2862
:1007900000F20F81DFE810F0FF0001010D010D01F3
:1007A0000D010D010D010D010D010D010D010D01D9
:1007B0000D010D010D010D010D010D0173000D0164
:1007C0000D0179000D01AF0003010D010D010D01B7
:1007D000830009010D018100CD00BD000D010D0157
:1007E0000B01C5000701C30005010D010D010D013D
:1007F000CF006D000F016F007100750077007B0066
:100800007D007F008500870089008B008D008F00B0
:10081000910093009500970099009B009D009F0018
:10082000A100A300A500A700A900AB00AD00B10086
:10083000B300B500B700B900BB00BF00C100C700DE
:10084000C900CB00D100D300D500D700D900DB0010
:10085000DD00DF00E100E300E500E700E900EB0078
:10086000ED00EF00F100F300F500F700F900FB00E8
:10087000FD004120704742207047A12070470420AE
:100880007047E020704745207047A2207047A320A2
:100890007047A4207047A520704749207047052065
:1008A0007047A62070474B207047A72070474D2007
:1008B0007047482070474F207047A820704750204D
:1008C00070474320704754207047A9207047AA20E2
:1008D000704758207047E1207047AB207047AC202C
:1008E0007047E2207047AD207047AE207047062069
:1008F0007047AF20704703207047B0207047B12089
:10090000704761207047B2207047B3207047B42011
:10091000704700207047E320704765207047012032
:100920007047B5207047B6207047B7207047B82091
:1009300070476920704702207047B9207047BA207D
:100940007047BB207047BC207047BD2070476F20A8
:100950007047BE2070477020704763207047BF20EB
:10096000704779207047E420704778207047E52071
:100970007047C0207047C1207047E6207047C220F2
:100980007047C3207047C4207047C5207047C620F9
:100990007047C7207047CA207047CB207047C820D7
:1009A0007047C9207047CC207047EF207047DF2088
:1009B0007047FF207047A0207047000038B5264BD5
:1009C0001D7805F00F00FFF793FC04462809FFF798
:1009D0008BFC83B200220121204600F00CFF1F4B4C
:1009E0001D7805F00F00FFF783FC04462809FFF788
:1009F0007BFC83B200220121204600F0FCFE184B54
:100A00001D7805F00F00FFF773FC04462809FFF777
:100A10006BFC83B200220121204600F0ECFE114B5A
:100A20001D7805F00F00FFF763FC04462809FFF767
:100A30005BFC83B200220121204600F0DCFE0A4C60
:100A4000207800F00F00FFF753FC6388002201219B
:100A500000F0D1FE38BD00BF502600086026000817
:100A6000642600085C2600085426000838B50446B1
:100A70000D4683681A785878012142EA0020FFF772
:100A800078FC2368197993F805C005F00F021868FF
:100A900041EA0C21FFF797FD01212046FFF738FEC0
:100AA000A3681A785878002142EA0020FFF761FC19
:100AB00001212046FFF72CFE38BD38B590F82030D4
:100AC00013F0010F00D138BD04460D460909FFF7A8
:100AD000CDFF05F00F012046FFF7C8FFF3E720B375
:100AE00070B515461E46044690F8283013F0010FE5
:100AF0001ED0C368A3B162681378507843EA00201F
:100B0000FFF737FCE26813785078294643EA002063
:100B1000FFF72FFC31782046FFF7CFFF002070BD94
:100B2000002AE8D06FF00200F9E74FF0FF3070477D
:100B30004FF0FF30F3E730B583B0044601238DF862
:100B400007300DF1070300221146FFF7C8FF0546E5
:100B500010B1284603B030BD40F2FA512046FFF7ED
:100B6000D7FDF6E730B583B0044602238DF8073091
:100B70000DF1070300221146FFF7B1FF054610B142
:100B8000284603B030BD40F2FA512046FFF7C0FDC1
:100B9000F6E730B583B00446490041F0040149B29C
:100BA00011438DF807100DF1070300221146FFF7DE
:100BB00096FF054610B1284603B030BD27212046D8
:100BC000FFF7A6FDF7E730B583B00446890041F092
:100BD000080149B241EA420149B219438DF80710B0
:100BE0000DF1070300221146FFF779FF054610B10A
:100BF000284603B030BD27212046FFF789FDF7E7DF
:100C000030B583B00446C90041F0100149B241EA51
:100C100082018DF807100DF1070300221146FFF73E
:100C20005EFF054610B1284603B030BD272120469F
:100C3000FFF76EFDF7E730B583B011F0800F1CD1E0
:100C4000044612B111F0C00F1AD17AB140231943F2
:100C50008DF807100DF10703002211462046FFF71B
:100C60003EFF054620B1284603B030BD8023EEE7A5
:100C700027212046FFF74CFDF5E76FF00305F2E76B
:100C80006FF00305EFE710B582B004468DF807104A
:100C90000DF1070300220121FFF721FF2B21204640
:100CA000FFF736FD02B010BD10B50446436A084692
:100CB000984701462046FFF7E6FF10BD10B50446F1
:100CC00043681A785878002142EA0020FFF751FB68
:100CD000E3681A785878002142EA0020FFF749FBC0
:100CE00003212046FFF7C2FE41F204012046FFF730
:100CF0000FFD02212046FFF7B9FE64212046FFF7D1
:100D000007FD02212046FFF7B1FE27212046FFF70D
:100D1000FFFC00231A4601212046FFF754FF20461E
:100D2000FFF709FF002201212046FFF732FF10BD27
:100D300098B108B543691BB108469847002008BD23
:100D400003696BB11A785878003918BF012142EA5B
:100D50000020FFF70EFB0020F1E76FF00300704763
:100D60006FF00300EBE7000020B308B5034602680C
:100D70001AB3426822B382682AB382698AB193F8AF
:100D8000202012F0010F21D05A6A82B193F8282056
:100D900042F0010283F828201846FFF78FFF002059
:100DA00008BDC269002AEAD16FF00400F8E7094AD9
:100DB0005A62EBE76FF0030070476FF00400EFE753
:100DC0006FF00400ECE76FF00400E9E76FF001005A
:100DD000E6E700BF850700087047000070B590B0D7
:100DE00006466C46144D0FCD0FC40FCD0FC40FCD6A
:100DF0000FC495E80F0084E80F000122002130465F
:100E0000FFF719FF00250CE010AB03EBC5032344EB
:100E100013F8401C3046FFF736FF0134072CF3DD92
:100E20000135072D01DC0024F8E700221146304689
:100E3000FFF701FF10B070BD6C26000870B590B0D0
:100E400006466C46144D0FCD0FC40FCD0FC40FCD09
:100E50000FC495E80F0084E80F00012200213046FE
:100E6000FFF7E9FE00250CE010AB03EBC5032344BC
:100E700013F8401C3046FFF706FF0134072CF3DD62
:100E80000135072D01DC0024F8E700221146304629
:100E9000FFF7D1FE10B070BDAC26000810B50B21D5
:100EA000062001F06BFB4FF4C06000F03AFD2F4CC0
:100EB000012300221146204600F09DFC40F68E00E2
:100EC00000F02FFD2146012000F0FEFB0021012053
:100ED00000F0A0FB012000F0CBFB012000F0E6FBBE
:100EE000062001F0F6FA04F580544FF40073022254
:100EF0000021204600F0A5FC4FF40072012120469D
:100F000000F0C5FC4FF4007300220221204600F0DF
:100F100072FC4FF4086000F004FDA4F5883400234F
:100F20001A461946204600F0A5FD3E21204600F055
:100F30003AFE204600F0B4FDFF21204600F037FEC7
:100F400006220021204600F0A4FE0021204601F0E8
:100F50001CF8204601F0D5F800221146204601F089
:100F6000C0F8204600F0D8FD10BD00BF00000240D0
:100F700008B502460021024801F0B3F808BD00BFE1
:100F80000000014010B5074C21780139C9B206486C
:100F9000FFF7CEFE237810332370012000F086FB8C
:100FA00010BD00BF4000002004000020682A3AD095
:100FB00070B584B006460D46622A32D019B10029B8
:100FC00005DB00241AE03021FFF76EFE29E02D2119
:100FD000FFF76AFE6D42F4E7134A82FB0532EB1716
:100FE000C3EBA2031A4603EB8303A5EB43033033A1
:100FF00004A9214401F8103C15460134002DEBDC16
:1010000004AB2344002203F8102C013C07E004AB9E
:10101000234413F8101C3046FFF746FE013C002C19
:10102000F5DA04B070BD70476766666600B583B0D8
:1010300001900C4B1B7863B90022402101A8FFF7F7
:10104000FAFD084A1378C3F10103137003B05DF889
:1010500004FB4FF47A70FFF70FFB01A8FFF76BFD5D
:10106000EFE700BF410000200EB478B50646059DAD
:10107000002413E03046FFF7D9FF0BE02021304673
:10108000FFF712FE20213046FFF70EFE02E0304649
:10109000FFF768FD013501340F2C0BDC297871B1A5
:1010A0000A29E7D00929E9D00D29F0D03046FFF709
:1010B000FBFDEFE73046FFF7B9FF0024EEE7BDE8A0
:1010C000784003B0704708B54B1E062B05D8DFE803
:1010D00003F005050505050505000021FFF7D3FD13
:1010E00008BD000070B506460D4600224021FFF7FE
:1010F000A2FD23493046FFF7B7FF3B2D27D9B5F5B1
:10110000167F29D230213046FFF7CEFD1D49A1FBC5
:101110000531002249093046FFF748FF3A213046A1
:10112000FFF7C2FD174CA4FB05346409C4EB04149B
:10113000B5EB840419D0092C1CD830213046FFF7B8
:10114000B3FD002221463046FFF730FF70BD30214D
:101150003046FFF7A9FDE1E70A49A1FB053100226E
:1011600049093046FFF722FFD8E730213046FFF724
:101170009BFDEBE7002221463046FFF717FFE5E72E
:10118000EC2600088988888808B50821282001F005
:10119000F5F914494FF4004000F096FA01214FF49C
:1011A000004000F037FA4FF4004000F061FA4FF4CD
:1011B000004000F07BFA0C494FF4006000F084FA24
:1011C00001214FF4006000F025FA4FF4006000F0B8
:1011D0004FFA4FF4006000F069FA282001F079F925
:1011E00008BD00BF000002400008024010B5082101
:1011F000172001F0C3F91B4C2146402000F064FA8F
:101200000121402000F006FA402000F031FA402091
:1012100000F04CFA21464FF4807000F055FA01219D
:101220004FF4807000F0F6F94FF4807000F020FA6F
:101230004FF4807000F03AFA21464FF4007000F04D
:1012400043FA01214FF4007000F0E4F94FF400700C
:1012500000F00EFA4FF4007000F028FA172001F0A9
:1012600038F910BD0008024008B540F2046000F0F3
:1012700058FBFFF7A3FB054B197993F805C0002233
:10128000186841EA0C21FFF79EF908BD54260008B2
:1012900008B54FF4C06000F044FB40F2026000F07B
:1012A00040FB124B1A78587842EA0020FFF7AAF860
:1012B0000F4B1A78587842EA0020FFF7A3F80D4B3D
:1012C0001A78587842EA0020FFF79CF80A4B1A78FF
:1012D000587842EA0020FFF795F8084B1A785878BA
:1012E00042EA0020FFF78EF808BD00BF282600085C
:1012F0002C2600083026000834260008382600086E
:1013000008B54FF4A06001F0DBF840F68E0000F065
:1013100008FBFFF739FFFFF769FF08BD70B5054609
:10132000002609E020212846FFF7BEFC0134E4B284
:101330000F2CF7D90136F6B2012E08D8B1010022E0
:1013400001F0C0012846FFF776FC0024F0E770BDED
:1013500038B505460C46FFF7E1FF00221146284646
:10136000FFF769FC05212846FFF7ADFE084928462E
:10137000FFF77AFE08E021462846FFF7B3FE4FF458
:101380007A70FFF779F9013C002CF4DA38BD00BF20
:10139000F026000810B50446FFF7C0FF00221146F2
:1013A0002046FFF748FC06212046FFF78CFE024945
:1013B0002046FFF759FE10BD0027000838B5054646
:1013C000FFF7ACFF002211462846FFF734FC052149
:1013D0002846FFF778FE11492846FFF745FE002210
:1013E00040212846FFF727FC0D492846FFF73CFE21
:1013F000002405E00B492846FFF736FE0134E4B22D
:10140000094B1B78A342F5D8002240212846FFF75C
:1014100012FC03492846FFF727FE38BD0C270008B9
:10142000182700081C27000800000020F0B583B032
:10143000ADF804009DF8040000F00F00FEF758FF1F
:1014400005469DF804000009FEF74EFF06460024FD
:10145000274601E001370134092C14DC284600F04E
:10146000B7F9304204D19DF8053013F0010FF1D1E6
:10147000284600F0ADF93042EDD09DF8053013F06C
:10148000010FE8D1E6E7042F0CDC002003B0F0BD2B
:10149000284600F09DF9304211D09DF8053013F038
:1014A000010F0AD1284600F093F93042F0D19DF89F
:1014B000053013F0010FF5D1EAE70120E6E701203E
:1014C000E4E7000010B54FF4006000F0F5F8F8B163
:1014D000204B1A78587842EA0020FFF7A7FF20B97E
:1014E0004FF4006000F0E2F810BD1B4B1C785B78F5
:1014F00044EA03242046FEF728FF184A13781849C7
:101500000220C854013313702046FEF71EFFE7E7A0
:101510004FF4004000F0D0F80028E5D0114B1A78C5
:10152000587842EA0020FFF781FF20B94FF40040CD
:1015300000F0BCF8D8E70A4BFF221A70074B0122D3
:101540001A70054B1A78587842EA0020FEF7FDFE23
:10155000ECE700BF282600084426000842000020CF
:10156000340000202C26000808B5402000F0A4F824
:1015700090B1234B1A78587842EA0020FFF756FFC3
:1015800030B1204A137820490020C8540133137029
:10159000402000F08BF808BD4FF4807000F08CF80C
:1015A00098B11A4B1A78587842EA0020FFF73EFFAC
:1015B00030B1144A137814490120C85403441370FD
:1015C0004FF4807000F072F8E5E74FF4007000F01F
:1015D00073F80028DFD00E4B1A78587842EA0020C2
:1015E000FFF724FF30B1074A137807490320C85496
:1015F000013313704FF4007000F058F8CBE700BFD0
:10160000342600084200002034000020382600085C
:1016100030260008012910D002291BD001B17047E3
:10162000124BD3F8082C0243C3F8082CD3F80C2C27
:1016300022EA0000C3F80C0C70470C4BD3F8082CBE
:1016400022EA0002C3F8082CD3F80C2C1043C3F88C
:101650000C0C7047054BD3F8082C0243C3F8082C38
:10166000D3F80C2C1043C3F80C0CD8E70030014021
:10167000054BD3F8002C0243C3F8002CD3F8042CFC
:101680001043C3F8040C704700300140064BD3F8F8
:10169000001C21EA0001C3F8001CD3F8042C22EA44
:1016A0000002C3F8042C704700300140014BC3F81E
:1016B000140C704700300140024BD3F8143C184022
:1016C000704700BF0030014000225FE0A3F50063D7
:1016D000994249D003F58063994247D1022302F031
:1016E000030E4FEA8E0E0F2404FA0EF52C4C04EB79
:1016F000920C4FEA8C0CDCF8004024EA050403FA53
:101700000EF32343CCF8003001320F2A3CD80123DA
:1017100093400342F8D0234B994221D00DD8A3F532
:10172000406399421ED0D1D91F4B994220D003F576
:10173000806399421ED10523D1E71C4B99421BD0EF
:1017400004D91B4B99421DD10A23C8E7A3F50063B6
:10175000994213D003F58063994211D10823BEE763
:101760000623BCE70323BAE70123B8E70023B6E763
:101770000423B4E70023B2E70923B0E70723AEE769
:101780000023ACE70023AAE730BD01320F2A05D8B9
:10179000012393400342F8D030B5BCE7704700BF47
:1017A000024E0010001802400010024000240240C7
:1017B00000280240816170470904816170474369D4
:1017C00001EA030221EA030141EA02418161704713
:1017D000006980B2704710B50C46FFF7F9FF204052
:1017E00010BD4161704741F48033C361C161C36181
:1017F000C369C3697047F0B50668C5684FF0000C4F
:1018000003E00CF1010C1FFA8CFCBCF10F0F15D892
:1018100043FA0CF414F0010FF3D04FEA4C0E0324FA
:1018200004FA0EF426EA040601FA0EF73E4325EA0E
:10183000040502FA0EFE4EEA0505E2E70660C56001
:10184000F0BD10B5012906D0416821EA03014160CD
:101850008468002105E0416819434160F8E70131DF
:1018600089B20F2911D843FA01FC1CF0010FF6D000
:101870004FEA410C4FF0030E0EFA0CFE24EA0E0460
:1018800002FA0CFC4CEA0404E9E7846010BD30B5B0
:10189000046A456A00230DE04FEA830E4FF00F0CF7
:1018A0000CFA0EFC24EA0C0401FA0EFE4EEA0404C3
:1018B00001339BB2072B05D842FA03FC1CF0010F41
:1018C000EAD1F5E708230FE0A3F1080C4FEA8C0CEE
:1018D0004FF00F0E0EFA0CFE25EA0E0E01FA0CFC6C
:1018E0004CEA0E0501339BB20F2B05D842FA03FCDC
:1018F0001CF0010FE8D1F5E70462456230BD0368D2
:101900000B4303607047036823EA010303607047D9
:1019100003680B4303607047036823EA0103036015
:101920007047430903F1804303F50E331A6800F052
:101930001F00012101FA00F01043186070474309AD
:1019400003F1804303F50E331A6800F01F000121F4
:1019500001FA00F022EA000018607047430903F121
:10196000804303F50E33196800F01F00012202FACC
:1019700000F0014319601A6822EA000018607047FD
:10198000430903F1804303F50E331A6800F01F008A
:10199000012101FA00F0104318607047430903F178
:1019A000804303F50E331A6800F01F00012101FA8D
:1019B00000F022EA0000186070470000044AD2F8E4
:1019C000083823F4C00343EA4053C2F8083870478C
:1019D00000300240032802D0052808D07047084A8A
:1019E000D2F8003843F48023C2F800387047044A24
:1019F000D2F8703843F00403C2F87038704700BF63
:101A000000300240032802D0052808D07047084A59
:101A1000D2F8003823F48023C2F800387047044A13
:101A2000D2F8703823F00403C2F87038704700BF52
:101A300000300240C3680B43C3607047C36823EAA9
:101A40000103C36070470369C26813400B4203D0AF
:101A5000802903D80120704700207047002070477C
:101A600003690B4201D10020704701207047C94330
:101A70000161704710B4046824F45C7C114319437D
:101A800041EA0C0101605DF8044B704701F44073BA
:101A9000026822F4407202600168194301607047D5
:101AA000036843F0800303607047036823F08003FA
:101AB0000360704701F06003026822F06002026078
:101AC0000168194301607047036823F01003036045
:101AD0007047036843F0100303607047036843F0E6
:101AE000080303607047036823F00803036070472E
:101AF000036823F0040303607047036843F00403A2
:101B000003607047036823F00203036070470368B3
:101B100043F0020303607047036843F0010303606E
:101B20007047036823F0010303607047436801F4C2
:101B3000FE410B4343607047436801F4FE4123EAD2
:101B4000010343607047436843F08003436070477C
:101B5000436823F0800343607047426822F07002BC
:101B6000426043680B4343607047436823F00803B7
:101B700043607047436843F008034360704743681D
:101B800043F0040343607047436823F00403436059
:101B90007047436843F0010343607047436823F094
:101BA0000103436070478162704701637047C162FF
:101BB0007047062918D8DFE801F0041709170E1737
:101BC0001300836943F0800383617047836943F4A2
:101BD000004383617047C36943F08003C36170476A
:101BE000C36943F40043C3617047062918D8DFE88E
:101BF00001F0041709170E171300836923F08003FF
:101C000083617047836923F4004383617047C3692C
:101C100023F08003C3617047C36923F40043C361A9
:101C20007047062918D8DFE801F0041709170E17C6
:101C30001300836943F0040383617047836943F4AD
:101C4000806383617047C36943F00403C3617047D5
:101C5000C36943F48063C3617047062918D8DFE87D
:101C600001F0041709170E171300836923F004030A
:101C700083617047836923F4806383617047C3691C
:101C800023F00403C3617047C36923F48063C36115
:101C90007047062900F2EA80DFE811F00700E8004B
:101CA0004000E8007900E800B100836923F00303F5
:101CB000836183698361836923F070038361072AE9
:101CC00000F2D480DFE802F004070C11161B202577
:101CD000836983617047836943F0100383617047B0
:101CE000836943F0200383617047836943F03003C5
:101CF00083617047836943F0400383617047836960
:101D000043F0500383617047836943F0600383614C
:101D10007047836943F0700383617047836923F4DC
:101D20004073836183698361836923F4E043836142
:101D3000072A00F29B80DFE802F004070C11161B53
:101D40002025836983617047836943F480538361ED
:101D50007047836943F4005383617047836943F498
:101D6000405383617047836943F4804383617047C4
:101D7000836943F4A04383617047836943F4C0439C
:101D800083617047836943F4E04383617047C369AB
:101D900023F00303C361C369C361C36923F0700304
:101DA000C361072A62D8DFE802F004070C11161B92
:101DB0002025C369C3617047C36943F01003C36141
:101DC0007047C36943F02003C3617047C36943F0A0
:101DD0003003C3617047C36943F04003C361704778
:101DE000C36943F05003C3617047C36943F06003A4
:101DF000C3617047C36943F07003C3617047C3692F
:101E000023F44073C361C369C361C36923F4E0432E
:101E1000C361072A2AD8DFE802F004070C11161B59
:101E20002025C369C3617047C36943F48053C3610C
:101E30007047C36943F40053C3617047C36943F4F7
:101E40004053C3617047C36943F48043C361704723
:101E5000C36943F4A043C3617047C36943F4C043FB
:101E6000C3617047C36943F4E043C3617047062907
:101E700018D8DFE801F0041709170E17130083695B
:101E800043F0080383617047836943F4006383610F
:101E90007047C36943F00803C3617047C36943F4E3
:101EA0000063C3617047062918D8DFE801F0041702
:101EB00009170E171300836923F008038361704725
:101EC000836923F4006383617047C36923F00803C7
:101ED000C3617047C36923F40063C3617047062977
:101EE00027D8DFE801F00418091D0E221300036A49
:101EF00023F0020303627047036A23F020030362A6
:101F00007047036A23F4007303627047036A23F483
:101F1000005303627047036A23F0080303627047AB
:101F2000036A23F0800303627047036A23F40063AB
:101F300003627047062927D8DFE801F00418091D5D
:101F40000E221300036A43F0020303627047036A20
:101F500043F0200303627047036A43F40073036293
:101F60007047036A43F4005303627047036A43F007
:101F7000080303627047036A43F0800303627047FB
:101F8000036A43F4006303627047062927D8DFE839
:101F900001F00418091D0E221300036A43F0010327
:101FA00003627047036A43F0100303627047036AD9
:101FB00043F4807303627047036A43F480530362FF
:101FC0007047036A43F0040303627047036A43F0F7
:101FD000400303627047036A43F4806303627047FF
:101FE000062927D8DFE801F00418091D0E22130086
:101FF000036A23F0010303627047036A23F01003AE
:1020000003627047036A23F4807303627047036AB4
:1020100023F4805303627047036A23F004030362CE
:102020007047036A23F0400303627047036A23F496
:10203000806303627047062927D8DFE801F00409AE
:102040000E13181D2200436843F4807343607047E9
:10205000436843F4007343607047436843F480630C
:1020600043607047436843F40063436070474368CC
:1020700043F4805343607047436843F40053436024
:102080007047436843F4804343607047062927D86C
:10209000DFE801F004090E13181D2200436823F441
:1020A000807343607047436823F400734360704754
:1020B000436823F4806343607047436823F40063FC
:1020C00043607047436823F480534360704743681C
:1020D00023F4005343607047436823F48043436014
:1020E000704706290CD8DFE801F0040B060B080B3B
:1020F0000A004263704782637047C263704702649C
:102100007047436C43F4004343647047436C23F4CB
:10211000004343647047436C43F480434364704717
:10212000436C23F4804343647047436C43F400538F
:1021300043647047436C23F4005343647047436C1B
:1021400043F4805343647047436C23F480534364E7
:102150007047436C43F4006343647047436C23F45B
:10216000006343647047436C43F480634364704787
:10217000436C23F4806343647047436C0B434364B4
:102180007047436C0B434364704743690B4343619F
:102190007047406A704741627047032926D8DFE8DC
:1021A00001F0020B141D836923F0F003836183693E
:1021B00043EA021282617047836923F470438361AA
:1021C000836943EA023282617047C36923F0F003F6
:1021D000C361C36943EA0212C2617047C36923F451
:1021E0007043C361C36943EA0232C2617047032985
:1021F00026D8DFE801F0020B141D836923F00C03DD
:102200008361836943EA820282617047836923F4B0
:1022100040638361836943EA822282617047C369B4
:1022200023F00C03C361C36943EA8202C2617047B1
:10223000C36923F44063C361C36943EA8222C26174
:10224000704702F00302012907D0032905D00329B2
:102250002BD8DFE801F009111A22531EDBB2012B43
:10226000F5D882F00302F2E7836923F00303836168
:1022700083691A4382617047836923F440738361E1
:10228000836943EA022282617047C36923F0030332
:10229000C361C3691A43C2617047C36923F44073C1
:1022A000C361C36943EA0222C2617047036A8A00BC
:1022B000012191400B4303627047036A8A000121A8
:1022C000914023EA010303627047826822F470623E
:1022D0008260836843EA012383607047826822F446
:1022E00040528260836843EA01338360704721B1C2
:1022F000836843F4004383607047836823F400439A
:1023000083607047836823F0070383608368194301
:1023100081607047836823F070038360836819438A
:10232000816070474FF0E022D2F8883D43F470039B
:10233000C2F8883D7047FEE77047000010B51B4BA0
:102340001B4903E051F8042B43F8042B194A93422C
:10235000F8D302E0002243F8042B174A9342F9D342
:102360004FF0E022D2F8143D43F40073C2F8143D5C
:10237000FFF7D8FF114C02E054F8043B9847104B8C
:102380009C42F9D30F4C02E054F8043B98470E4BA3
:102390009C42F9D3FDF70AFF0C4C02E054F8043BD1
:1023A00098470B4B9C42F9D310BD00BF00000020A2
:1023B00020270008300000204400002020270008CB
:1023C00020270008202700082027000820270008D1
:1023D0002027000820F07F404FF0E023586170472D
:1023E0004FF0E023586920F07F4070474FF0E02322
:1023F000986920F07F4070474FF0E022136923F086
:10240000040300F0040003431361704710B5B1FBEF
:10241000F0F40B4B9C4210D86FF07F439C4208D3E2
:10242000E4080020FFF7E8FF601EFFF7D3FF01205C
:1024300010BD0420FFF7E0FFF6E70020F8E700BF3B
:10244000F7FFFF074FF0E022136943F00203136127
:1024500070474FF0E022136923F0020313617047C5
:102460004FF0E022136943F00103136170474FF00E
:10247000E022136923F00103136170474FF0E0235A
:102480001869C0F3004070474FF0E02300229A61C2
:1024900070474FF0E023D86920F07F40704700007C
:1024A0004FF0E023014AC3F80C2DFEE70100FA05C6
:1024B0004FF0E023014AC3F80C2DFEE70400FA05B3
:1024C00040F0BF6040F400304FF0E023C3F80C0D43
:1024D000704700F01F0143099B0003F1604303F5BF
:1024E000614301228A401A607047000000F01F0219
:1024F000400901239340024A42F82030704700BF50
:1025000080E100E043099B0003F1604303F562436F
:102510001A6800F01F00012303FA00F0024214BF02
:1025200018460020704700F01F0143099B0003F18B
:10253000604303F5624301228A401A60704700003D
:1025400000F01F02400901239340024A42F8203064
:10255000704700BF80E200E043099B0003F1604345
:1025600003F561431A6800F01F00012303FA00F02D
:10257000024214BF18460020704700005A2804D9B0
:1025800000F00F00044BC154704700F1604000F5AB
:1025900064400170704700BF14ED00E043099B00E8
:1025A00003F1604303F563431A6800F01F00012341
:1025B00003FA00F0024214BF184600207047EF28CB
:1025C00006D84FF0E023D3F8002F1043C3F8000FD4
:1025D0007047BFF35F8F704750E8000F704741E8C6
:1025E00000031846704710B50446FFF7F5FF30B1F9
:1025F0000124FFF7EEFFB4FA84F0400910BD214634
:102600000120FFF7ECFF0446F3E710B5044620462F
:10261000FFF7E9FF0028FAD010BD10B50446FFF718
:10262000D8FF0023236010BDB2010000F0010000BC
:102630009201000062010000820100000000000021
:10264000F3000000C3000000D3000000E30000001E
:1026500094000000040000F000000000B40000003E
:1026600074000000A4000000E803000000011F1037
:102670001010100000000E101C110E00000A0004C3
:10268000040404000E11101C10110E00011F101084
:10269000101010000A040404040404001010101E9A
:1026A00011111E00001B1F1F0E0E0400040E1F043C
:1026B00004040400040404041F0E04000004061FA4
:1026C0000604000000040C1F0C040000000E1F1F75
:1026D0001F0E0000000E11111F1F1F000E1111010F
:1026E0001F1F1F0000110A040A1100000909090038
:1026F000204163636573732064656E6965640000DF
:102700002057656C636F6D65000000002050617399
:1027100073776F72643A0000090000005F000000E8
:102720000400000054260008602600085C2600080B
:102730006426000800000000710F0008000000007F
:102740007906000801000000D90D00080000000013
:040000050800233D8F
:00000001FF
