:020000040800F2
:1000000000000220813200087D3200087B320008A7
:100010007B3200087B3200087B32000800000000C1
:100020000000000000000000000000007D32000819
:100030007D320008000000007D3200082106000823
:100040007B3200087B3200087B3200087B320008DC
:100050007B3200087B3200087D0F00087B320008ED
:100060007B3200087B3200087B3200087B320008BC
:100070007B3200087B3200087B3200087B320008AC
:100080007B3200087B3200087B3200087B3200089C
:100090007B3200087B3200087B320008951A00088A
:1000A0007B3200087B3200087B3200087B3200087C
:1000B0007B3200087B3200087B3200087B3200086C
:1000C0007B3200087B3200087B3200087B3200085C
:1000D0007B3200087B3200087B3200087B3200084C
:1000E000311A00087B3200087B3200087B3200089E
:1000F0007B3200087B3200087B3200087B3200082C
:100100007B3200087B3200087B3200087B3200081B
:100110007B3200087B3200087B320008F9060008B9
:100120007B3200087B3200087B3200087B320008FB
:100130007B3200087B3200087B3200087B320008EB
:100140007B3200087B3200087B3200087B320008DB
:100150007B3200087B3200087B3200087B320008CB
:100160007B3200087B3200087B3200087B320008BB
:100170007B3200087B3200087B3200087B320008AB
:100180007B3200087B3200087B3200087B3200089B
:100190007B3200087B3200087B3200087B3200088B
:1001A0007B3200087B3200087B32000800B585B046
:1001B00040F2036002F057FB314B1C785B7844EA55
:1001C0000324204600F01AF9204600F0A6F801F0BA
:1001D00023FB01F059FB2B4D284601F009FB00F0F1
:1001E00027FA62B600F056FE284600F0B9FD00235B
:1001F0001A460121284600F0E2FCC821284600F0FA
:1002000093FD284600F016FE1F4B1D785B7845EAEB
:100210000325284600F0F2F8284600F06AF801F0BD
:1002200083F81A4B0A221A6001F0A2F8204600F067
:1002300060F804E0164B1978124802F007F830BF56
:10024000144C01230093144B227802A90D4801F0AD
:1002500005FF227802A9114801F0EAFE0028E9D141
:100260000C4B1A7802A90E4801F0E2FE18B10548BD
:1002700001F0A4FEE3E7034801F074FFDFE700BFED
:100280003436000848000020303600081C000020EA
:100290000C00002018000020083600081000002084
:1002A0008000002000B5864600239C46184605E0E5
:1002B0000022104380B20CF1010C01330F2B0DDC36
:1002C0004EFA03F212F0010FF7D041FA0CF212F0DD
:1002D000010FEDD001229A4012B2EAE75DF804FB6B
:1002E000012303FA00F0704700F58010803080028F
:1002F000704730B583B0ADF804009DF8045005F0A8
:100300000F00FFF7F1FF04462809FFF7E9FF81B26C
:10031000204602F0F3F903B030BD30B583B0ADF83C
:1003200004009DF8045005F00F00FFF7DDFF0446C0
:100330002809FFF7D5FF81B2204602F0DDF903B0AE
:1003400030BD30B583B0ADF804009DF8045005F021
:100350000F00FFF7C9FF04462809FFF7C1FF81B26C
:10036000204602F0CEF903B030BD30B583B0ADF811
:1003700004009DF8053003F001038B420FD09DF877
:10038000045005F00F00FFF7AFFF04462809FFF700
:10039000A7FF81B2204602F0AFF903B030BD9DF84F
:1003A000045005F00F00FFF79FFF04462809FFF7F0
:1003B00097FF81B2204602F0A1F9EEE700B583B0C5
:1003C000ADF804009DF8040000F00F00FFF78CFF6B
:1003D00002F0A0F903B05DF804FB10B582B0ADF8EF
:1003E00004000C469DF8040000F00F00FFF77CFFAE
:1003F000214602F098F902B010BD0000F0B583B0BC
:10040000ADF804009DF804302C4A1278934229D0AC
:100410002B4A1278934239D02A4A1278934238D024
:10042000294A1278934237D0284A1278934236D01C
:10043000274A1278934235D0264A1278934234D014
:10044000254A1278934233D0244A1278934232D00C
:10045000234A1278934202D00026012704E00026A6
:10046000374601E0002601279DF8045005F00F00F3
:10047000FFF73AFF04462809FFF732FF83B23246FE
:100480003946204602F059F903B0F0BD0026012795
:10049000EAE700260127E7E700260127E4E701262F
:1004A0000027E1E701260027DEE701260027DBE73A
:1004B00001260027D8E701260027D5E734360008B3
:1004C00030360008383600082C360008143600088C
:1004D000183600081C3600082036000824360008AC
:1004E00028360008F0B583B0ADF80400032908D819
:1004F0000C461546022A08D90198FFF77FFF03B082
:10050000F0BD0198FFF77AFFF9E79DF8047007F056
:100510000F00FFF7E9FE06463809FFF7E1FE83B258
:100520002A462146304602F008F9E8E7F0B583B0E4
:10053000ADF804009DF8044004F00F00FFF7D4FE6E
:1005400005462009FFF7CCFE06460024274601E0B9
:1005500001370134092C14DC284602F0DBF8304264
:1005600004D19DF8053013F0010FF1D1284602F0B7
:10057000D1F83042EDD09DF8053013F0010FE8D1ED
:10058000E6E7042F0CDC002003B0F0BD284602F0A3
:10059000C1F8304211D09DF8053013F0010F0AD197
:1005A000284602F0B7F83042F0D19DF8053013F03C
:1005B000010FF5D1EAE70120E6E70120E4E730B5D5
:1005C00083B002AB03E90300BDF802501146284690
:1005D000FFF768FEBDF804404440A4B29DF8000057
:1005E00000F00F00FFF780FE436923EA05031C4378
:1005F000446103B030BD000010B50146074C2046F1
:1006000002F077FA0121204602F061FD02F083FF3B
:10061000204602F023FA30BF10BD00BF0014004096
:10062000024A136801331360704700BF880000203E
:1006300008B502F0BEFE042002F080FE02F0A4FE27
:100640004FF47A5002F068FE4FF0E0234FF47A52F4
:100650009A610221FF2002F033FFFF2002F0DBFE4F
:10066000024B00221A6002F09DFE08BD88000020A7
:10067000044B1B68184400E030BF024B1B688342E8
:10068000FAD970478800002010B540F6050002F046
:10069000EAF80F4C0F21204602F027FA204602F01C
:1006A000A6F9204602F0BCF9204602F0C8F9012163
:1006B000204602F061F90121204602F07AF9022178
:1006C000372002F0FDFE372002F0A5FE10BD00BF6E
:1006D0000014004010B5044605E04FF47A70FFF7AF
:1006E0008BFFA4F57A74B4F57A7FF6D204B910BD05
:1006F000A0B2FFF781FFFAE708B50121014802F037
:1007000058F908BD00140040002834D038B50C4614
:10071000C3698569A3B1B3B1C5B1B4F57A7F04D318
:100720001548A0FB0420800998471348A0FB04301B
:1007300080094FF47A7303FB104000B1A84738BD1D
:10074000002DE8D1FBE72046A847F8E70A4AA2FBBC
:10075000041292094FF47A7101FB124232B1064839
:10076000A0FB0420800901309847E8E70248A0FB7D
:1007700004208009F8E77047D34D621010F0800F15
:1007800000F0168193386C2800F20F81DFE810F03A
:10079000FF0001010D010D010D010D010D010D0104
:1007A0000D010D010D010D010D010D010D010D01D9
:1007B0000D010D0173000D010D0179000D01AF0058
:1007C00003010D010D010D01830009010D018100DF
:1007D000CD00BD000D010D010B01C5000701C300D7
:1007E00005010D010D010D01CF006D000F016F001E
:1007F0007100750077007B007D007F008500870019
:1008000089008B008D008F00910093009500970068
:1008100099009B009D009F00A100A300A500A700D8
:10082000A900AB00AD00B100B300B500B700B9003E
:10083000BB00BF00C100C700C900CB00D100D3007E
:10084000D500D700D900DB00DD00DF00E100E300C8
:10085000E500E700E900EB00ED00EF00F100F30038
:10086000F500F700F900FB00FD0041207047422031
:100870007047A120704704207047E0207047452052
:100880007047A2207047A3207047A4207047A5207E
:1008900070474920704705207047A62070474B20BD
:1008A0007047A72070474D207047482070474F2061
:1008B0007047A8207047502070474320704754204D
:1008C0007047A9207047AA20704758207047E12040
:1008D0007047AB207047AC207047E2207047AD20D6
:1008E0007047AE20704706207047AF207047032046
:1008F0007047B0207047B120704761207047B22028
:100900007047B3207047B420704700207047E32041
:1009100070476520704701207047B5207047B620AA
:100920007047B7207047B820704769207047022091
:100930007047B9207047BA207047BB207047BC2071
:100940007047BD2070476F207047BE2070477020F1
:10095000704763207047BF20704779207047E420BC
:10096000704778207047E5207047C0207047C1204D
:100970007047E6207047C2207047C3207047C420EC
:100980007047C5207047C6207047C7207047CA20EF
:100990007047CB207047C8207047C9207047CC20D3
:1009A0007047EF207047DF207047FF207047A0207E
:1009B0007047000038B5264B1D7805F00F00FFF793
:1009C00093FC04462809FFF78BFC83B20022012127
:1009D000204601F0B2FE1F4B1D7805F00F00FFF717
:1009E00083FC04462809FFF77BFC83B20022012127
:1009F000204601F0A2FE184B1D7805F00F00FFF70E
:100A000073FC04462809FFF76BFC83B20022012126
:100A1000204601F092FE114B1D7805F00F00FFF704
:100A200063FC04462809FFF75BFC83B20022012126
:100A3000204601F082FE0A4C207800F00F00FFF7FC
:100A400053FC63880022012101F077FE38BD00BF0E
:100A50003C3600084C36000850360008483600087E
:100A60004036000838B504460D4683681A78587831
:100A7000012142EA0020FFF778FC2368197993F8F6
:100A800005C005F00F02186841EA0C21FFF797FD39
:100A900001212046FFF738FEA3681A785878002114
:100AA00042EA0020FFF761FC01212046FFF72CFEFF
:100AB00038BD38B590F8203013F0010F00D138BDA3
:100AC00004460D460909FFF7CDFF05F00F0120464A
:100AD000FFF7C8FFF3E720B370B515461E4604467E
:100AE00090F8283013F0010F1ED0C368A3B16268DC
:100AF0001378507843EA0020FFF737FCE268137858
:100B00005078294643EA0020FFF72FFC3178204631
:100B1000FFF7CFFF002070BD002AE8D06FF0020081
:100B2000F9E74FF0FF3070474FF0FF30F3E730B593
:100B300083B0044601238DF807300DF1070300222E
:100B40001146FFF7C8FF054610B1284603B030BD77
:100B500040F2FA512046FFF7D7FDF6E730B583B0F3
:100B6000044602238DF807300DF1070300221146D9
:100B7000FFF7B1FF054610B1284603B030BD40F283
:100B8000FA512046FFF7C0FDF6E730B583B00446C2
:100B9000490041F0040149B211438DF807100DF1ED
:100BA000070300221146FFF796FF054610B12846BD
:100BB00003B030BD27212046FFF7A6FDF7E730B58B
:100BC00083B00446890041F0080149B241EA42017C
:100BD00049B219438DF807100DF1070300221146A1
:100BE000FFF779FF054610B1284603B030BD272135
:100BF0002046FFF789FDF7E730B583B00446C9000A
:100C000041F0100149B241EA82018DF807100DF15F
:100C1000070300221146FFF75EFF054610B1284684
:100C200003B030BD27212046FFF76EFDF7E730B552
:100C300083B011F0800F1CD1044612B111F0C00F27
:100C40001AD17AB1402319438DF807100DF107032B
:100C5000002211462046FFF73EFF054620B12846F8
:100C600003B030BD8023EEE727212046FFF74CFD7F
:100C7000F5E76FF00305F2E76FF00305EFE710B556
:100C800082B004468DF807100DF107030022012100
:100C9000FFF721FF2B212046FFF736FD02B010BDE4
:100CA00010B50446436A0846984701462046FFF7B8
:100CB000E6FF10BD10B5044643681A785878002145
:100CC00042EA0020FFF751FBE3681A7858780021C8
:100CD00042EA0020FFF749FB03212046FFF7C2FE4E
:100CE00041F204012046FFF70FFD02212046FFF7E5
:100CF000B9FE64212046FFF707FD02212046FFF7D9
:100D0000B1FE27212046FFF7FFFC00231A460121F0
:100D10002046FFF754FF2046FFF709FF002201217C
:100D20002046FFF732FF10BD98B108B543691BB1EB
:100D300008469847002008BD03696BB11A785878B7
:100D4000003918BF012142EA0020FFF70EFB002006
:100D5000F1E76FF0030070476FF00300EBE700006E
:100D600020B308B5034602681AB3426822B382680A
:100D70002AB382698AB193F8202012F0010F21D0A2
:100D80005A6A82B193F8282042F0010283F82820A1
:100D90001846FFF78FFF002008BDC269002AEAD17C
:100DA0006FF00400F8E7094A5A62EBE76FF00300BE
:100DB00070476FF00400EFE76FF00400ECE76FF0AE
:100DC0000400E9E76FF00100E6E700BF7D070008D7
:100DD0007047000070B590B006466C46144D0FCDBC
:100DE0000FC40FCD0FC40FCD0FC495E80F0084E8DA
:100DF0000F00012200213046FFF719FF00250CE00B
:100E000010AB03EBC503234413F8401C3046FFF737
:100E100036FF0134072CF3DD0135072D01DC0024FA
:100E2000F8E7002211463046FFF701FF10B070BD11
:100E30005836000870B590B006466C46144D0FCD7C
:100E40000FC40FCD0FC40FCD0FC495E80F0084E879
:100E50000F00012200213046FFF7E9FE00250CE0DB
:100E600010AB03EBC503234413F8401C3046FFF7D7
:100E700006FF0134072CF3DD0135072D01DC0024CA
:100E8000F8E7002211463046FFF7D1FE10B070BDE2
:100E90009836000810B50B21062002F011FB4FF424
:100EA000C06001F0E0FC2F4C0123002211462046D7
:100EB00001F043FC40F68E0001F0D5FC21460120F4
:100EC00001F034FA0021012001F0D6F9012001F0EF
:100ED00001FA012001F01CFA062002F09CFA04F548
:100EE00080544FF4007302220021204601F04BFC95
:100EF0004FF400720121204601F06BFC4FF40073A7
:100F000000220221204601F018FC4FF4086001F095
:100F1000AAFCA4F5883400231A461946204601F09D
:100F20004BFD3E21204601F0E0FD204601F05AFD38
:100F3000FF21204601F0DDFD06220021204601F0C0
:100F40004AFE0021204601F0C2FF204602F07BF855
:100F500000221146204602F066F8204601F07EFD90
:100F600010BD00BF0000024008B502460021024843
:100F700002F059F808BD00BF0000014010B5074C51
:100F800021780139C9B20648FFF7CEFE2378103325
:100F90002370012001F0BCF910BD00BF8C000020BF
:100FA00048000020682A3AD070B584B006460D4645
:100FB000622A32D019B1002905DB00241AE0302161
:100FC000FFF76EFE29E02D21FFF76AFE6D42F4E780
:100FD000134A82FB0532EB17C3EBA2031A4603EB5D
:100FE0008303A5EB4303303304A9214401F8103CEB
:100FF00015460134002DEBDC04AB2344002203F83A
:10100000102C013C07E004AB234413F8101C3046BD
:10101000FFF746FE013C002CF5DA04B070BD7047C6
:101020006766666600B583B001900C4B1B7863B9A8
:101030000022402101A8FFF7FAFD084A1378C3F106
:101040000103137003B05DF804FB4FF47A70FFF7EF
:101050000FFB01A8FFF76BFDEFE700BF8D0000203D
:101060000EB478B50646059D002413E03046FFF720
:10107000D9FF0BE020213046FFF712FE2021304639
:10108000FFF70EFE02E03046FFF768FD0135013440
:101090000F2C0BDC297871B10A29E7D00929E9D096
:1010A0000D29F0D03046FFF7FBFDEFE73046FFF7A4
:1010B000B9FF0024EEE7BDE8784003B0704708B5FB
:1010C0004B1E062B05D8DFE803F0050505050505D1
:1010D00005000021FFF7D3FD08BD000070B50646EE
:1010E0000D463B2926D9B1F5167F2BD23021FFF7CB
:1010F000D7FD1E49A1FB0531002249093046FFF703
:1011000051FF3A213046FFF7CBFD184CA4FB0534C4
:101110006409C4EB0414B5EB84041BD0092C1ED85D
:1011200030213046FFF7BCFD002221463046FFF754
:1011300039FF70BD3021FFF7B3FD30213046FFF796
:10114000AFFDDEE70949A1FB053100224909FFF7A0
:1011500029FFD6E730213046FFF7A2FDE9E700225C
:1011600021463046FFF71EFFE3E700BF89888888E5
:1011700038B5044621B1012905D0022916D038BD61
:10118000FFF7D5FCFBE700221146FFF750FD0025D5
:1011900004E020212046FFF783FD01350F2DF8DD07
:1011A000002211462046FFF742FDE8E700224021D9
:1011B000FFF73DFD00250F2D05DC20212046FFF720
:1011C0006FFD0135F7E7002240212046FFF72FFD94
:1011D000D5E700001D4B1B6803601D4B1B68436077
:1011E0001C4B1B688360002305E003F10C021A49C5
:1011F000C95C81540133072BF7DD00F11401002392
:1012000003E0164AD25CCA540133072BF9DD144BB4
:101210001B780377134B1B784377134B1B7883772B
:10122000124B1B78C377124B1B7880F82030114B80
:101230001B7880F82130104B1B781BB1012380F8FC
:1012400022307047002380F8223070471C000020B5
:10125000080000200400002010000020780000207A
:10126000180000200D000020740000200100002064
:1012700000000020030000200C00002002681E4B2C
:101280001A6042681D4B1A6082681D4B1A60002369
:1012900005E003F10C02815C1A4AD1540133072B9B
:1012A000F7DD00F1140C002304E01CF80310164ACB
:1012B000D1540133072BF8DD027F144B1A70427FA3
:1012C000134B1A70827F134B1A70C27F124B1A7025
:1012D00090F82020114B1A7090F82120104B1A70B2
:1012E00090F822301BB10F4B01221A7070470D4B42
:1012F00000221A70704700BF1C0000200800002068
:1013000004000020100000207800002018000020B9
:101310000D000020740000200100002000000020CB
:10132000030000200C00002010B58AB001F074F812
:1013300000210B2001F058F901A8FFF74BFF0B4BE0
:10134000009300240BE000980AAB03EB840353F8EE
:10135000241C01F0D1F8009B043300930134082CC5
:10136000F1D901F067F80AB010BD00BF00000E0807
:1013700030B58BB00024084D0AE055F8102B0AABAD
:1013800003EB840343F8242C0120FFF771F90134A7
:10139000082CF2D90BB030BD00000E0870B5044621
:1013A0000E461546FFF7C3FB002211462046FFF705
:1013B0003EFC1EB131462046FFF752FE002240217E
:1013C0002046FFF734FC1DB129462046FFF748FEB2
:1013D00070BD000070B504460E4615460022114649
:1013E000FFF725FC76B104212046FFF768FE0022B6
:1013F00040212046FFF71BFC4DB104212046FFF79A
:101400005EFE70BD04492046FFF72AFEEFE7024961
:101410002046FFF725FEF4E7D8360008F8B5074662
:101420000E46D1F801305A681968FFF7B7FF00225D
:1014300001213846FFF7CEFF00252C4629E0374B27
:1014400000221A70002C67D0D6F8053053F82430EB
:101450000BB138469847D6F801306A1C53F8222061
:1014600053F825103846FFF799FF0022012138462E
:10147000FFF7B0FF0DE0013CE4B215E00134E4B247
:1014800012E0002201213846FFF7A4FF234B00227F
:101490001A7030BF214B1B78002BFAD0052BCED011
:1014A000012BE8D0022BE9D03378A34201D8013BCD
:1014B000DCB2AC42E5D0621B012A16D0022A19D058
:1014C0002B1B012BE2D1013DEDB2D6F801306A1C95
:1014D00053F8222053F825103846FFF75FFF00220B
:1014E00001213846FFF776FFD0E700213846FFF7A5
:1014F00071FFCBE70135EDB2D6F801306A1C53F825
:10150000222053F825103846FFF748FF012200211A
:101510003846FFF75FFFB9E7F8BD00BF7500002050
:1015200070B582B005460E460B783C2B20D93C2383
:101530000B703178514BA3FB01235B09642202FB42
:101540001313DBB24E4AA2FB0303DB088DF8043011
:10155000A2FB0123DB0803EB8303A1EB43038DF81C
:101560000530002246212846FFF761FB00240DE0EC
:10157000002BDED101230B70DBE702AB23440022FA
:1015800013F8041C2846FFF70DFD0134012CF4DD8F
:10159000002443E0002333700AE0327802A91944A2
:1015A00011F8041C02EB820201EB4202327001339B
:1015B000012BF2DD334B00221A7002B070BD02AB7A
:1015C000181910F8043C01332F4A82FB031202F071
:1015D000FC0101EBA202A3EB420300F8043C9DF8DE
:1015E000043003EB83039DF8052002EB43033C2BFF
:1015F0003EDD00238DF8043004F146010022C9B21B
:101600002846FFF714FB002202AB234413F8041C06
:101610002846FFF7C7FC1B4B00221A7030BF194B3E
:101620001B78002BFAD0052BB4D0012BC7D0022B8E
:1016300008D0042B17D0032BD1D1002CCFD10134EB
:10164000E4B2CCE702AB181910F8043C09330E4A97
:1016500082FB031202F0FC0101EBA202A3EB4203A6
:1016600000F8043CBBE7002CE5D0013CE4B2B6E74F
:10167000002BC1D101238DF80530BDE71F85EB514B
:10168000CDCCCCCC75000020676666662DE9F041B4
:101690000546884616461F4613780B700221FFF751
:1016A00067FD002231782846FFF77CFC002419E012
:1016B000335D88F80030154B00221A70BDE8F081C8
:1016C000013494FBF7F307FB1344E4B202212846EC
:1016D000FFF74EFD0022315D2846FFF763FC0B4803
:1016E0000023037030BF094800780028FAD005288D
:1016F000DED00128E4D00228E8D1013C3C4494FB30
:10170000F7F307FB1344E4B2E0E700BF75000020E5
:1017100008B50821282001F0D3FE14494FF40040F9
:1017200000F004FE01214FF4004000F0A5FD4FF44D
:10173000004000F0CFFD4FF4004000F0E9FD0C49FF
:101740004FF4006000F0F2FD01214FF4006000F062
:1017500093FD4FF4006000F0BDFD4FF4006000F019
:10176000D7FD282001F057FE08BD00BF0000024051
:101770000008024010B50821172001F0A1FE1B4C03
:101780002146402000F0D2FD0121402000F074FDF0
:10179000402000F09FFD402000F0BAFD21464FF4AC
:1017A000807000F0C3FD01214FF4807000F064FDF3
:1017B0004FF4807000F08EFD4FF4807000F0A8FDB3
:1017C00021464FF4007000F0B1FD01214FF400708C
:1017D00000F052FD4FF4007000F07CFD4FF40070FB
:1017E00000F096FD172001F016FE10BD0008024023
:1017F00008B540F2046001F036F8FFF7DBF8054B5E
:10180000197993F805C00022186841EA0C21FEF707
:10181000D6FE08BD4036000808B54FF4C06001F0A0
:1018200022F840F2026001F01EF8124B1A78587844
:1018300042EA0020FEF7E2FD0F4B1A78587842EAA0
:101840000020FEF7DBFD0D4B1A78587842EA0020A5
:10185000FEF7D4FD0A4B1A78587842EA0020FEF7CA
:10186000CDFD084B1A78587842EA0020FEF7C6FDF5
:1018700008BD00BF14360008183600081C360008E2
:10188000203600082436000808B54FF4A06001F0A7
:10189000B9FD40F68E0000F0E6FFFFF739FFFFF7D5
:1018A00069FF08BD08B5FFF742F908BD70B50446E9
:1018B0000E461546FFF73BF9002211462046FFF77A
:1018C000B6F91EB131462046FFF7CAFB002240217F
:1018D0002046FFF7ACF91DB129462046FFF7C0FBB3
:1018E00070BD000070B505460E461446FFF71FF99F
:1018F000002211462846FFF79AF90C4B1978284622
:10190000FFF7DDFB21462846FFF7AAFB0022422114
:101910002846FFF78CF9002405E005492846FFF723
:101920009FFB0134E4B2B442F7D370BD0F00002036
:10193000DC36000870B505460C4616469AB14026BE
:1019400011E0002231462846FFF771F90749284681
:10195000FFF786FB21462846FFF7C0FB4FF47A705D
:10196000FEF786FE013C002CEBDA70BDE036000885
:1019700010B50446FFF7DBF8002211462046FFF7BA
:1019800056F906212046FFF79AFB02492046FFF749
:1019900067FB10BDE4360008F0B583B0ADF8040075
:1019A0009DF8040000F00F00FEF79EFC05469DF830
:1019B00004000009FEF794FC06460024274601E0D7
:1019C00001370134092C14DC284600F0A3FE304214
:1019D00004D19DF8053013F0010FF1D1284600F035
:1019E00099FE3042EDD09DF8053013F0010FE8D19B
:1019F000E6E7042F0CDC002003B0F0BD284600F021
:101A000089FE304211D09DF8053013F0010F0AD144
:101A1000284600F07FFE3042F0D19DF8053013F0EB
:101A2000010FF5D1EAE70120E6E70120E4E7000035
:101A300008B54FF4006000F071FC78B1124B1A78D1
:101A4000587842EA0020FFF7A7FF10B10F4B03229E
:101A50001A704FF4006000F05BFC08BD4FF40040CA
:101A600000F05CFC0028F8D0094B1A78587842EA5C
:101A70000020FFF791FF10B1044B05221A704FF4BC
:101A8000004000F045FCE8E714360008750000202F
:101A90001836000808B5402000F040FC70B11D4B1E
:101AA0001A78587842EA0020FFF776FF10B11A4BF7
:101AB00001221A70402000F02BFC08BD4FF480700A
:101AC00000F02CFC78B1154B1A78587842EA0020C7
:101AD000FFF762FF10B1104B02221A704FF48070B2
:101AE00000F016FCE9E74FF4007000F017FC002846
:101AF000E3D00B4B1A78587842EA0020FFF74CFFEE
:101B000010B1054B04221A704FF4007000F000FC75
:101B1000D3E700BF203600087500002024360008F7
:101B20001C360008014B00221A7070470C00002080
:101B300010B59CB086461F4A19AB07CA03C31A707A
:101B40001D4A16AB07CA03C31A801C4B12AC0FCB3D
:101B500007C423701A4A0FAB07CA03C323F8022B2A
:101B6000120C1A70174B93E803000D90ADF8381063
:101B700019AB089316AB099312AB0A930FAB0B93F7
:101B80000DAB0C930DF10C0C0F4C0FCCACE80F000F
:101B90002368CCF8003005238DF8003008ABCDF871
:101BA000013003ABCDF8053069467046FFF736FCCF
:101BB0001CB010BDF036000808360008FC360008DE
:101BC0000C370008183700084438000810B5A0B0DA
:101BD0008646234A1DAB07CA03C31A70214B0DF179
:101BE000640C0FCBACE807002CF8023B1B0C8CF804
:101BF00000301D4B15AC0FCB07C423701B4B0DF1F0
:101C0000440C0FCBACE807002CF8023B1B0C8CF803
:101C10000030174B0DAC0FCB07C423801DAB0893CE
:101C200019AB099315AB0A9311AB0B930DAB0C9346
:101C30000DF10C0C0F4C0FCCACE80F002368CCF866
:101C4000003005238DF8003008ABCDF8013003AB30
:101C5000CDF8053069467046FFF7E0FB20B010BDB7
:101C6000F0360008203700083037000840370008F9
:101C7000503700085838000830B591B08446174AEC
:101C80000DAB07CA03C31A70154B0BAA93E80300E8
:101C900082E80300134909AB03C983E803000DA9D7
:101CA00006910792089303AB0F4A07CA83E807001F
:101CB00003228DF8002006AACDF80120CDF80530CA
:101CC0000A4C257869466046FFF7A8FB2378AB42AB
:101CD00002D0074B01221A7011B030BDF036000857
:101CE00060370008683700086C3800080C000020D6
:101CF0008E00002070B582B005460D4C26780D4B45
:101D00001B68ADF804301B0C8DF8063000220A4920
:101D1000FFF7CCFD032301AA21462846FFF7B6FCB6
:101D20002378B34202D0054B01221A7002B070BD75
:101D30000100002080370008703700088E00002066
:101D400070B582B005460D4C26780D4B1B68ADF87A
:101D500004301B0C8DF8063000220A49FFF7A6FD5F
:101D6000032301AA21462846FFF790FC2378B342BB
:101D700002D0054B01221A7002B070BD0000002095
:101D800094370008843700088E00002070B582B0B8
:101D900004460D4D2E780D4B93E8030000908DF80E
:101DA000041000220A492046FFF780FD05236A46F9
:101DB00029462046FFF76AFC2B78B34202D0054B38
:101DC00001221A7002B070BD03000020A437000881
:101DD000983700088E00002030B583B004460D46C9
:101DE0001146094B1B68ADF804301B0C8DF806300A
:101DF0000022FFF75BFD032301AA29462046FFF7D7
:101E000045FC03B030BD00BFAC370008F0B589B069
:101E100004460D46174600238DF81F30304E01232F
:101E20000093304B327805A900F018F932782E492A
:101E300005A800F0FDF808B909B0F0BD2B4E01234C
:101E400000932B4B327805A9204600F007F9327831
:101E5000284905A800F0ECF80028EDD0264A0DF13D
:101E60001F012046FFF7B8FF00260096234B9DF880
:101E70001F2005A9204600F0F1F80096204B9DF8A0
:101E80001F2003A9204600F0E9F89DF81F2003A9B0
:101E900005A800F0CDF8E0B19DF81F303B70334647
:101EA0009DF81F209A4206DD08AA1A4412F80C2C4D
:101EB000EA540133F4E7134A13492046FFF7F6FCCE
:101EC000124B01221A7030BF114B1B78052BFAD12F
:101ED000B2E7104A10492046FFF7E8FCF3E700BFDD
:101EE00018000020B0370008100000200D0000206E
:101EF000BC37000878000020CC370008D83700082D
:101F0000E4370008EC370008F83700088E0000209E
:101F100075000020083800081838000808B5024A83
:101F20000249FFF773FF08BD0D0000207800002074
:101F300008B5024A0249FFF769FF08BD18000020F2
:101F40001000002070B50546094C2668002209499A
:101F5000FFF7ACFC21462846FFF7E2FA2368064A61
:101F60001360B34202D0054B01221A7070BD00BF4E
:101F70000800002024380008040000208E00002003
:101F800070B50546094C266800220949FFF78EFC0A
:101F900021462846FFF7C4FA064B01221A7023682F
:101FA000B34201D0044B1A7070BD00BF1C0000206A
:101FB000343800080C0000208E00002030B585B0B9
:101FC0000446134D01230093124B2A7802A900F016
:101FD00045F82A78104902A800F02AF808B905B097
:101FE00030BD2046FFF7A4FD0C4B1B7843B90C4BCA
:101FF0001A780C4B1A700C4B1A680C4B1A60EEE7EF
:1020000000F0A8F8FFF790F900F09CF8EFE700BFA8
:102010000D000020FC360008780000208E00002013
:1020200001000020740000200800002004000020AF
:10203000002393420FD200B510F803E011F803C05B
:10204000E64506D10133DBB29342F5D301205DF8BA
:1020500004FB0020FBE70120704700002DE9F04160
:1020600006460D4617461A469DF81880002402E0E1
:10207000002129550134A742FADC39463046FFF7E2
:1020800031FC00241FE02D4B00221A70BDE8F081C6
:102090002B5D01332A4A82FB031202F0FC0101EBA3
:1020A000A202A3EB42032B5504F142010022C9B264
:1020B0003046FEF7BCFD0022295D3046FEF772FF78
:1020C0001E4B00221A701D4B1B78002BFBD0052BDA
:1020D000D9D0012BDCD0022B0FD0B8F1000F19D1D1
:1020E000164B1B78032B21D0042B22D0002C23DB92
:1020F000A742D9DC7C1E64B2D6E72B5D0933104AB7
:1021000082FB031202F0FC0101EBA202A3EB4203EB
:102110002B55C9E704F142010022C9B23046FEF74F
:1021200086FD04213046FEF7CAFFD9E7013464B2C8
:10213000DCE7013C64B2D9E70024B5E77500002074
:102140006766666608B5282001F065F9172001F07A
:1021500062F908BD08B5282001F06AF9172001F0DE
:1021600067F908BD38B50446FFF7F4FF154D2B7825
:1021700001332B702046FEF7DAFC00221146204680
:10218000FEF755FD104B19782046FEF798FF0F49D2
:102190002046FEF765FF2A780D4B1B789A4209D23C
:1021A0000C4A0D4B1B78116801FB03F31360FFF71A
:1021B000C9FF38BD0122074B19682046FFF7BAFB5B
:1021C000EEE700BF740000200F0000207838000800
:1021D00001000020040000200300002038B505465F
:1021E000FFF7B8FF0B4B1C785B7844EA03242046CA
:1021F000FEF793F82846FFF7BBFB0122064B196850
:102200002846FFF797FB2046FEF773F8FFF79AFF83
:1022100038BD00BF303600081C00002008B5094B4F
:102220001B78052B0AD0074B05221A70064B1A782B
:10223000587842EA0020FEF784F808BD014B0622D8
:102240001A70F3E70F0000203036000808B5074B7E
:1022500000221A70064B1A68064B1A6011B1FFF77C
:10226000BDFF08BDFFF7DAFFFBE700BF74000020E9
:102270000800002004000020012910D002291BD0F2
:1022800001B17047124BD3F8082C0243C3F8082C55
:10229000D3F80C2C22EA0000C3F80C0C70470C4B4E
:1022A000D3F8082C22EA0002C3F8082CD3F80C2C2F
:1022B0001043C3F80C0C7047054BD3F8082C0243AD
:1022C000C3F8082CD3F80C2C1043C3F80C0CD8E737
:1022D00000300140054BD3F8002C0243C3F8002C1A
:1022E000D3F8042C1043C3F8040C704700300140AD
:1022F000064BD3F8001C21EA0001C3F8001CD3F8F8
:10230000042C22EA0002C3F8042C7047003001407C
:10231000014BC3F8140C704700300140024BD3F856
:10232000143C1840704700BF0030014000225FE0BD
:10233000A3F50063994249D003F58063994247D1E0
:10234000022302F0030E4FEA8E0E0F2404FA0EF55C
:102350002C4C04EB920C4FEA8C0CDCF8004024EA85
:10236000050403FA0EF32343CCF8003001320F2AA0
:102370003CD8012393400342F8D0234B994221D00B
:102380000DD8A3F5406399421ED0D1D91F4B994275
:1023900020D003F5806399421ED10523D1E71C4B61
:1023A00099421BD004D91B4B99421DD10A23C8E77F
:1023B000A3F50063994213D003F58063994211D1CC
:1023C0000823BEE70623BCE70323BAE70123B8E7E7
:1023D0000023B6E70423B4E70023B2E70923B0E7FC
:1023E0000723AEE70023ACE70023AAE730BD0132A4
:1023F0000F2A05D8012393400342F8D030B5BCE73B
:10240000704700BF024E001000180240001002404A
:102410000024024000280240044B054AC3F8042C63
:1024200002F18832C3F8042C704700BF003002402C
:1024300023016745034AD2F8103C43F00043C2F839
:10244000103C704700300240034AD2F80C3C43F085
:102450000103C2F80C3C704700300240034AD2F836
:102460000C3C43F02003C2F80C3C704700300240A3
:10247000034AD2F80C3C43F04003C2F80C3C7047CE
:1024800000300240034AD2F80C3C43F01003C2F87B
:102490000C3C704700300240034AD2F8143C43F031
:1024A0000103C2F8143C704700300240F8B50546FD
:1024B00016461F4601F05AF80E4CD4F8103C23F48F
:1024C0004073C4F8103CD4F8103C43F44073C4F893
:1024D000103CD4F8103C43F00103C4F8103CC5E9AB
:1024E000006701F043F8D4F8103C23F00103C4F86E
:1024F000103CF8BD0030024070B505460E4601F0B4
:1025000035F80E4CD4F8103C23F44073C4F8103C5A
:10251000D4F8103C43F40073C4F8103CD4F8103CD9
:1025200043F00103C4F8103C2E6001F01FF8D4F80A
:10253000103C23F00103C4F8103C70BD0030024091
:1025400070B505460E4601F011F80E4CD4F8103C5B
:1025500023F44073C4F8103CD4F8103C43F4807367
:10256000C4F8103CD4F8103C43F00103C4F8103C0C
:102570002E8000F0FBFFD4F8103C23F00103C4F8D8
:10258000103C70BD0030024070B505460E4600F0AC
:10259000EDFF0D4CD4F8103C23F44073C4F8103C0C
:1025A000D4F8103CC4F8103CD4F8103C43F00103BC
:1025B000C4F8103C2E7000F0D9FFD4F8103C23F082
:1025C0000103C4F8103C70BD00300240F8B5074666
:1025D0000E461546002404E0315DE019FFF7D4FFF4
:1025E0000134AC42F8D3F8BD38B505460C4600F0CE
:1025F000BDFF1D4BD3F8102C22F44072C3F8102CF1
:10260000D3F8102C42EA0422C3F8102C0B2D01D968
:102610000435EDB2144CD4F8103C23F0F803C4F8A0
:10262000103CD4F8103CED00EDB21D43C4F8105C32
:10263000D4F8103C43F00203C4F8103CD4F8103C2A
:1026400043F48033C4F8103C00F090FFD4F8103C01
:1026500023F00203C4F8103CD4F8103C23F0F80334
:10266000C4F8103C38BD00BF0030024038B5054604
:1026700000F07CFF104CD4F8103C23F44073C4F8F5
:10268000103CD4F8103C43EA0523C4F8103CD4F8BD
:10269000103C43F00403C4F8103CD4F8103C43F45D
:1026A0008033C4F8103C00F061FFD4F8103C23F0F4
:1026B0000403C4F8103C38BD0030024010B5044695
:1026C00000F054FF0B4BD3F8143C13F0010F0DD165
:1026D00024F00304074BC3F8144CD3F8142C42F035
:1026E0000202C3F8142C00F041FF10BD00F07EFF81
:1026F000EEE700BF0030024081617047090481614C
:102700007047436901EA030221EA030141EA0241F9
:1027100081617047006980B2704710B50C46FFF7C1
:10272000F9FF204010BD4161704741F48033C3611F
:10273000C161C361C369C3697047F0B50668C56804
:102740004FF0000C03E00CF1010C1FFA8CFCBCF103
:102750000F0F15D843FA0CF414F0010FF3D04FEA21
:102760004C0E032404FA0EF426EA040601FA0EF7CE
:102770003E4325EA040502FA0EFE4EEA0505E2E7AD
:102780000660C560F0BD10B5012906D0416821EA98
:10279000030141608468002105E0416819434160FC
:1027A000F8E7013189B20F2911D843FA01FC1CF076
:1027B000010FF6D04FEA410C4FF0030E0EFA0CFE5B
:1027C00024EA0E0402FA0CFC4CEA0404E9E78460F3
:1027D00010BD30B5046A456A00230DE04FEA830E50
:1027E0004FF00F0C0CFA0EFC24EA0C0401FA0EFE5A
:1027F0004EEA040401339BB2072B05D842FA03FCCE
:102800001CF0010FEAD1F5E708230FE0A3F1080C53
:102810004FEA8C0C4FF00F0E0EFA0CFE25EA0E0E4E
:1028200001FA0CFC4CEA0E0501339BB20F2B05D8C4
:1028300042FA03FC1CF0010FE8D1F5E7046245629F
:1028400030BD03680B4303607047036823EA01034C
:102850000360704703680B4303607047036823EA13
:10286000010303607047430903F1804303F50E330E
:102870001A6800F01F00012101FA00F010431860EF
:102880007047430903F1804303F50E331A6800F0E3
:102890001F00012101FA00F022EA000018607047D1
:1028A000430903F1804303F50E33196800F01F005C
:1028B000012202FA00F0014319601A6822EA0000BE
:1028C00018607047430903F1804303F50E331A681B
:1028D00000F01F00012101FA00F01043186070475A
:1028E000430903F1804303F50E331A6800F01F001B
:1028F000012101FA00F022EA000018607047000090
:10290000044AD2F8083823F4C00343EA4053C2F81B
:102910000838704700300240032802D0052808D04C
:102920007047084AD2F8003843F48023C2F80038D0
:102930007047044AD2F8703843F00403C2F8703884
:10294000704700BF00300240032802D0052808D09D
:102950007047084AD2F8003823F48023C2F80038C0
:102960007047044AD2F8703823F00403C2F8703874
:10297000704700BF00300240C3680B43C36070471C
:10298000C36823EA0103C36070470369C268134048
:102990000B4203D0802903D80120704700207047E4
:1029A0000020704703690B4201D1002070470120CD
:1029B0007047C9430161704710B4046824F45C7C1B
:1029C0001143194341EA0C0101605DF8044B704763
:1029D00001F44073026822F44072026001681943F6
:1029E00001607047036843F0800303607047036829
:1029F00023F080030360704701F06003026822F057
:102A0000600202600168194301607047036823F0A7
:102A1000100303607047036843F0100303607047BE
:102A2000036843F0080303607047036823F008035A
:102A300003607047036823F0040303607047036872
:102A400043F0040303607047036823F0020303604C
:102A50007047036843F0020303607047036843F064
:102A6000010303607047036823F0010303607047AC
:102A7000436801F4FE410B4343607047436801F42F
:102A8000FE4123EA010343607047436843F080033B
:102A900043607047436823F0800343607047426897
:102AA00022F07002426043680B4343607047436802
:102AB00023F0080343607047436843F00803436012
:102AC0007047436843F0040343607047436823F052
:102AD000040343607047436843F001034360704759
:102AE000436823F0010343607047816270470163CC
:102AF0007047C1627047062918D8DFE801F0041753
:102B000009170E171300836943F080038361704730
:102B1000836943F4004383617047C36943F08003D2
:102B2000C3617047C36943F40043C361704706291A
:102B300018D8DFE801F0041709170E17130083698E
:102B400023F0800383617047836923F4004383612A
:102B50007047C36923F08003C3617047C36923F4DE
:102B60000043C3617047062918D8DFE801F0041755
:102B700009170E171300836943F00403836170473C
:102B8000836943F4806383617047C36943F004033E
:102B9000C3617047C36943F48063C361704706290A
:102BA00018D8DFE801F0041709170E17130083691E
:102BB00023F0040383617047836923F48063836196
:102BC0007047C36923F00403C3617047C36923F4EA
:102BD0008063C3617047062900F2EA80DFE811F0E4
:102BE0000700E8004000E8007900E800B1008369D0
:102BF00023F00303836183698361836923F0700396
:102C00008361072A00F2D480DFE802F004070C1188
:102C1000161B2025836983617047836943F0100385
:102C200083617047836943F0200383617047836940
:102C300043F0300383617047836943F0400383614D
:102C40007047836943F0500383617047836943F0A1
:102C5000600383617047836943F070038361704749
:102C6000836923F44073836183698361836923F4F7
:102C7000E0438361072A00F29B80DFE802F004074B
:102C80000C11161B2025836983617047836943F407
:102C9000805383617047836943F4005383617047B5
:102CA000836943F4405383617047836943F48043ED
:102CB00083617047836943F4A043836170478369EC
:102CC00043F4C04383617047836943F4E043836105
:102CD0007047C36923F00303C361C369C361C36958
:102CE00023F07003C361072A62D8DFE802F004070B
:102CF0000C11161B2025C369C3617047C36943F0DB
:102D00001003C3617047C36943F02003C361704778
:102D1000C36943F03003C3617047C36943F04003A4
:102D2000C3617047C36943F05003C3617047C3690F
:102D300043F06003C3617047C36943F07003C3612C
:102D40007047C36923F44073C361C369C361C36936
:102D500023F4E043C361072A2AD8DFE802F004071E
:102D60000C11161B2025C369C3617047C36943F466
:102D70008053C3617047C36943F40053C361704714
:102D8000C36943F44053C3617047C36943F480434C
:102D9000C3617047C36943F4A043C3617047C3690B
:102DA00043F4C043C3617047C36943F4E043C36164
:102DB0007047062918D8DFE801F0041709170E1725
:102DC0001300836943F0080383617047836943F408
:102DD000006383617047C36943F00803C3617047B0
:102DE000C36943F40063C3617047062918D8DFE85C
:102DF00001F0041709170E171300836923F0080365
:102E000083617047836923F4006383617047C369FA
:102E100023F00803C3617047C36923F40063C361EF
:102E20007047062927D8DFE801F00418091D0E2293
:102E30001300036A23F0020303627047036A23F05E
:102E4000200303627047036A23F400730362704730
:102E5000036A23F4005303627047036A23F00803F4
:102E600003627047036A23F0800303627047036ABA
:102E700023F4006303627047062927D8DFE801F0D6
:102E80000418091D0E221300036A43F002030362B3
:102E90007047036A43F0200303627047036A43F4F8
:102EA000007303627047036A43F400530362704780
:102EB000036A43F0080303627047036A43F0800328
:102EC00003627047036A43F4006303627047062994
:102ED00027D8DFE801F00418091D0E221300036A49
:102EE00043F0010303627047036A43F01003036277
:102EF0007047036A43F4807303627047036A43F4C4
:102F0000805303627047036A43F00403036270470F
:102F1000036A43F0400303627047036A43F480632B
:102F200003627047062927D8DFE801F00418091D5D
:102F30000E221300036A23F0010303627047036A41
:102F400023F0100303627047036A23F48073036263
:102F50007047036A23F4805303627047036A23F0C7
:102F6000040303627047036A23F04003036270475F
:102F7000036A23F4806303627047062927D8DFE8D9
:102F800001F004090E13181D2200436843F48073F6
:102F900043607047436843F400734360704743687D
:102FA00043F4806343607047436843F400634360C5
:102FB0007047436843F4805343607047436843F469
:102FC000005343607047436843F480434360704755
:102FD000062927D8DFE801F004090E13181D220086
:102FE000436823F4807343607047436823F400739D
:102FF00043607047436823F48063436070474368CD
:1030000023F4006343607047436823F480534360B4
:103010007047436823F4005343607047436823F4C8
:1030200080434360704706290CD8DFE801F0040BA9
:10303000060B080B0A004263704782637047C26345
:10304000704702647047436C43F400434364704725
:10305000436C23F4004343647047436C43F4804360
:1030600043647047436C23F4804343647047436C6C
:1030700043F4005343647047436C23F400534364A8
:103080007047436C43F4805343647047436C23F4AC
:10309000805343647047436C43F400634364704758
:1030A000436C23F4006343647047436C43F48063D0
:1030B00043647047436C23F4806343647047436CFC
:1030C0000B4343647047436C0B434364704743694D
:1030D0000B4343617047406A704741627047032960
:1030E00026D8DFE801F0020B141D836923F0F003FA
:1030F0008361836943EA021282617047836923F422
:1031000070438361836943EA023282617047C36915
:1031100023F0F003C361C36943EA0212C26170473E
:10312000C36923F47043C361C36943EA0232C261D5
:103130007047032926D8DFE801F0020B141D8369CC
:1031400023F00C038361836943EA82028261704742
:10315000836923F440638361836943EA8222826145
:103160007047C36923F00C03C361C36943EA820259
:10317000C2617047C36923F44063C361C36943EA12
:103180008222C261704702F00302012907D003299D
:1031900005D003292BD8DFE801F009111A22531EAC
:1031A000DBB2012BF5D882F00302F2E7836923F04A
:1031B0000303836183691A4382617047836923F43F
:1031C00040738361836943EA022282617047C36965
:1031D00023F00303C361C3691A43C2617047C36923
:1031E00023F44073C361C36943EA0222C26170479A
:1031F000036A8A00012191400B4303627047036A0E
:103200008A000121914023EA01030362704782682A
:1032100022F470628260836843EA0123836070470E
:10322000826822F440528260836843EA01338360FB
:10323000704721B1836843F400438360704783681B
:1032400023F4004383607047836823F0070383609F
:103250008368194381607047836823F0700383603B
:1032600083681943816070474FF0E022D2F8883DAF
:1032700043F47003C2F8883D7047FEE770470000D2
:1032800010B51B4B1B4903E051F8042B43F8042BEA
:10329000194A9342F8D302E0002243F8042B174A5C
:1032A0009342F9D34FF0E022D2F8143D43F4007377
:1032B000C2F8143DFFF7D8FF114C02E054F8043B6C
:1032C0009847104B9C42F9D30F4C02E054F8043B52
:1032D00098470E4B9C42F9D3FCF768FF0C4C02E078
:1032E00054F8043B98470B4B9C42F9D310BD00BFE8
:1032F00000000020883800087400002090000020A2
:10330000883800088838000888380008883800089D
:10331000883800088838000820F07F404FF0E0230C
:10332000586170474FF0E023586920F07F407047A4
:103330004FF0E023986920F07F4070474FF0E02283
:10334000136923F0040300F0040003431361704782
:1033500010B5B1FBF0F40B4B9C4210D86FF07F43DB
:103360009C4208D3E4080020FFF7E8FF601EFFF747
:10337000D3FF012010BD0420FFF7E0FFF6E7002097
:10338000F8E700BFF7FFFF074FF0E022136943F0B3
:103390000203136170474FF0E022136923F0020328
:1033A000136170474FF0E022136943F0010313618A
:1033B00070474FF0E022136923F001031361704757
:1033C0004FF0E0231869C0F3004070474FF0E0234E
:1033D00000229A6170474FF0E023D86920F07F40C7
:1033E000704700004FF0E023014AC3F80C2DFEE7C0
:1033F0000100FA054FF0E023014AC3F80C2DFEE767
:103400000400FA0540F0BF6040F400304FF0E023C4
:10341000C3F80C0D704700F01F0143099B0003F136
:10342000604303F5614301228A401A60704700003F
:1034300000F01F02400901239340024A42F8203065
:10344000704700BF80E100E043099B0003F1604347
:1034500003F562431A6800F01F00012303FA00F02D
:10346000024214BF18460020704700F01F014309B4
:103470009B0003F1604303F5624301228A401A6016
:103480007047000000F01F02400901239340024AE8
:1034900042F82030704700BF80E200E043099B0003
:1034A00003F1604303F561431A6800F01F00012334
:1034B00003FA00F0024214BF1846002070470000D3
:1034C0005A2804D900F00F00044BC154704700F192
:1034D000604000F564400170704700BF14ED00E0EB
:1034E00043099B0003F1604303F563431A6800F04E
:1034F0001F00012303FA00F0024214BF1846002007
:103500007047EF2806D84FF0E023D3F8002F104380
:10351000C3F8000F7047BFF35F8F704750E8000F8C
:10352000704741E800031846704710B50446FFF79E
:10353000F5FF30B10124FFF7EEFFB4FA84F0400943
:1035400010BD21460120FFF7ECFF0446F3E710B55C
:1035500004462046FFF7E9FF0028FAD010BD10B559
:103560000446FFF7D8FF0023236010BD034BD3F8B8
:103570000C3C13F4803FF9D1704700BF003002408B
:10358000034AD2F80C3C43F08003C2F80C3C70476D
:103590000030024008B5FFF7F3FFFEF75FFFFEF7CC
:1035A00071FFFEF765FFFEF74FFF08BD034AD2F833
:1035B000003C43F48073C2F8003C70470030024086
:1035C000034AD2F8003C23F48073C2F8003C7047F1
:1035D00000300240044AD2F8003C23F00F030343BA
:1035E000C2F8003C704700BF00300240044B054A5F
:1035F000C3F8082C02F14432C3F8082C704700BF0E
:10360000003002403B2A19082050617373776F72B3
:1036100064000000B2010000F0010000920100000F
:10362000620100008201000000000000F3000000C1
:10363000C3000000D3000000E3000000940000007D
:10364000040000F000000000B4000000740000005E
:10365000A4000000E803000000011F10101010007B
:1036600000000E101C110E00000A000404040400E7
:103670000E11101C10110E00011F10101010100060
:103680000A040404040404001010101E11111E008A
:10369000001B1F1F0E0E0400040E1F040404040070
:1036A000040404041F0E04000004061F06040000A6
:1036B00000040C1F0C040000000E1F1F1F0E000052
:1036C000000E11111F1F1F000E1111011F1F1F00DF
:1036D00000110A040A110000200000005F00000031
:1036E000090909002057656C636F6D6500000000D3
:1036F00020476F206261636B00000000204D617302
:1037000074657220636F64650000000020576F725B
:103710006B206D6F64650000204661696C000000DD
:10372000204D696E696D616C2064656C6179000083
:1037300020436F656666696369656E74000000000A
:1037400020437269746963616C206869676800006E
:1037500020437269746963616C206C6F77000000AC
:10376000204D6F6465203100204D6F64652032006C
:10377000437269746963616C206C6F7700000000AC
:1037800001030500437269746963616C20686967AD
:103790006800000003050A00436F65666669636997
:1037A000656E7400010204080A00000004060800A7
:1037B000205573657220706173730000204D617332
:1037C000746572207061737300000000536574208B
:1037D0006C656E67746800004E6577207061737366
:1037E0003A000000205265706561740077617320B3
:1037F0006368616E67656400537563636573732EF8
:103800002050617373000000776173206E6F742025
:103810006368616E676564004572726F722E205036
:10382000617373004D696E206661696C2064656C1C
:103830006179000057656C636F6D652064656C612C
:103840007900000000000000311F00081D1F000863
:10385000791C0008CD1B000800000000451F00086F
:103860008D1D0008411D0008F51C00080000000027
:10387000811F0008251B00082041636365737320C6
:0838800064656E6965640000D7
:103888000A0301021E0000001E00000001040405D6
:1038980001000305000000000400000014000000FF
:1038A8000100030500000000000000000000000007
:1038B80000000000000000000A0000001E000000D8
:1038C8001E00000000A34400403600084C360008E3
:1038D800483600085036000800000000690F00084C
:1038E800000000007106000801000000D10D00086A
:0438F80000000000CC
:04000005080032813C
:00000001FF
