:020000040800F2
:1000000000000220F9080008F5080008F3080008BD
:10001000F3080008F3080008F308000800000000D7
:10002000000000000000000000000000F5080008CB
:10003000F508000800000000F5080008F5080008B1
:10004000F3080008F3080008F3080008F3080008A4
:10005000F3080008F3080008F3080008F308000894
:10006000F3080008F3080008F3080008F308000884
:10007000F3080008F3080008F3080008F308000874
:10008000F3080008F3080008F3080008F308000864
:10009000F3080008F3080008F3080008F308000854
:1000A000F3080008F3080008F3080008F308000844
:1000B000F3080008F3080008F3080008F308000834
:1000C000F3080008F3080008F3080008F308000824
:1000D000F3080008F3080008F3080008F308000814
:1000E000F3080008F3080008F3080008F308000804
:1000F000F3080008F3080008F3080008F3080008F4
:10010000F3080008F3080008F3080008F3080008E3
:10011000F3080008F3080008F3080008F3080008D3
:10012000F3080008F3080008F3080008F3080008C3
:10013000F3080008F3080008F3080008F3080008B3
:10014000F3080008F3080008F3080008F3080008A3
:10015000F3080008F3080008F3080008F308000893
:10016000F3080008F3080008F3080008F308000883
:10017000F3080008F3080008F3080008F308000873
:10018000F3080008F3080008F3080008F308000863
:10019000F3080008F3080008F3080008F308000853
:1001A000F3080008F3080008F308000882B0019083
:1001B000019B5A1E0192002BFAD102B07047000039
:1001C00008B540F2036000F003FB012000F02AF9BB
:1001D000174B1A785878012142EA002000F090F875
:1001E000144B1A785878012142EA002000F088F870
:1001F0000F4B1A78587842EA002000F0ADF80E4B09
:100200001A78587842EA002000F0A6F8094B1A78CC
:10021000587842EA002000F09FF8084B1A78587886
:1002200042EA002000F098F80548FFF7BFFFDFE73B
:10023000B8090008BC090008B4090008B0090008A2
:1002400000350C0000B5864600239C46184605E0A4
:100250000022104380B20CF1010C01330F2B0EDC95
:100260004EFA03F212F0010FF7D041FA03F212F046
:10027000010FEDD0012202FA0CF212B2E9E75DF8AB
:1002800004FB00B5864600239C46184605E0002284
:10029000104380B20CF1010C01330F2B0DDC4EFA30
:1002A00003F212F0010FF7D041FA0CF212F0010F35
:1002B000EDD001229A4012B2EAE75DF804FB00B5E6
:1002C00083B0ADF804009DF8040000F00F0000F5C5
:1002D00080108030800200F0D2F99DF804301A09B5
:1002E00001239340184214BF012000209DF80530DF
:1002F00003F00103181A18BF012003B05DF804FBD6
:1003000000B583B0ADF804009DF8053003F001039B
:100310008B4211D09DF8041001F00F0000F5801001
:1003200080300909012303FA01F189B2800200F04B
:1003300098F903B05DF804FB9DF8041001F00F007C
:1003400000F5801080300909012303FA01F189B218
:10035000800200F088F9ECE700B583B0ADF8040046
:100360009DF8041001F00F0000F58010803009099D
:10037000012303FA01F189B2800200F077F903B09A
:100380005DF804FB00B583B002AB03E903009DF800
:10039000000000F00F0000F580108030800200F0B7
:1003A0006EF9BDF80410414089B2BDF80200FFF7B4
:1003B00049FF03B05DF804FB10B582B002AB03E95E
:1003C0000300BDF8024011462046FFF75AFFBDF872
:1003D0000430584080B29DF8003003F00F0303F55D
:1003E000801380339B025A6922EA04021043586149
:1003F00002B010BD00B583B002AB03E903001146A3
:10040000BDF80200FFF73DFF9DF8003003F00F0339
:1004100003F5801380339B025A695040586103B042
:100420005DF804FB70B588B00646002519E0ECB213
:1004300004F580148034A4024FF6FF7300220321D8
:10044000204600F02FF94FF6FF7300221146204698
:1004500000F04EF94FF6FF720021204600F06EF9D1
:1004600001350EB1072DE2DD0023ADF814309DF803
:100470001410032262F303018DF81410C9B20D2089
:1004800060F307118DF81410ADF816309DF81610B2
:1004900062F303018DF81610C9B20E2060F3071144
:1004A0008DF81610ADF818309DF8181062F303019E
:1004B0008DF81810C9B20C2060F307118DF81810D0
:1004C000ADF81A309DF81A1062F303018DF81A1076
:1004D000CAB242F0F0028DF81A20ADF81C309DF837
:1004E0001C20042161F303028DF81C20D2B20921E3
:1004F00061F307128DF81C20ADF81E309DF81E2008
:10050000012161F303028DF81E209DF81F200A438C
:100510008DF81F201C46052C66DD0023ADF8083041
:10052000ADF80A309DF80A20022161F303028DF82C
:100530000A20D2B20B2060F307128DF80A209DF832
:100540000B2042F001028DF80B20ADF80C309DF825
:100550000C2061F303028DF80C20D2B2092060F365
:1005600007128DF80C209DF80D2042F001028DF845
:100570000D20ADF80E309DF80E2042F0F0028DF8FF
:100580000E209DF80F2042F001028DF80F20ADF8EB
:1005900010309DF8102061F303028DF81020D2B2C4
:1005A000062060F307128DF810209DF8112042F00C
:1005B00001028DF81120ADF812309DF8122061F380
:1005C00003028DF81220D2B2082161F307128DF8D0
:1005D00012209DF8132042F001028DF813201C46D2
:1005E000052C1FDD08B070BD08AB03EB440333F8E6
:1005F0000C3CADF80430012310E09DF8043003F00A
:100600000F0000F5801080301B09012101FA03F36F
:100610009BB20022800200F045F80023002BECD1B1
:10062000013478E708AB03EB440333F8183CADF82A
:100630000430012311E09DF8043003F00F0000F5B1
:10064000801080301B09012202FA03F39BB20022C2
:100650001146800200F026F80023002BEBD1013474
:10066000BEE781617047090481617047436901EA0F
:10067000030221EA030141EA0241816170470069F6
:1006800080B2704710B50C46FFF7F9FF204010BD4F
:100690004161704741F48033C361C161C361C36983
:1006A000C3697047F0B50668C5684FF0000C03E0F9
:1006B0000CF1010C1FFA8CFCBCF10F0F15D843FA9A
:1006C0000CF414F0010FF3D04FEA4C0E032404FA9B
:1006D0000EF426EA040601FA0EF73E4325EA040565
:1006E00002FA0EFE4EEA0505E2E70660C560F0BDBF
:1006F00010B5012906D0416821EA030141608468F0
:10070000002105E0416819434160F8E7013189B2F1
:100710000F2911D843FA01FC1CF0010FF6D04FEA63
:10072000410C4FF0030E0EFA0CFE24EA0E0402FAFE
:100730000CFC4CEA0404E9E7846010BD30B5046A9F
:10074000456A00230DE04FEA830E4FF00F0C0CFAC0
:100750000EFC24EA0C0401FA0EFE4EEA04040133F6
:100760009BB2072B05D842FA03FC1CF0010FEAD11B
:10077000F5E708230FE0A3F1080C4FEA8C0C4FF0CB
:100780000F0E0EFA0CFE25EA0E0E01FA0CFC4CEAD6
:100790000E0501339BB20F2B05D842FA03FC1CF067
:1007A000010FE8D1F5E70462456230BD03680B43F1
:1007B00003607047036823EA01030360704703681E
:1007C0000B4303607047036823EA0103036070472B
:1007D000430903F1804303F50E331A6800F01F004C
:1007E000012101FA00F0104318607047430903F13A
:1007F000804303F50E331A6800F01F00012101FA4F
:1008000000F022EA000018607047430903F18043BA
:1008100003F50E33196800F01F00012202FA00F000
:10082000014319601A6822EA000018607047430902
:1008300003F1804303F50E331A6800F01F00012115
:1008400001FA00F0104318607047430903F1804338
:1008500003F50E331A6800F01F00012101FA00F0C1
:1008600022EA000018607047044AD2F8083823F4DE
:10087000C00343EA4053C2F80838704700300240D2
:10088000032802D0052808D07047084AD2F800385B
:1008900043F48023C2F800387047044AD2F8703815
:1008A00043F00403C2F87038704700BF00300240C4
:1008B000032802D0052808D07047084AD2F800382B
:1008C00023F48023C2F800387047044AD2F8703805
:1008D00023F00403C2F87038704700BF00300240B4
:1008E0004FF0E022D2F8883D43F47003C2F8883D0F
:1008F0007047FEE77047000010B51B4B1B4903E033
:1009000051F8042B43F8042B194A9342F8D302E020
:10091000002243F8042B174A9342F9D34FF0E02208
:10092000D2F8143D43F40073C2F8143DFFF7D8FF2A
:10093000114C02E054F8043B9847104B9C42F9D309
:100940000F4C02E054F8043B98470E4B9C42F9D3FD
:10095000FFF736FC0C4C02E054F8043B98470B4B75
:100960009C42F9D310BD00BF00000020C009000860
:100970000000002000000020C0090008C009000895
:10098000C0090008C0090008C0090008C009000823
:100990008201000092010000F0010000B20100009D
:1009A000620100000000000001010000940000004E
:1009B000F3000000C3000000D3000000E3000000CB
:04000005080008F9EE
:00000001FF
