:020000040800F2
:1000000000000220C5230008C1230008BF23000808
:10001000BF230008BF230008BF2300080000000022
:10002000000000000000000000000000C1230008E4
:10003000C123000800000000C12300084904000893
:10004000BF230008BF230008BF230008BF23000808
:10005000BF230008BF23000885090008BF2300084C
:10006000BF230008BF230008BF230008BF230008E8
:10007000BF230008BF230008BF230008BF230008D8
:10008000BF230008BF230008BF230008BF230008C8
:10009000BF230008BF230008BF2300084113000846
:1000A000BF230008BF230008BF230008BF230008A8
:1000B000BF230008BF230008BF230008BF23000898
:1000C000BF230008BF230008BF230008BF23000888
:1000D000BF230008BF230008BF230008BF23000878
:1000E000D5120008BF230008BF230008BF23000863
:1000F000BF230008BF230008BF230008BF23000858
:10010000BF230008BF230008BF230008BF23000847
:10011000BF230008BF230008BF230008B504000860
:10012000BF230008BF230008BF230008BF23000827
:10013000BF230008BF230008BF230008BF23000817
:10014000BF230008BF230008BF230008BF23000807
:10015000BF230008BF230008BF230008BF230008F7
:10016000BF230008BF230008BF230008BF230008E7
:10017000BF230008BF230008BF230008BF230008D7
:10018000BF230008BF230008BF230008BF230008C7
:10019000BF230008BF230008BF230008BF230008B7
:1001A000BF230008BF230008BF230008BFB540F2EB
:1001B000036001F0DCFF384B1D785B7845EA0325CE
:1001C000284600F0BBF8284600F08CF800F002FF4B
:1001D00000F038FF314800F0E9FE00F03DF962B66A
:1001E00000F05EFB2D482E4C00F0FEFA00231A466C
:1001F00001212A4800F06EFAC821284800F0DAFAF6
:10020000264800F01DFB274B18785B7840EA032056
:10021000039000F093F8039800F053F8204601F0A3
:10022000F1FC284600F04DF894F8262094F8273089
:100230009A4204D319480022214601F085FBDFF8D9
:100240006C80164E164D30BF0127227E009704A900
:100250004346304600F048FE227E04A9284600F0BE
:1002600033FE20B12946304601F0E4FBEBE7227E65
:100270000D4804A900F028FE38B1284601F092FB91
:100280002946304601F0C6FADDE73A4629463046AF
:1002900001F05AFBD7E700BF4225000838000020D4
:1002A000010000204025000811000020282500083A
:1002B000012303FA00F0704700F5801080308002BF
:1002C000704782B0C0F30313ADF8040000F00F00D4
:1002D000012100F580109940803089B2800202B07F
:1002E00001F0D8BE82B0C0F30313ADF8040000F0F3
:1002F0000F00012100F580109940803089B2800202
:1003000002B001F0C5BE0A460123C0F303118B40C1
:1003100082B099B200F00F0303F58013ADF804002A
:100320008033C0F300209B029042184602D002B0F6
:1003300001F0AEBE02B001F0ADBE000017B4214B1B
:10034000ADF804001B78C0B2834234D01E4B1B783A
:10035000834230D01D4B1B7883422CD01C4B1B7822
:10036000834228D01B4B1B78834227D01A4B1B7823
:10037000834223D0194B1B7883421FD0184B1B7824
:1003800083421BD0174B1B78834217D0164B19782A
:10039000091A18BF01210022040900F00F000123EF
:1003A00000F58010A34080309BB2800203B05DF85E
:1003B000044B01F075BE00220121EDE7012200216E
:1003C000EAE700BF42250008402500084425000850
:1003D0003E2500083225000834250008362500088F
:1003E000382500083A2500083C250008F7B502AB7F
:1003F00003E903000020BDF802600546044601271A
:1004000046FA04F3DB070AD542FA05F313F00103B9
:100410001CBF07FA04F10BB2034398B20135013453
:10042000102CEDD19DF80020BDF8043002F00F0231
:1004300002F58012803292024340516921EA06019E
:100440000B43536103B0F0BD024A136801331360DC
:10045000704700BF6800002008B502F021F80420B2
:1004600002F006F802F00EF84FF47A5001F0FAFFAD
:100470004FF0E0234FF47A529A610221FF2002F0FC
:100480003BF8FF2002F01CF8034B00221A60BDE885
:10049000084001F0FEBF00BF68000020044A136856
:1004A00018441368834200D9704730BFF9E700BF92
:1004B000680000200148012101F067BE00140040DF
:1004C00070B5C8B1D0E906531BB9ADB108462B468B
:1004D00008E04FF47A74B1FBF4F004FB101425B972
:1004E00004B10130BDE870401847B1F57A7F00D300
:1004F00098470CB12046EAE770BD0000030607D517
:100500006D30C0B26C2802D8024B185C7047FF20D7
:10051000704700BFD4250008264B70B51D7805F044
:100520000F00FFF7C9FE04462809FFF7C1FE0022AD
:10053000012183B2204601F0B3FD1F4B1D7805F069
:100540000F00FFF7B9FE04462809FFF7B1FE0022AD
:10055000012183B2204601F0A3FD184B1D7805F060
:100560000F00FFF7A9FE04462809FFF7A1FE0022AD
:10057000012183B2204601F093FD114B1D7805F057
:100580000F00FFF799FE04462809FFF791FE83B29A
:1005900020460C4C0022012101F082FD207800F061
:1005A0000F00FFF789FE63880022BDE8704001213B
:1005B00001F076BD462500085025000852250008A8
:1005C0004E25000848250008836870B51A7804464F
:1005D00058780D4642EA00200121FFF794FE236877
:1005E0005E791979186805F00F0241EA0621FFF7D4
:1005F000FDFE20460121FFF763FFA3681A785878B3
:10060000002142EA0020FFF77EFE20460121BDE8DE
:100610007040FFF755BF38B590F82030DB0704462F
:100620000D4609D50909FFF7CFFF05F00F01204658
:10063000BDE83840FFF7C8BF38BD70B515461E4647
:100640000446D8B190F82830DB0717D5C36803B942
:10065000BAB963681A78587842EA0020FFF753FE67
:10066000E3681A785878294642EA0020FFF74BFEE3
:1006700020463178FFF7CFFF002070BD4FF0FF30EC
:10068000FBE76FF00200F8E773B5164600228DF81D
:1006900007100DF1070311460546FFF7CEFF04468C
:1006A00018B931462846FFF70BFF204602B070BD4F
:1006B00040F2FA520121FFF7E7BF40F2FA5202215D
:1006C000FFF7E2BF42EA410141F004012722C9B22B
:1006D000FFF7DABF43EA810141EA420141F0080134
:1006E0002722C9B2FFF7D0BF0B060AD43AB111F0E6
:1006F000C00F06D1402327221943FFF7C5BF80232F
:10070000F9E76FF00300704713B5002204468DF837
:1007100007100DF107030121FFF78FFF2B21204662
:10072000FFF7CEFE02B010BD10B5436A044608467E
:10073000984701462046BDE81040FFF7E5BF4368F3
:1007400010B51A7804465878002142EA0020FFF7D5
:10075000DAFDE3681A785878002142EA0020FFF7B2
:10076000D2FD20460321FFF72FFF204641F204016E
:10077000FFF7A6FE20460221FFF726FF2046642150
:10078000FFF79EFE20460221FFF71EFF204627218D
:10079000FFF796FE00231A4601212046FFF79AFF35
:1007A0002046FFF785FF20460022BDE810400121CA
:1007B000FFF788BF10B5A0B144691CB10846A04737
:1007C000002010BD026962B113785278204643EAD6
:1007D0000223003963F30F0018BF0121FFF793FDD7
:1007E000EEE76FF00300ECE708B5D8B10368E3B1BA
:1007F0004368D3B18368C3B183690BB9C369A3B13B
:1008000090F82030DB0713D5436A0BB90A4B4362DB
:1008100090F8283043F0010380F82830FFF78FFF6D
:10082000002008BD6FF00300FBE76FF00400F8E75D
:100830006FF00100F5E700BFFD04000870470000FD
:100840002DE9F041154B90B06A46044603F140078C
:10085000154618685968164603C60833BB42324627
:10086000F7D1012200212046FFF73EFF0027A846CE
:10087000002618F8011B20460136FFF745FF082E19
:10088000F7D10137082F05F10805F0D100221146F4
:10089000204610B0BDE8F041FFF726BF94250008C0
:1008A00010B50B21062001F027FE304C4FF4C0603C
:1008B00001F05DFC002211460123204601F0F0FB0F
:1008C00040F68E0001F053FC2146012001F0E6FACB
:1008D0000021012001F0A2FA012001F0C3FA012059
:1008E00001F0CEFA062001F0EBFD4FF40073204832
:1008F0000222002101F0F4FB1D484FF40072012197
:1009000001F009FC4FF4007300220221184801F0A5
:10091000C7FB4FF40860A4F5803401F028FC0023E5
:100920001A461946204601F033FC3E21204601F0CC
:1009300042FC204601F035FC2046FF2101F03DFC41
:1009400006222046002101F03AFC0021204601F059
:10095000FCFC204601F02EFD00222046114601F04D
:1009600019FD2046BDE8104001F020BC0000024007
:100970000010024002460021014801F00BBD00BFFB
:100980000000014010B5074C074821780139C9B271
:10099000FFF710FF2378103323700120BDE81040CB
:1009A00001F06EBA6C00002038000020F0B5682A13
:1009B00085B006460C4628D0622A26D0002905D1EB
:1009C000302105B0BDE8F040FFF7AEBE03DA2D21BF
:1009D000FFF7AAFE64426A46002317460A20B4FBCA
:1009E000F0F100FB1144303402F8014B1D460C4677
:1009F00001330029F3D104AA134403F8101C795DD4
:100A00003046FFF791FE013DF9D205B0F0BD000080
:100A100013B50B4C019022784AB9402101A8FFF789
:100A200063FE2378C3F10103237002B010BD4FF4BD
:100A30007A70FFF733FD01A8FFF73AFEF1E700BF38
:100A40006D0000200EB478B5059D0446013D0026DA
:100A500015F8011F19B9BDE8784003B070470A299D
:100A600009D12046FFF7D4FF01360F2EF0DD2046D6
:100A7000FFF7CEFFEBE7092908D120212046FFF739
:100A800053FE20212046FFF74FFEEDE70D292046BB
:100A9000F9D1FFF712FEE7E74B1E062B88BF0021B6
:100AA000FFF732BE3B2970B505460C461AD83021F7
:100AB000FFF73AFE30212846FFF736FE3A21284656
:100AC000FFF732FE3C21B4FBF1F301FB1344E4B920
:100AD00028463021FFF728FE28463021BDE8704027
:100AE000FFF722BEB1F5167F4FF03C06B1FBF6F6DC
:100AF00008D23021FFF718FE002231462846FFF7C2
:100B000055FFDBE700223146F9E7092C03D83021F5
:100B10002846FFF709FE214628460022BDE870401E
:100B2000FFF744BF38B5044619B9BDE83840FFF7B0
:100B3000BFBD012911D100221146FFF7D5FD1025B7
:100B400020212046FFF7F0FD013DF9D12A46294634
:100B50002046BDE83840FFF7C7BD02290DD100226D
:100B60004021FFF7C1FD102520212046FFF7DCFDC5
:100B7000013DF9D12A464021EAE738BD70B50E465D
:100B800004461546FFF794FD002211462046FFF764
:100B9000ABFD1EB131462046FFF754FF0022402135
:100BA0002046FFF7A1FD2DB129462046BDE8704043
:100BB000FFF748BF70BD000070B5154600220E4615
:100BC00011460446FFF790FD7EB104212046FFF751
:100BD00063FF002240212046FFF786FD55B12046E5
:100BE0000421BDE87040FFF757BF05492046FFF7D5
:100BF00029FFEEE720460249BDE87040FFF722BF1B
:100C0000412600082DE9F84FD2F80130DFF8F480D2
:100C1000054689461746D3E90012FFF7AFFF0022C9
:100C200001212846FFF7C8FF00263446B24630BFF0
:100C300098F80030002BFAD0052B1FD188F800A0BF
:100C4000002C5CD0D7F8053053F8243013B1494656
:100C500028469847D7F8013003EB860253F8261050
:100C600052682846FFF78AFFB44207BF00220121DD
:100C7000012200212846FFF79FFFD8E7012B11D161
:100C8000013CE4B23B78A3429CBF03F1FF33DCB2EA
:100C9000A6420BD1002201212846FFF78DFF88F8DC
:100CA00000A0C4E7022BEDD10134EAE7A21B012A20
:100CB00001D10021F0E7022A0DD1D7F80110731CF1
:100CC000DEB201EB86022846526851F82610FFF783
:100CD00055FF0122EDE7A6EB040BBBF1010FDED1BE
:100CE000D7F80110731EDEB201EB86022846526867
:100CF00051F82610FFF742FF00225946CCE7BDE825
:100D0000F88F00BF640000202DE9F3410B783C2BE5
:100D1000074688463CD93C2388F8003098F80030D4
:100D200064220A25B3FBF2F6B3FBF5F402FB163698
:100D300005FB1433DCB20022462138468DF805400D
:100D4000F6B2B6FBF5F68DF80460FFF7CDFC314640
:100D500000223846FFF72AFE214600223846FFF7D8
:100D600025FE2D4E002430BF3378002BFBD0052B01
:100D700012D19DF804309DF8052003EB830302EBAC
:100D8000430388F800300023337002B0BDE8F081DF
:100D9000002BC3D10123BFE7012B27D102AB1A19C6
:100DA00012F8043C0133B3FBF5F105FB113302F8F3
:100DB000043C9DF804309DF8052015FB03233C2BD3
:100DC00024DD00238DF8043004F146010022C9B26D
:100DD0003846FFF789FC02AB2344002213F8041CB9
:100DE0003846FFF7E3FD00233370BCE7022B05D143
:100DF00002AB1A1912F8043C0933D4E7042B03D0D0
:100E0000032B08BF0124D4E70024D2E7002BDBD159
:100E100001238DF80530D7E7640000202DE9F04765
:100E20001E4613780B701746054688460221FFF7C9
:100E300079FE1E49DFF878A0DFF870902846FFF7AA
:100E400001FE397800222846FFF7B0FD002430BFAC
:100E50009AF80030002BFAD0052B07D13B5D88F8BB
:100E6000003000238AF80030BDE8F087012B16D14E
:100E70000134B4FBF6F306FB1344E4B20221284626
:100E8000FFF750FE49462846FFF7DCFD395D00229A
:100E90002846FFF78BFD00238AF80030D7E7022BA6
:100EA000ECD1013C344494FBF6F3E4E7432600081C
:100EB00064000020034B30BF1A78052AFBD10022C2
:100EC0001A7070476400002030B500230139DCB28D
:100ED000A24201D8012030BDC45C0133CD5CA542E3
:100EE000F5D00020F7E700002DE9F0470D461C463D
:100EF00017460646002128469DF82090DFF8A8A056
:100F000000F03CFF22463946304600F02DF900241F
:100F1000A0469AF8003003B9FEE7052B04D1002360
:100F20008AF80030BDE8F087012B16D12B5D013324
:100F30000A22B3FBF2F102FB11332B5504F14201FB
:100F40000022C9B23046FFF7CFFB295D00223046B0
:100F5000FFF72CFD8AF80080DBE7022B02D12B5D26
:100F60000933E5E7B9F1000F0AD004F14201C9B233
:100F700000223046FFF7B8FB04213046FFF78CFD16
:100F80009AF80030032B08D1013464B2002C08DB3E
:100F9000BC42D3DB7C1E64B2D0E7042BF6D1013C0B
:100FA000F3E70024CAE700BF6400002010B540F258
:100FB000046001F0DCF8FFF7AFFA054B19795C79B2
:100FC0001868002241EA0421FFF710FA10BD00BFA3
:100FD0004825000808B54FF4C06001F0C8F840F299
:100FE000026001F0C4F8124B1A78587842EA0020E7
:100FF000FFF7A4F90F4B1A78587842EA0020FFF760
:101000009DF90D4B1A78587842EA0020FFF796F9BF
:101010000A4B1A78587842EA0020FFF78FF9084BFC
:101020001A78587842EA0020FFF788F908BD00BF17
:101030003225000834250008362500083825000828
:101040003A25000810B54FF4A06001F030FA40F6E0
:101050008E0001F08CF80821282001F04DFA31496A
:10106000314C4FF4004000F019FF01214FF40040D3
:1010700000F0D4FE4FF4004000F0F4FE4FF40040C6
:1010800000F0FEFE21464FF4006000F007FF012152
:101090004FF4006000F0C2FE4FF4006000F0E2FE8A
:1010A0004FF4006000F0ECFE282001F009FA08215E
:1010B000172001F021FA2146402000F0EFFE012127
:1010C000402000F0ABFE402000F0CCFE402000F0BD
:1010D000D7FE21464FF4807000F0E0FE01214FF46E
:1010E000807000F09BFE4FF4807000F0BBFE4FF468
:1010F000807000F0C5FE21464FF4007000F0CEFE77
:1011000001214FF4007000F089FE4FF4007000F0F0
:10111000A9FE4FF4007000F0B3FE172001F0D0F9E3
:1011200010BD00BF000002400008024070B50E462E
:1011300004461546FFF7BCFA002211462046FFF789
:10114000D3FA1EB131462046FFF77CFC0022402135
:101150002046FFF7C9FA2DB129462046BDE8704068
:10116000FFF770BC70BD0000F8B5044616460D468A
:10117000FFF79EFA002211462046FFF7B5FA0C4B06
:101180000C4F19782046FFF787FC31462046FFF7C1
:1011900059FC002242212046FFF7A6FA0026AE4263
:1011A00000D1F8BD39462046FFF74CFC0136F6E782
:1011B0000000002047260008F8B5151E0D4F064612
:1011C00018BF40250C46002C00DAF8BD0022294645
:1011D0003046FFF789FA39463046FFF733FC21469F
:1011E0003046FFF75FFC4FF47A70FFF757F9013C88
:1011F000E9E700BF4326000810B50446FFF758FA98
:10120000002211462046FFF76FFA20460621FFF71D
:1012100043FC20460249BDE81040FFF713BC00BF65
:101220004926000810B50446FFF742FA002211468D
:101230002046FFF759FA054B20461978FFF72CFC9A
:1012400020460349BDE81040FFF7FCBB000000202A
:1012500052260008F7B5ADF8040000F00F00FFF7C4
:101260002BF805469DF804000009FFF721F80A2431
:1012700006460027284600F010FF30420BD19DF8AB
:101280000530D80707D50137013CF3D1042F0CDC1A
:10129000204603B0F0BD284600F0FFFE3042F3D0F8
:1012A0009DF80530D907EED5EEE7284600F0F5FEAB
:1012B000304203D19DF80530DA07F6D4284600F015
:1012C000ECFE304203D09DF80530DB07EDD5012060
:1012D000DFE7000010B54FF4006000F0D7FD0446D2
:1012E00080B1144B1A78587842EA0020FFF7B2FF19
:1012F00010B1114B03221A704FF40060BDE810408A
:1013000000F0BEBD4FF4004000F0C0FD80B10B4ABC
:1013100013785278204643EA022363F30F00FFF765
:1013200099FF10B1044B05221A704FF40040E5E715
:1013300010BD00BF322500086400002034250008DD
:1013400038B5402000F0A2FD054678B11E4B1A7852
:10135000587842EA0020FFF77DFF10B11B4B0122B5
:101360001A704020BDE8384000F08ABD4FF480700C
:1013700000F08CFD044680B1154A13785278284657
:1013800043EA022363F30F00FFF764FF10B10F4B32
:1013900002221A704FF48070E4E74FF4007000F0FE
:1013A00075FD80B10B4A13785278204643EA022338
:1013B00063F30F00FFF74EFF10B1044B04221A70C5
:1013C0004FF40070CEE738BD3825000864000020D7
:1013D0003A250008362500082DE9F043384BA3B024
:1013E00010AA04460D4603F1100C174618685968F8
:1013F000164603C6083363453246F7D1314B0CAA73
:1014000003F1080E944618685968164603C6083357
:1014100073453246F7D1186899889B79B3712A4B86
:10142000306004AAB18003F1080E9046186859682C
:10143000164603C6083373453246F7D118681B7940
:101440003371224B306008AA03F1080996461868E8
:101450005968164603C608334B453246F7D118681B
:101460009B88B380002330601D93194B1E93194B4A
:101470001F93194B2093CDE91A8E184B14AACDE96E
:10148000187C03F1100C174618685968164603C6F5
:10149000083363453246F7D1114B219305238DF86C
:1014A000043018ABCDF8053001AA1DAB2946204603
:1014B0001C97CDF80930FFF7A5FB23B0BDE8F083FA
:1014C0006126000871260008802600088D26000885
:1014D0005516000809160008BD1500089B260008CF
:1014E00071150008F0B51D4B93B00EAA06460C46C8
:1014F00003F1100C174618685968154603C50833E0
:1015000063452A46F7D1164A94F829501068516865
:10151000144A089701AB03C310685168124A03C309
:1015200007CA01AB099303AB0A930BAB83E807002F
:1015300003228DF8142008AACDF81520214605AA0B
:101540003046CDF81930FFF75DFB94F82930AB42F7
:101550001EBF064B01221A7013B0F0BD61260008B1
:10156000AB260008B3260008A02700086E00002064
:10157000F7B50F4B0E461A8816F8347F9B78ADF8F6
:10158000042005460C4600220A498DF80630FFF774
:10159000CDFD01AA032331462846FFF73FFC94F80E
:1015A0003430BB421EBF044B01221A7003B0F0BDA1
:1015B000C9260008BB2600086E000020F7B50F4BB7
:1015C0000E461A8816F8277F9B78ADF8042005464A
:1015D0000C4600220A498DF80630FFF7A7FD01AA44
:1015E000032331462846FFF719FC94F82730BB4205
:1015F0001EBF044B01221A7003B0F0BDCD260008B7
:101600008E2600086E000020F7B50F4B0E460546EB
:1016100016F8287F186800901B798DF804300C4666
:1016200000220A492846FFF781FD6A460523314614
:101630002846FFF7F3FB94F82830BB421EBF044B4B
:1016400001221A7003B0F0BDD126000881260008DF
:101650006E000020F8B50E46002256F81E7F0C469C
:1016600005460849FFF762FD31462846FFF74CFB67
:10167000D4F81E30C4F82230BB421EBF024B0122F8
:101680001A70F8BDD72600086E00002008B50022A9
:1016900081F829200349FFF749FDBDE80840FFF71D
:1016A00009BC00BFE6260008F8B50E46054656F808
:1016B0001A7F0C4600220D49FFF738FD31462846B7
:1016C000FFF722FBD4F81A200949BA4218BF094A89
:1016D0004FF0010318BF137084F829302846002208
:1016E000FFF724FDBDE8F840FFF7E4BBF52600084E
:1016F000032700086E0000202DE9F04389B0012780
:101700000D460097904699460A7E314B04A9002663
:1017100004468DF80F60FFF7E7FB2A7E294604A8F0
:10172000FFF7D2FB002849D06A7E2A4B009704A914
:101730002046FFF7D9FB6A7E05F1080104A8FFF7F0
:10174000C3FB00283AD0244B24491A88ADF818204E
:101750009B788DF81A3032462046FFF7E7FC0323CA
:1017600006AA0DF10F012046FFF758FB1C4B9DF810
:101770000F20009604A92046FFF7B6FB9DF80F2026
:10178000184B009606A92046FFF7AEFB9DF80F20E8
:1017900006A904A8FFF798FB98B19DF80F2089F8D7
:1017A000002004A9404600F04FFA0F4A0F49204696
:1017B000FFF7BCFC0E4B1F70FFF77CFB09B0BDE8C8
:1017C000F0830C4A0C492046FFF7B0FCF4E700BF59
:1017D000122700081D2700087D2700082A27000877
:1017E000352700083F27000847270008532700082F
:1017F0006E00002061270008712700080A4601F1E9
:1018000019030832FFF778BF0A4601F11803FFF702
:1018100073BF0000F0B5A3B001230C4600934A7ECD
:10182000384B05A90746FFF75FFB627E04F108010C
:1018300005A8FFF749FB002861D0334B14AA03F138
:10184000100C164618685968154603C508336345D9
:101850002A46F7D12D4A1068516812890AAB03C392
:101860001A802B4B10AA03F1080E94461868596889
:10187000154603C5083373452A46F7D1254A18682B
:101880002860516810681B792B710DAB03C3118957
:10189000927A19809A70204B189618689B88ADF838
:1018A00010300AABCDE9193C1C4E03900DAB1B93D5
:1018B00003AB1C930FCE1DAD0FC533682B60052302
:1018C0008DF81C3018ABCDF81D3007AA1DAB214692
:1018D0003846CDF82130FFF795F9114B1B7833B11D
:1018E00000F029F8204600F061F900F01BF894F8A8
:1018F000273084F82630D4F81E30C4F8223023B0C4
:10190000F0BD00BF1D27000861260008282500083B
:10191000812700088E27000899270008AC270008B7
:101920006E00002008B5282000F0CAFDBDE8084080
:10193000172000F0C5BD08B5282000F0CFFDBDE898
:101940000840172000F0CABD70B5054616460C4683
:10195000FFF7F1FF2846FEF7ABFE2846FFF762FCD3
:101960003EB194F82630013384F82630204600F04A
:101970001DF994F8262094F827309A420DD3D4F814
:10198000221001222846FFF717FC36B1D4F8223086
:1019900094F828205343C4F82230BDE87040FFF784
:1019A000C1BF0000064B10B51A780446587842EAC9
:1019B0000020FEF786FC002384F82A3010BD00BF0B
:1019C00040250008064B10B51A780446587842EABC
:1019D0000020FEF787FC012384F82A3010BD00BFE9
:1019E0004025000838B50C460546FFF7A4FF204601
:1019F000FFF7E8FF2846FFF7FFFBD4F81A10284648
:101A00000122FFF7D9FB2046FFF7CCFFBDE83840A5
:101A1000FFF788BF90F82A3010B5054C23B1FFF7C7
:101A2000C1FF0523237010BDFFF7CCFF0623F9E7A4
:101A300000000020002281F82620D1F81E20C1F8E5
:101A4000222091F829200AB1FFF7CCBF0846FFF702
:101A5000E1BF30B54B1E421ECC1D13F8015F02F8EA
:101A6000015FA342F9D101F10803C21D01F1100485
:101A700013F8015B02F8015FA342F9D100F10F02F4
:101A800001F1180413F8015B02F8015FA342F9D1D8
:101A90000B7E03764B7E4376D1F81A30C0F81A30AD
:101AA000D1F81E30C0F81E30D1F82230C0F82230F4
:101AB00091F8263080F8263091F8273080F82730CA
:101AC00091F8283080F8283091F8293080F82930B2
:101AD0000346002203F82A2F01F1330401F12B02FF
:101AE00012F8015B03F8015FA242F9D14B7E80F846
:101AF000333091F8343080F8343030BD30B5431E87
:101B00004A1EC41D13F8015F02F8015FA342F9D118
:101B100001F1080200F10F0413F8015F02F8015B04
:101B2000A342F9D101F1100200F1170413F8015F8B
:101B300002F8015BA342F9D1037E0B76437E4B761C
:101B4000D0F81A30C1F81A30D0F81E30C1F81E3063
:101B5000D0F82230C1F8223090F8263081F82630B3
:101B600090F8273081F8273090F8283081F8283015
:101B700090F82930003B18BF012381F82930002359
:101B800081F82A3001F12B0200F12A0300F132041E
:101B900013F8015F02F8015BA342F9D190F83330EA
:101BA0004B7690F8343081F8343030BD30B58FB09A
:101BB0000546FFF7C0FE114B1C785B7844EA03240E
:101BC0002046FEF78FFB00F0D7F900210B2000F034
:101BD00025FA29466846FFF73CFFBFF35F8F3522A1
:101BE0006946074800F00CFA00F0D4F92046FEF7E9
:101BF00068FBFFF797FE0FB030BD00BF422500081D
:101C000000000E0810B590B00190FFF794FE0C4A4A
:101C10000C48019902F1774303F5720312F8014B66
:101C20000DF1400C6344824203F8384CF2D1BFF30B
:101C30005F8F02A8FFF762FFFFF774FE10B010BDC0
:101C400000000E0835000E08844641EA000313F038
:101C500003036DD1403A41D351F8043B40F8043BB3
:101C600051F8043B40F8043B51F8043B40F8043B76
:101C700051F8043B40F8043B51F8043B40F8043B66
:101C800051F8043B40F8043B51F8043B40F8043B56
:101C900051F8043B40F8043B51F8043B40F8043B46
:101CA00051F8043B40F8043B51F8043B40F8043B36
:101CB00051F8043B40F8043B51F8043B40F8043B26
:101CC00051F8043B40F8043B51F8043B40F8043B16
:101CD00051F8043B40F8043B403ABDD2303211D3B6
:101CE00051F8043B40F8043B51F8043B40F8043BF6
:101CF00051F8043B40F8043B51F8043B40F8043BE6
:101D0000103AEDD20C3205D351F8043B40F8043BB5
:101D1000043AF9D2043208D0D2071CBF11F8013BB3
:101D200000F8013B01D30B8803806046704700BF79
:101D3000082A13D38B078DD010F003038AD0C3F188
:101D40000403D21ADB071CBF11F8013B00F8013B6A
:101D500080D331F8023B20F8023B7BE7043AD9D329
:101D6000013A11F8013B00F8013BF9D20B780370FE
:101D70004B7843708B78837060467047F0B4860769
:101D800046D0541E002A3CD0CAB2034601E0013CB2
:101D900037D303F8012B9D07F9D1032C2AD9CDB2F3
:101DA00045EA05250F2C45EA054534D9A4F1100272
:101DB00022F00F0C03F120071609674403F110020B
:101DC00042E9045542E902551032BA42F8D1721C78
:101DD00014F00C0F03EB021204F00F0613D0331FA4
:101DE00023F003030433134442F8045B9342FBD112
:101DF00006F003042CB1CAB21C4403F8012B9C4228
:101E0000FBD1F0BC704734461346002CF3D1F8E701
:101E100014460346C1E71A462646E0E701290FD0DB
:101E2000022918D059B90E4BD3F8082C0243C3F835
:101E3000082CD3F80C2C22EA0000C3F80C0C7047D5
:101E4000074BD3F8082C22EA0002C3F8082CD3F879
:101E50000C2C1043F1E7024BD3F8082C0243F4E7B3
:101E600000300140054BD3F8002C0243C3F8002C8E
:101E7000D3F8042C1043C3F8040C70470030014021
:101E8000014BC3F8140C704700300140024BD3F8EB
:101E9000143C1840704700BF003001402DE9F04F5E
:101EA0002B4FDFF8C0E0DFF8C080DFF8C090DFF82C
:101EB000C0A0DFF8C0B084460022012303FA02F07C
:101EC00010EA0C0F1DD02348814237D026D8A0F548
:101ED0004060814234D019D8514503D059450CBFD8
:101EE000022300231C4800EB9204A40002F0030527
:101EF0002068AD000F26AE4020EA0600AB40184334
:101F000020600132102AD8D1BDE8F08F494519D0A0
:101F1000124B99420CBF05230023E3E7B94213D0CB
:101F200006D8714512D041450CBF08230023D9E7DC
:101F30000B4B99420CBF0A230023D3E70623D1E7BA
:101F40000323CFE70423CDE70923CBE70723C9E722
:101F50000024024000180240024E0010001402400B
:101F600000280240001C02400020024000100240F5
:101F70000004024000080240044B054AC3F8042C48
:101F800002F18832C3F8042C704700BF00300240D1
:101F900023016745034AD2F8103C43F00043C2F8DE
:101FA000103C704700300240064BD3F8101C21F45F
:101FB0004071C3F8101CD3F8102C42EA0020C3F87B
:101FC000100C70470030024070B50C4C0E460546B0
:101FD00000F0A2FA0020FFF7E7FFD4F8103C43F02E
:101FE0000103C4F8103C2E7000F096FAD4F8103CAF
:101FF00023F00103C4F8103C70BD00BF0030024064
:1020000070B58D180C46461AAC4200D170BD30191F
:1020100014F8011BFFF7D8FFF6E7000037B51B4D9A
:102020000191044600F078FA0198FFF7BDFFD5F85A
:10203000103C0B2C88BF043423F0F803C5F8103C87
:1020400088BFE4B2D5F8103CE400E4B21C43C5F804
:10205000104CD5F8103C43F00203C5F8103CD5F8FD
:10206000103C43F48033C5F8103C00F055FAD5F825
:10207000103C23F00203C5F8103CD5F8103C23F0C7
:10208000F803C5F8103C03B030BD00BF003002407B
:1020900081617047090481617047006980B27047AF
:1020A0002DE9F0410568C46800264FF0030E43FA9D
:1020B00006F7FF070DD577000EFA07FC01FA07F8BF
:1020C00025EA0C0524EA0C0402FA07F748EA05059C
:1020D0003C430136102EEAD10560C460BDE8F081B2
:1020E000012941680CBF19439943F0B541608168EB
:1020F0000024032643FA04F5ED0707D5650006FA28
:1021000005F721EA070102FA05F529430134102CED
:10211000F0D18160F0BDF0B5076A466A00234FF048
:102120000F0C42FA03F4E50707D59D000CFA05F4FD
:1021300027EA040701FA05F52F430133082BF0D1F4
:1021400000234FF00F0C03F1080442FA04F4E407F3
:1021500007D59C000CFA04F526EA050601FA04F4FA
:1021600026430133082BEED107624662F0BD4309D6
:1021700003F1804303F50E3300F01F0019680122BC
:1021800002FA00F0084318607047C94301617047C4
:1021900010B50468134324F45C74194321430160AF
:1021A00010BD036843F0800303607047036843F089
:1021B00001030360704781627047C162704706295E
:1021C0007AD8DFE801F00479337963799200836982
:1021D00023F00303836183698361836923F07003C0
:1021E0008361072A68D8DFE802F03304090D11156E
:1021F000191D836943F0100383617047836943F0BD
:102200002003F9E7836943F03003F5E7836943F07E
:102210004003F1E7836943F05003EDE7836943F03E
:102220006003E9E7836943F07003E5E7836923F41A
:102230004073836183698361836923F4E04383612D
:10224000072A39D8DFE802F004060A0E12161A1E11
:102250008369D1E7836943F48053CDE7836943F40D
:102260000053C9E7836943F44053C5E7836943F4E6
:102270008043C1E7836943F4A043BDE7836943F426
:10228000C043B9E7836943F4E043B5E7C36923F08A
:102290000303C361C369C361C36923F07003C361EE
:1022A000072A09D8DFE802F03304090D1115191DBA
:1022B000C36943F01003C3617047C36943F020034F
:1022C000F9E7C36943F03003F5E7C36943F040031E
:1022D000F1E7C36943F05003EDE7C36943F06003DE
:1022E000E9E7C36943F07003E5E7C36923F440738A
:1022F000C361C369C361C36923F4E043C361072AAF
:10230000DAD8DFE802F004060A0E12161A1EC369B4
:10231000D1E7C36943F48053CDE7C36943F4005365
:10232000C9E7C36943F44053C5E7C36943F4804335
:10233000C1E7C36943F4A043BDE7C36943F4C043A5
:10234000B9E7C36943F4E043B5E7062909D8DFE8F4
:1023500001F0041509190D1D1100036A43F0010372
:1023600003627047036A43F01003F9E7036A43F41A
:102370008073F5E7036A43F48053F1E7036A43F09F
:102380000403EDE7036A43F04003E9E7036A43F41B
:102390008063E5E706290CD8DFE801F0040B060BA3
:1023A000080B0A004263704782637047C26370473C
:1023B00002647047436C43F4004343647047FEE794
:1023C0007047000038B51D4A1D4B1E498B4220D373
:1023D0001D4A0021934221D34FF0E0231B4CD3F838
:1023E000142D1B4D42F40072C3F8142DD3F8882D20
:1023F00042F47002C3F8882DAC4212D3154C164D2E
:10240000AC4212D3FDF7D2FE144C154DAC4210D3A2
:1024100038BD52F8040B43F8040BD7E743F8041B0C
:10242000D8E754F8043B9847E6E754F8043B98474C
:10243000E6E754F8043B9847E8E700BFC0270008E8
:10244000000000206400002070000020C027000869
:10245000C0270008C0270008C0270008C0270008C0
:10246000C02700084FF0E02320F07F4058617047FC
:102470004FF0E02200F00400136923F0040303434B
:10248000136170474FF0E022136943F002031361B8
:1024900070474FF0E022136943F001031361704766
:1024A0004FF0E022136923F001031361704740F0FD
:1024B000BF604FF0E02340F40030C3F80C0D7047CC
:1024C000054B420903EB820300F01F00012202FAD0
:1024D00000F01860704700BF00E100E0054B4209C2
:1024E00003EB820300F01F00012202FA00F01860E3
:1024F000704700BF80E100E05A2893BF00F16040C0
:10250000044B00F00F0000F564408CBFC154017013
:10251000704700BF14ED00E0024AD2F80C3CDB0328
:10252000FBD47047003002402050617373776F72A4
:102530006400B201F0019201620182010000F30027
:10254000C300D300E3009400040000F00000B400D6
:102550007400A40000011F101010100000000E10E5
:102560001C110E00000A0004040404000E11101CCB
:1025700010110E00011F1010101010000A040404A6
:10258000040404001010101E11111E00001B1F1F58
:102590000E0E0400040E1F040404040004040404CA
:1025A0001F0E04000004061F0604000000040C1F98
:1025B0000C040000000E1F1F1F0E0000000E111162
:1025C0001F1F1F000E1111011F1F1F0000110A0401
:1025D0000A110000CACBFFFFFFFFFFFFFFFFFFFF55
:1025E000FFFFFFFFFFFF04FFFFA2FF03C8FFFFFF86
:1025F00005EFFF496900FFFFDFB5CC01C9FFFFFF11
:102600000241A042A1E045A3A4A5A64BA74D484F77
:10261000A8504354A9AA58E1ABACE2ADAE06AFB0A6
:10262000B161B2B3B4E365B6B7B8B9BABBBCBD6FFC
:10263000BE7063BF79E478E5C0C1E6C2C3C4C5C655
:10264000C72000090909005F002057656C636F6DA2
:102650006500204163636573732064656E6965641A
:102660000020476F206261636B20285361766529E3
:1026700000204D696E696D616C2064656C61790044
:1026800020436F656666696369656E7400204372F6
:1026900069746963616C206C6F77002043726974A0
:1026A0006963616C20686967687400204D6F6465B8
:1026B000203100204D6F64652032004372697469D7
:1026C00063616C20686967680003050A00010305FF
:1026D00000010204080A004D696E207761697420C8
:1026E00064656C6179004D6F646520322077617399
:1026F000207365740057656C636F6D652064656C4D
:102700006179004D6F6465203120776173207365B6
:1027100074002055736572207061737300204D61E1
:1027200073746572207061737300536574206C65F7
:102730006E677468004E657720706173733A00208D
:1027400052657065617400776173206368616E67BC
:10275000656400537563636573732E2050617373F2
:1027600000776173206E6F74206368616E676564C3
:10277000004572726F722E20506173730004060858
:1027800000204D617374657220636F64650020578B
:102790006F726B206D6F646500204661696C00008C
:1027A00000000000A91600088D16000800000000B7
:1027B00009180008FD170008E5140008D9130008DF
:1027C00005020202020000000000000000000000FC
:1027D00000000000000000000004040A0000001EC9
:1027E0000000001E000000000302010003030303B9
:1027F00000000000040A00004825000850250008D9
:102800004E25000852250008000000007509000848
:10281000000000009D040008010000003D080008C1
:0428200000000000B4
:04000005080023C507
:00000001FF
